{
  "abi": [
    {
      "inputs": [
        {
          "internalType": "contract UnlockedWallet",
          "name": "wallet",
          "type": "address"
        },
        {
          "internalType": "contract ILemmaSwap",
          "name": "lemmaswap",
          "type": "address"
        },
        {
          "internalType": "uint256",
          "name": "amountIn",
          "type": "uint256"
        },
        {
          "internalType": "contract IERC20[]",
          "name": "path",
          "type": "address[]"
        }
      ],
      "name": "getAmountsOut",
      "outputs": [
        {
          "internalType": "uint256[]",
          "name": "amounts",
          "type": "uint256[]"
        }
      ],
      "stateMutability": "nonpayable",
      "type": "function"
    }
  ],
  "bytecode": {
    "object": "0x608060405234801561001057600080fd5b506106d1806100206000396000f3fe608060405234801561001057600080fd5b506004361061002b5760003560e01c80638fabd82d14610030575b600080fd5b61004361003e36600461042f565b610059565b60405161005091906104fd565b60405180910390f35b6060846001600160a01b0316639db5dbe48360008151811061007d5761007d610541565b60209081029190910101516040516001600160e01b031960e084901b1681526001600160a01b03909116600482015230602482015260448101869052606401600060405180830381600087803b1580156100d657600080fd5b505af11580156100ea573d6000803e3d6000fd5b505050508160008151811061010157610101610541565b602090810291909101015160405163095ea7b360e01b81526001600160a01b038681166004830152602482018690529091169063095ea7b3906044016020604051808303816000875af115801561015c573d6000803e3d6000fd5b505050506040513d601f19601f820116820180604052508101906101809190610557565b50828260008151811061019557610195610541565b60209081029190910101516040516370a0823160e01b81523060048201526001600160a01b03909116906370a0823190602401602060405180830381865afa1580156101e5573d6000803e3d6000fd5b505050506040513d601f19601f820116820180604052508101906102099190610580565b146102505760405162461bcd60e51b81526020600482015260126024820152716e6f7420656e6f7567682062616c616e636560701b60448201526064015b60405180910390fd5b828260008151811061026457610264610541565b6020908102919091010151604051636eb1769f60e11b81523060048201526001600160a01b0387811660248301529091169063dd62ed3e906044016020604051808303816000875af11580156102be573d6000803e3d6000fd5b505050506040513d601f19601f820116820180604052508101906102e29190610580565b10156103275760405162461bcd60e51b81526020600482015260146024820152736e6f7420656e6f75676820616c6c6f77616e636560601b6044820152606401610247565b6040516338ed173960e01b81526001600160a01b038516906338ed17399061035c908690600090879030904290600401610599565b6000604051808303816000875af115801561037b573d6000803e3d6000fd5b505050506040513d6000823e601f3d908101601f191682016040526103a3919081019061060a565b95945050505050565b6001600160a01b03811681146103c157600080fd5b50565b634e487b7160e01b600052604160045260246000fd5b604051601f8201601f1916810167ffffffffffffffff81118282101715610403576104036103c4565b604052919050565b600067ffffffffffffffff821115610425576104256103c4565b5060051b60200190565b6000806000806080858703121561044557600080fd5b8435610450816103ac565b9350602085810135610461816103ac565b935060408601359250606086013567ffffffffffffffff81111561048457600080fd5b8601601f8101881361049557600080fd5b80356104a86104a38261040b565b6103da565b81815260059190911b8201830190838101908a8311156104c757600080fd5b928401925b828410156104ee5783356104df816103ac565b825292840192908401906104cc565b979a9699509497505050505050565b6020808252825182820181905260009190848201906040850190845b8181101561053557835183529284019291840191600101610519565b50909695505050505050565b634e487b7160e01b600052603260045260246000fd5b60006020828403121561056957600080fd5b8151801515811461057957600080fd5b9392505050565b60006020828403121561059257600080fd5b5051919050565b600060a082018783526020878185015260a0604085015281875180845260c086019150828901935060005b818110156105e95784516001600160a01b0316835293830193918301916001016105c4565b50506001600160a01b03969096166060850152505050608001529392505050565b6000602080838503121561061d57600080fd5b825167ffffffffffffffff81111561063457600080fd5b8301601f8101851361064557600080fd5b80516106536104a38261040b565b81815260059190911b8201830190838101908783111561067257600080fd5b928401925b8284101561069057835182529284019290840190610677565b97965050505050505056fea26469706673582212202f8878aba4b189f97f6d1ab86e0b4cb5b777c69fc6bccbf4b6fcdb97b300b5c764736f6c634300080f0033",
    "linkReferences": {}
  },
  "methodIdentifiers": {
    "getAmountsOut(address,address,uint256,address[])": "8fabd82d"
  },
  "id": 0
}