{
  "abi": [
    {
      "inputs": [
        {
          "internalType": "contract IERC20",
          "name": "token",
          "type": "address"
        },
        {
          "internalType": "address",
          "name": "to",
          "type": "address"
        },
        {
          "internalType": "uint256",
          "name": "amount",
          "type": "uint256"
        }
      ],
      "name": "transferERC20",
      "outputs": [],
      "stateMutability": "nonpayable",
      "type": "function"
    }
  ],
  "bytecode": {
    "object": "0x608060405234801561001057600080fd5b50610176806100206000396000f3fe608060405234801561001057600080fd5b506004361061002b5760003560e01c80639db5dbe414610030575b600080fd5b61004361003e3660046100d6565b610045565b005b60405163a9059cbb60e01b81526001600160a01b0383811660048301526024820183905284169063a9059cbb906044016020604051808303816000875af1158015610094573d6000803e3d6000fd5b505050506040513d601f19601f820116820180604052508101906100b89190610117565b50505050565b6001600160a01b03811681146100d357600080fd5b50565b6000806000606084860312156100eb57600080fd5b83356100f6816100be565b92506020840135610106816100be565b929592945050506040919091013590565b60006020828403121561012957600080fd5b8151801515811461013957600080fd5b939250505056fea26469706673582212208b7d8b8ea2ec49dccbdfb925b424564ad3558b821af123096e7e82544b5f67c764736f6c634300080f0033",
    "linkReferences": {}
  },
  "methodIdentifiers": {
    "transferERC20(address,address,uint256)": "9db5dbe4"
  },
  "id": 0
}