{
  "abi": [
    {
      "inputs": [
        {
          "internalType": "address",
          "name": "_usdl",
          "type": "address"
        },
        {
          "internalType": "address",
          "name": "_weth",
          "type": "address"
        },
        {
          "internalType": "address",
          "name": "_feesAccumulator",
          "type": "address"
        }
      ],
      "stateMutability": "nonpayable",
      "type": "constructor"
    },
    {
      "anonymous": false,
      "inputs": [
        {
          "indexed": false,
          "internalType": "address",
          "name": "",
          "type": "address"
        },
        {
          "indexed": false,
          "internalType": "uint8",
          "name": "",
          "type": "uint8"
        }
      ],
      "name": "NewCollateralToDEXIndex",
      "type": "event"
    },
    {
      "anonymous": false,
      "inputs": [
        {
          "indexed": false,
          "internalType": "address",
          "name": "",
          "type": "address"
        }
      ],
      "name": "NewFeesAccumulator",
      "type": "event"
    },
    {
      "anonymous": false,
      "inputs": [
        {
          "indexed": false,
          "internalType": "uint256",
          "name": "",
          "type": "uint256"
        }
      ],
      "name": "NewLemmaSwapFees",
      "type": "event"
    },
    {
      "anonymous": false,
      "inputs": [
        {
          "indexed": false,
          "internalType": "address",
          "name": "",
          "type": "address"
        }
      ],
      "name": "NewUSDL",
      "type": "event"
    },
    {
      "anonymous": false,
      "inputs": [
        {
          "indexed": true,
          "internalType": "bytes32",
          "name": "role",
          "type": "bytes32"
        },
        {
          "indexed": true,
          "internalType": "bytes32",
          "name": "previousAdminRole",
          "type": "bytes32"
        },
        {
          "indexed": true,
          "internalType": "bytes32",
          "name": "newAdminRole",
          "type": "bytes32"
        }
      ],
      "name": "RoleAdminChanged",
      "type": "event"
    },
    {
      "anonymous": false,
      "inputs": [
        {
          "indexed": true,
          "internalType": "bytes32",
          "name": "role",
          "type": "bytes32"
        },
        {
          "indexed": true,
          "internalType": "address",
          "name": "account",
          "type": "address"
        },
        {
          "indexed": true,
          "internalType": "address",
          "name": "sender",
          "type": "address"
        }
      ],
      "name": "RoleGranted",
      "type": "event"
    },
    {
      "anonymous": false,
      "inputs": [
        {
          "indexed": true,
          "internalType": "bytes32",
          "name": "role",
          "type": "bytes32"
        },
        {
          "indexed": true,
          "internalType": "address",
          "name": "account",
          "type": "address"
        },
        {
          "indexed": true,
          "internalType": "address",
          "name": "sender",
          "type": "address"
        }
      ],
      "name": "RoleRevoked",
      "type": "event"
    },
    {
      "inputs": [],
      "name": "ADMIN_ROLE",
      "outputs": [
        {
          "internalType": "bytes32",
          "name": "",
          "type": "bytes32"
        }
      ],
      "stateMutability": "view",
      "type": "function"
    },
    {
      "inputs": [],
      "name": "DEFAULT_ADMIN_ROLE",
      "outputs": [
        {
          "internalType": "bytes32",
          "name": "",
          "type": "bytes32"
        }
      ],
      "stateMutability": "view",
      "type": "function"
    },
    {
      "inputs": [],
      "name": "OWNER_ROLE",
      "outputs": [
        {
          "internalType": "bytes32",
          "name": "",
          "type": "bytes32"
        }
      ],
      "stateMutability": "view",
      "type": "function"
    },
    {
      "inputs": [
        {
          "internalType": "address",
          "name": "",
          "type": "address"
        }
      ],
      "name": "collateralToDexIndex",
      "outputs": [
        {
          "internalType": "uint8",
          "name": "",
          "type": "uint8"
        }
      ],
      "stateMutability": "view",
      "type": "function"
    },
    {
      "inputs": [],
      "name": "feesAccumulator",
      "outputs": [
        {
          "internalType": "address",
          "name": "",
          "type": "address"
        }
      ],
      "stateMutability": "view",
      "type": "function"
    },
    {
      "inputs": [
        {
          "internalType": "address",
          "name": "token",
          "type": "address"
        },
        {
          "internalType": "uint256",
          "name": "amount",
          "type": "uint256"
        }
      ],
      "name": "getProtocolFees",
      "outputs": [
        {
          "internalType": "uint256",
          "name": "",
          "type": "uint256"
        }
      ],
      "stateMutability": "view",
      "type": "function"
    },
    {
      "inputs": [],
      "name": "getProtocolFeesCoeff",
      "outputs": [
        {
          "internalType": "uint256",
          "name": "",
          "type": "uint256"
        }
      ],
      "stateMutability": "view",
      "type": "function"
    },
    {
      "inputs": [
        {
          "internalType": "bytes32",
          "name": "role",
          "type": "bytes32"
        }
      ],
      "name": "getRoleAdmin",
      "outputs": [
        {
          "internalType": "bytes32",
          "name": "",
          "type": "bytes32"
        }
      ],
      "stateMutability": "view",
      "type": "function"
    },
    {
      "inputs": [
        {
          "internalType": "bytes32",
          "name": "role",
          "type": "bytes32"
        },
        {
          "internalType": "address",
          "name": "account",
          "type": "address"
        }
      ],
      "name": "grantRole",
      "outputs": [],
      "stateMutability": "nonpayable",
      "type": "function"
    },
    {
      "inputs": [
        {
          "internalType": "bytes32",
          "name": "role",
          "type": "bytes32"
        },
        {
          "internalType": "address",
          "name": "account",
          "type": "address"
        }
      ],
      "name": "hasRole",
      "outputs": [
        {
          "internalType": "bool",
          "name": "",
          "type": "bool"
        }
      ],
      "stateMutability": "view",
      "type": "function"
    },
    {
      "inputs": [],
      "name": "lemmaSwapFees",
      "outputs": [
        {
          "internalType": "uint256",
          "name": "",
          "type": "uint256"
        }
      ],
      "stateMutability": "view",
      "type": "function"
    },
    {
      "inputs": [
        {
          "internalType": "bytes32",
          "name": "role",
          "type": "bytes32"
        },
        {
          "internalType": "address",
          "name": "account",
          "type": "address"
        }
      ],
      "name": "renounceRole",
      "outputs": [],
      "stateMutability": "nonpayable",
      "type": "function"
    },
    {
      "inputs": [
        {
          "internalType": "address",
          "name": "token",
          "type": "address"
        },
        {
          "internalType": "uint256",
          "name": "amount",
          "type": "uint256"
        }
      ],
      "name": "rescueFunds",
      "outputs": [],
      "stateMutability": "nonpayable",
      "type": "function"
    },
    {
      "inputs": [
        {
          "internalType": "bytes32",
          "name": "role",
          "type": "bytes32"
        },
        {
          "internalType": "address",
          "name": "account",
          "type": "address"
        }
      ],
      "name": "revokeRole",
      "outputs": [],
      "stateMutability": "nonpayable",
      "type": "function"
    },
    {
      "inputs": [
        {
          "internalType": "address",
          "name": "collateral",
          "type": "address"
        },
        {
          "internalType": "uint8",
          "name": "dexIndex",
          "type": "uint8"
        }
      ],
      "name": "setCollateralToDexIndex",
      "outputs": [],
      "stateMutability": "nonpayable",
      "type": "function"
    },
    {
      "inputs": [
        {
          "internalType": "address",
          "name": "_feesAccumulator",
          "type": "address"
        }
      ],
      "name": "setFeeAccumulator",
      "outputs": [],
      "stateMutability": "nonpayable",
      "type": "function"
    },
    {
      "inputs": [
        {
          "internalType": "uint256",
          "name": "_fees",
          "type": "uint256"
        }
      ],
      "name": "setLemmaSwapFees",
      "outputs": [],
      "stateMutability": "nonpayable",
      "type": "function"
    },
    {
      "inputs": [
        {
          "internalType": "address",
          "name": "_usdl",
          "type": "address"
        }
      ],
      "name": "setUSDL",
      "outputs": [],
      "stateMutability": "nonpayable",
      "type": "function"
    },
    {
      "inputs": [
        {
          "internalType": "bytes4",
          "name": "interfaceId",
          "type": "bytes4"
        }
      ],
      "name": "supportsInterface",
      "outputs": [
        {
          "internalType": "bool",
          "name": "",
          "type": "bool"
        }
      ],
      "stateMutability": "view",
      "type": "function"
    },
    {
      "inputs": [
        {
          "internalType": "uint256",
          "name": "amountOutMin",
          "type": "uint256"
        },
        {
          "internalType": "address[]",
          "name": "path",
          "type": "address[]"
        },
        {
          "internalType": "address",
          "name": "to",
          "type": "address"
        },
        {
          "internalType": "uint256",
          "name": "deadline",
          "type": "uint256"
        }
      ],
      "name": "swapExactETHForTokens",
      "outputs": [
        {
          "internalType": "uint256[]",
          "name": "amounts",
          "type": "uint256[]"
        }
      ],
      "stateMutability": "payable",
      "type": "function"
    },
    {
      "inputs": [
        {
          "internalType": "uint256",
          "name": "amountIn",
          "type": "uint256"
        },
        {
          "internalType": "uint256",
          "name": "amountOutMin",
          "type": "uint256"
        },
        {
          "internalType": "address[]",
          "name": "path",
          "type": "address[]"
        },
        {
          "internalType": "address",
          "name": "to",
          "type": "address"
        },
        {
          "internalType": "uint256",
          "name": "deadline",
          "type": "uint256"
        }
      ],
      "name": "swapExactTokensForETH",
      "outputs": [
        {
          "internalType": "uint256[]",
          "name": "amounts",
          "type": "uint256[]"
        }
      ],
      "stateMutability": "nonpayable",
      "type": "function"
    },
    {
      "inputs": [
        {
          "internalType": "uint256",
          "name": "amountIn",
          "type": "uint256"
        },
        {
          "internalType": "uint256",
          "name": "amountOutMin",
          "type": "uint256"
        },
        {
          "internalType": "address[]",
          "name": "path",
          "type": "address[]"
        },
        {
          "internalType": "address",
          "name": "to",
          "type": "address"
        },
        {
          "internalType": "uint256",
          "name": "deadline",
          "type": "uint256"
        }
      ],
      "name": "swapExactTokensForTokens",
      "outputs": [
        {
          "internalType": "uint256[]",
          "name": "amounts",
          "type": "uint256[]"
        }
      ],
      "stateMutability": "nonpayable",
      "type": "function"
    },
    {
      "inputs": [],
      "name": "usdl",
      "outputs": [
        {
          "internalType": "contract IUSDLemma",
          "name": "",
          "type": "address"
        }
      ],
      "stateMutability": "view",
      "type": "function"
    },
    {
      "inputs": [],
      "name": "weth",
      "outputs": [
        {
          "internalType": "contract IWETH9",
          "name": "",
          "type": "address"
        }
      ],
      "stateMutability": "view",
      "type": "function"
    },
    {
      "stateMutability": "payable",
      "type": "receive"
    }
  ],
  "bytecode": {
    "object": "0x60806040523480156200001157600080fd5b5060405162002898380380620028988339810160408190526200003491620004ad565b60018055620000626000805160206200285883398151915260008051602062002878833981519152620000e1565b6200007d60008051602062002878833981519152336200012c565b6200009860008051602062002858833981519152336200013c565b600480546001600160a01b039485166001600160a01b0319918216179091556003805493851693821693909317909255600280549190931691161790556103e860055562000671565b600082815260208190526040808220600101805490849055905190918391839186917fbd79b86ffe0ab8e8776151514217cd7cacd52c909f66475c3af44e129f0b00ff9190a4505050565b6200013882826200016a565b5050565b60008281526020819052604090206001015462000159816200020a565b6200016583836200016a565b505050565b6000828152602081815260408083206001600160a01b038516845290915290205460ff1662000138576000828152602081815260408083206001600160a01b03851684529091529020805460ff19166001179055620001c63390565b6001600160a01b0316816001600160a01b0316837f2f8788117e7eff1d82e926ec794901d17c78024a50270940304540a733656f0d60405160405180910390a45050565b62000216813362000219565b50565b6000828152602081815260408083206001600160a01b038516845290915290205460ff1662000138576200025881620002b260201b62000ebc1760201c565b6200026e83602062000ece620002d0821b17811c565b604051602001620002819291906200052a565b60408051601f198184030181529082905262461bcd60e51b8252620002a991600401620005a3565b60405180910390fd5b6060620002ca6001600160a01b0383166014620002d0565b92915050565b60606000620002e1836002620005ee565b620002ee90600262000610565b6001600160401b038111156200030857620003086200062b565b6040519080825280601f01601f19166020018201604052801562000333576020820181803683370190505b509050600360fc1b8160008151811062000351576200035162000641565b60200101906001600160f81b031916908160001a905350600f60fb1b8160018151811062000383576200038362000641565b60200101906001600160f81b031916908160001a9053506000620003a9846002620005ee565b620003b690600162000610565b90505b600181111562000438576f181899199a1a9b1b9c1cb0b131b232b360811b85600f1660108110620003ee57620003ee62000641565b1a60f81b82828151811062000407576200040762000641565b60200101906001600160f81b031916908160001a90535060049490941c93620004308162000657565b9050620003b9565b508315620004895760405162461bcd60e51b815260206004820181905260248201527f537472696e67733a20686578206c656e67746820696e73756666696369656e746044820152606401620002a9565b9392505050565b80516001600160a01b0381168114620004a857600080fd5b919050565b600080600060608486031215620004c357600080fd5b620004ce8462000490565b9250620004de6020850162000490565b9150620004ee6040850162000490565b90509250925092565b60005b8381101562000514578181015183820152602001620004fa565b8381111562000524576000848401525b50505050565b7f416363657373436f6e74726f6c3a206163636f756e742000000000000000000081526000835162000564816017850160208801620004f7565b7001034b99036b4b9b9b4b733903937b6329607d1b601791840191820152835162000597816028840160208801620004f7565b01602801949350505050565b6020815260008251806020840152620005c4816040850160208701620004f7565b601f01601f19169190910160400192915050565b634e487b7160e01b600052601160045260246000fd5b60008160001904831182151516156200060b576200060b620005d8565b500290565b60008219821115620006265762000626620005d8565b500190565b634e487b7160e01b600052604160045260246000fd5b634e487b7160e01b600052603260045260246000fd5b600081620006695762000669620005d8565b506000190190565b6121d780620006816000396000f3fe60806040526004361061014e5760003560e01c80636ff8e4f8116100b6578063a217fddf1161006f578063a217fddf1461042a578063ad7bb9dd1461043f578063b3d8516714610455578063d547741f14610475578063e58378bb14610495578063f073658a146104b757600080fd5b80636ff8e4f81461034157806375b238fc1461038357806378e3214f146103b75780637ff36ab5146103d757806391d14854146103ea578063a0498ff01461040a57600080fd5b80632f2ff15d116101085780632f2ff15d1461028c57806336568abe146102ac57806338ed1739146102cc5780633fc8cef3146102ec578063498be97d1461030c578063592389b81461032c57600080fd5b80621543101461017457806301ffc9a7146101b15780630ef73efc146101e157806318cbafe51461020f578063248a9ca31461023c5780632c05316a1461026c57600080fd5b3661016f576003546001600160a01b0316331461016d5761016d611b05565b005b600080fd5b34801561018057600080fd5b50600254610194906001600160a01b031681565b6040516001600160a01b0390911681526020015b60405180910390f35b3480156101bd57600080fd5b506101d16101cc366004611b1b565b6104d7565b60405190151581526020016101a8565b3480156101ed57600080fd5b506102016101fc366004611b61565b61050e565b6040519081526020016101a8565b34801561021b57600080fd5b5061022f61022a366004611bd7565b610537565b6040516101a89190611c47565b34801561024857600080fd5b50610201610257366004611c8b565b60009081526020819052604090206001015490565b34801561027857600080fd5b5061016d610287366004611c8b565b6107b3565b34801561029857600080fd5b5061016d6102a7366004611ca4565b610850565b3480156102b857600080fd5b5061016d6102c7366004611ca4565b61087a565b3480156102d857600080fd5b5061022f6102e7366004611bd7565b6108f8565b3480156102f857600080fd5b50600354610194906001600160a01b031681565b34801561031857600080fd5b5061016d610327366004611cd0565b610a2d565b34801561033857600080fd5b50610201610b11565b34801561034d57600080fd5b5061037161035c366004611d0d565b60066020526000908152604090205460ff1681565b60405160ff90911681526020016101a8565b34801561038f57600080fd5b506102017fa49807205ce4d355092ef5a8a18f56e8913cf4a201fbe287825b095693c2177581565b3480156103c357600080fd5b5061016d6103d2366004611b61565b610b27565b61022f6103e5366004611d28565b610b4a565b3480156103f657600080fd5b506101d1610405366004611ca4565b610d4e565b34801561041657600080fd5b5061016d610425366004611d0d565b610d77565b34801561043657600080fd5b50610201600081565b34801561044b57600080fd5b5061020160055481565b34801561046157600080fd5b5061016d610470366004611d0d565b610e0b565b34801561048157600080fd5b5061016d610490366004611ca4565b610e97565b3480156104a157600080fd5b5061020160008051602061218283398151915281565b3480156104c357600080fd5b50600454610194906001600160a01b031681565b60006001600160e01b03198216637965db0b60e01b148061050857506301ffc9a760e01b6001600160e01b03198316145b92915050565b6000620f424061051c610b11565b6105269084611da4565b6105309190611dc3565b9392505050565b606061054161106a565b814281101561056b5760405162461bcd60e51b815260040161056290611de5565b60405180910390fd5b6002851461058b5760405162461bcd60e51b815260040161056290611e0c565b6003546001600160a01b0316868660018181106105aa576105aa611e41565b90506020020160208101906105bf9190611d0d565b6001600160a01b0316146106045760405162461bcd60e51b815260206004820152600c60248201526b092dcecc2d8d2c840e0c2e8d60a31b6044820152606401610562565b8467ffffffffffffffff81111561061d5761061d611e57565b604051908082528060200260200182016040528015610646578160200160208202803683370190505b509150878260008151811061065d5761065d611e41565b6020026020010181815250506106aa8686600081811061067f5761067f611e41565b90506020020160208101906106949190611d0d565b6003548a906001600160a01b03168a33306110c3565b826001815181106106bd576106bd611e41565b60209081029190910101526003546040516370a0823160e01b81523060048201526000916001600160a01b0316906370a0823190602401602060405180830381865afa158015610711573d6000803e3d6000fd5b505050506040513d601f19601f820116820180604052508101906107359190611e6d565b600354604051632e1a7d4d60e01b8152600481018390529192506001600160a01b031690632e1a7d4d90602401600060405180830381600087803b15801561077c57600080fd5b505af1158015610790573d6000803e3d6000fd5b5050505061079e85826115b0565b50506107a960018055565b9695505050505050565b6000805160206121828339815191526107cb81611653565b81620f42408111156108135760405162461bcd60e51b815260206004820152601160248201527046656573206f7574206f662072616e676560781b6044820152606401610562565b60058390556040518381527fa860f38a78c14a7c9346741af37f17369e3bec344fd665e71af7783e5131ef419060200160405180910390a1505050565b60008281526020819052604090206001015461086b81611653565b6108758383611660565b505050565b6001600160a01b03811633146108ea5760405162461bcd60e51b815260206004820152602f60248201527f416363657373436f6e74726f6c3a2063616e206f6e6c792072656e6f756e636560448201526e103937b632b9903337b91039b2b63360891b6064820152608401610562565b6108f482826116e4565b5050565b606061090261106a565b81428110156109235760405162461bcd60e51b815260040161056290611de5565b600285146109435760405162461bcd60e51b815260040161056290611e0c565b8467ffffffffffffffff81111561095c5761095c611e57565b604051908082528060200260200182016040528015610985578160200160208202803683370190505b509150878260008151811061099c5761099c611e41565b602002602001018181525050610a04868660008181106109be576109be611e41565b90506020020160208101906109d39190611d0d565b89888860018181106109e7576109e7611e41565b90506020020160208101906109fc9190611d0d565b8a33896110c3565b82600181518110610a1757610a17611e41565b602002602001018181525050506107a960018055565b600080516020612182833981519152610a4581611653565b826001600160a01b038116610a9c5760405162461bcd60e51b815260206004820152601760248201527f436f6c6c61746572616c206973206e6f742076616c69640000000000000000006044820152606401610562565b610aa7836001611e86565b6001600160a01b038516600081815260066020908152604091829020805460ff191660ff9586161790558151928352928616928201929092527f05628179bba96c8e08865fb3e2d47bcb1ce8e918770406baac2937689b5acc00910160405180910390a150505050565b60006002600554610b229190611dc3565b905090565b600080516020612182833981519152610b3f81611653565b610875833384611749565b6060610b5461106a565b8142811015610b755760405162461bcd60e51b815260040161056290611de5565b60028514610b955760405162461bcd60e51b815260040161056290611e0c565b6003546001600160a01b03168686600081610bb257610bb2611e41565b9050602002016020810190610bc79190611d0d565b6001600160a01b031614610c0c5760405162461bcd60e51b815260206004820152600c60248201526b092dcecc2d8d2c840e0c2e8d60a31b6044820152606401610562565b600360009054906101000a90046001600160a01b03166001600160a01b031663d0e30db0346040518263ffffffff1660e01b81526004016000604051808303818588803b158015610c5c57600080fd5b505af1158015610c70573d6000803e3d6000fd5b50889350505067ffffffffffffffff8211159050610c9057610c90611e57565b604051908082528060200260200182016040528015610cb9578160200160208202803683370190505b5091503482600081518110610cd057610cd0611e41565b6020908102919091010152600354610d1c906001600160a01b03163488886001818110610cff57610cff611e41565b9050602002016020810190610d149190611d0d565b8a30896110c3565b82600181518110610d2f57610d2f611e41565b60200260200101818152505050610d4560018055565b95945050505050565b6000918252602082815260408084206001600160a01b0393909316845291905290205460ff1690565b600080516020612182833981519152610d8f81611653565b6001600160a01b038216610db55760405162461bcd60e51b815260040161056290611eab565b600280546001600160a01b0319166001600160a01b0384169081179091556040519081527ff63b8135af572e3a5fb6077a33b95dd795eab255f3749f3a9c4a5e9b08a51021906020015b60405180910390a15050565b600080516020612182833981519152610e2381611653565b6001600160a01b038216610e495760405162461bcd60e51b815260040161056290611eab565b600480546001600160a01b0319166001600160a01b0384169081179091556040519081527f138356914e213daaec7b817cbd8bb99fbde1c15ac65b6f0d4a153078a5ad342590602001610dff565b600082815260208190526040902060010154610eb281611653565b61087583836116e4565b60606105086001600160a01b03831660145b60606000610edd836002611da4565b610ee8906002611ee2565b67ffffffffffffffff811115610f0057610f00611e57565b6040519080825280601f01601f191660200182016040528015610f2a576020820181803683370190505b509050600360fc1b81600081518110610f4557610f45611e41565b60200101906001600160f81b031916908160001a905350600f60fb1b81600181518110610f7457610f74611e41565b60200101906001600160f81b031916908160001a9053506000610f98846002611da4565b610fa3906001611ee2565b90505b600181111561101b576f181899199a1a9b1b9c1cb0b131b232b360811b85600f1660108110610fd757610fd7611e41565b1a60f81b828281518110610fed57610fed611e41565b60200101906001600160f81b031916908160001a90535060049490941c9361101481611efa565b9050610fa6565b5083156105305760405162461bcd60e51b815260206004820181905260248201527f537472696e67733a20686578206c656e67746820696e73756666696369656e746044820152606401610562565b6002600154036110bc5760405162461bcd60e51b815260206004820152601f60248201527f5265656e7472616e637947756172643a207265656e7472616e742063616c6c006044820152606401610562565b6002600155565b60008086116111145760405162461bcd60e51b815260206004820152601c60248201527f5a65726f20616d6f756e74496e206973206e6f7420616c6c6f776564000000006044820152606401610562565b6001600160a01b03831630146111305761113087843089611849565b600061113c888861050e565b6002549091506111579089906001600160a01b031683611749565b6111618188611f11565b9650600061116f8989611953565b60048054604051636eb1769f60e11b815230928101929092526001600160a01b03908116602483015291925089918b169063dd62ed3e90604401602060405180830381865afa1580156111c6573d6000803e3d6000fd5b505050506040513d601f19601f820116820180604052508101906111ea9190611e6d565b101561126c576004805460405163095ea7b360e01b81526001600160a01b039182169281019290925260001960248301528a169063095ea7b3906044016020604051808303816000875af1158015611246573d6000803e3d6000fd5b505050506040513d601f19601f8201168201806040525081019061126a9190611f28565b505b6004546001600160a01b03908116908a16036112f7576004546001600160a01b031663a9fae5fd308361129e8b6119e9565b8a8c6040518663ffffffff1660e01b81526004016112c0959493929190611f4a565b600060405180830381600087803b1580156112da57600080fd5b505af11580156112ee573d6000803e3d6000fd5b505050506114a2565b6004546001600160a01b039081169088160361134c576004546001600160a01b0316630dce2a1130836113298d6119e9565b60008e6040518663ffffffff1660e01b81526004016112c0959493929190611f4a565b6004546001600160a01b0316630dce2a1130836113688d6119e9565b60008e6040518663ffffffff1660e01b815260040161138b959493929190611f4a565b600060405180830381600087803b1580156113a557600080fd5b505af11580156113b9573d6000803e3d6000fd5b5050600480546040516370a0823160e01b81523092810192909252600093506001600160a01b031691506370a0823190602401602060405180830381865afa158015611409573d6000803e3d6000fd5b505050506040513d601f19601f8201168201806040525081019061142d9190611e6d565b6004549091506001600160a01b031663a9fae5fd308361144c8c6119e9565b8b8d6040518663ffffffff1660e01b815260040161146e959493929190611f4a565b600060405180830381600087803b15801561148857600080fd5b505af115801561149c573d6000803e3d6000fd5b50505050505b6040516370a0823160e01b81523060048201526001600160a01b038816906370a0823190602401602060405180830381865afa1580156114e6573d6000803e3d6000fd5b505050506040513d601f19601f8201168201806040525081019061150a9190611e6d565b92506000611518888561050e565b6002549091506115339089906001600160a01b031683611749565b61153d8185611f11565b9350868410156115885760405162461bcd60e51b8152602060048201526016602482015275125b9cdd59999a58da595b9d08185b5bdd5b9d13dd5d60521b6044820152606401610562565b6001600160a01b03851630146115a3576115a3888686611749565b5050509695505050505050565b604080516000808252602082019092526001600160a01b0384169083906040516115da9190611faa565b60006040518083038185875af1925050503d8060008114611617576040519150601f19603f3d011682016040523d82523d6000602084013e61161c565b606091505b50509050806108755760405162461bcd60e51b815260206004820152600360248201526253544560e81b6044820152606401610562565b61165d8133611aac565b50565b61166a8282610d4e565b6108f4576000828152602081815260408083206001600160a01b03851684529091529020805460ff191660011790556116a03390565b6001600160a01b0316816001600160a01b0316837f2f8788117e7eff1d82e926ec794901d17c78024a50270940304540a733656f0d60405160405180910390a45050565b6116ee8282610d4e565b156108f4576000828152602081815260408083206001600160a01b0385168085529252808320805460ff1916905551339285917ff6391f5c32d9c69d2a47ea670b442974b53935d1edc7fd64eb21e047a839171b9190a45050565b604080516001600160a01b038481166024830152604480830185905283518084039091018152606490920183526020820180516001600160e01b031663a9059cbb60e01b17905291516000928392908716916117a59190611faa565b6000604051808303816000865af19150503d80600081146117e2576040519150601f19603f3d011682016040523d82523d6000602084013e6117e7565b606091505b50915091508180156118115750805115806118115750808060200190518101906118119190611f28565b6118425760405162461bcd60e51b815260206004820152600260248201526114d560f21b6044820152606401610562565b5050505050565b604080516001600160a01b0385811660248301528481166044830152606480830185905283518084039091018152608490920183526020820180516001600160e01b03166323b872dd60e01b17905291516000928392908816916118ad9190611faa565b6000604051808303816000865af19150503d80600081146118ea576040519150601f19603f3d011682016040523d82523d6000602084013e6118ef565b606091505b50915091508180156119195750805115806119195750808060200190518101906119199190611f28565b61194b5760405162461bcd60e51b815260206004820152600360248201526229aa2360e91b6044820152606401610562565b505050505050565b600080836001600160a01b031663313ce5676040518163ffffffff1660e01b8152600401602060405180830381865afa158015611994573d6000803e3d6000fd5b505050506040513d601f19601f820116820180604052508101906119b89190611e6d565b90506119c581600a6120aa565b6119d784670de0b6b3a7640000611da4565b6119e19190611dc3565b949350505050565b60006001600160a01b038216611a115760405162461bcd60e51b815260040161056290611eab565b6001600160a01b03821660009081526006602052604081205460ff169003611a7b5760405162461bcd60e51b815260206004820152601b60248201527f436f6c6c61746572616c206973206e6f7420737570706f7274656400000000006044820152606401610562565b6001600160a01b038216600090815260066020526040902054611aa39060019060ff166120b6565b60ff1692915050565b611ab68282610d4e565b6108f457611ac381610ebc565b611ace836020610ece565b604051602001611adf9291906120d9565b60408051601f198184030181529082905262461bcd60e51b82526105629160040161214e565b634e487b7160e01b600052600160045260246000fd5b600060208284031215611b2d57600080fd5b81356001600160e01b03198116811461053057600080fd5b80356001600160a01b0381168114611b5c57600080fd5b919050565b60008060408385031215611b7457600080fd5b611b7d83611b45565b946020939093013593505050565b60008083601f840112611b9d57600080fd5b50813567ffffffffffffffff811115611bb557600080fd5b6020830191508360208260051b8501011115611bd057600080fd5b9250929050565b60008060008060008060a08789031215611bf057600080fd5b8635955060208701359450604087013567ffffffffffffffff811115611c1557600080fd5b611c2189828a01611b8b565b9095509350611c34905060608801611b45565b9150608087013590509295509295509295565b6020808252825182820181905260009190848201906040850190845b81811015611c7f57835183529284019291840191600101611c63565b50909695505050505050565b600060208284031215611c9d57600080fd5b5035919050565b60008060408385031215611cb757600080fd5b82359150611cc760208401611b45565b90509250929050565b60008060408385031215611ce357600080fd5b611cec83611b45565b9150602083013560ff81168114611d0257600080fd5b809150509250929050565b600060208284031215611d1f57600080fd5b61053082611b45565b600080600080600060808688031215611d4057600080fd5b85359450602086013567ffffffffffffffff811115611d5e57600080fd5b611d6a88828901611b8b565b9095509350611d7d905060408701611b45565b949793965091946060013592915050565b634e487b7160e01b600052601160045260246000fd5b6000816000190483118215151615611dbe57611dbe611d8e565b500290565b600082611de057634e487b7160e01b600052601260045260246000fd5b500490565b6020808252600d908201526c151c98591948195e1c1a5c9959609a1b604082015260600190565b6020808252818101527f4d756c74692d686f702073776170206e6f7420737570706f7274656420796574604082015260600190565b634e487b7160e01b600052603260045260246000fd5b634e487b7160e01b600052604160045260246000fd5b600060208284031215611e7f57600080fd5b5051919050565b600060ff821660ff84168060ff03821115611ea357611ea3611d8e565b019392505050565b6020808252601b908201527f5a65726f2061646472657373206973206e6f7420616c6c6f7765640000000000604082015260600190565b60008219821115611ef557611ef5611d8e565b500190565b600081611f0957611f09611d8e565b506000190190565b600082821015611f2357611f23611d8e565b500390565b600060208284031215611f3a57600080fd5b8151801515811461053057600080fd5b6001600160a01b039586168152602081019490945260408401929092526060830152909116608082015260a00190565b60005b83811015611f95578181015183820152602001611f7d565b83811115611fa4576000848401525b50505050565b60008251611fbc818460208701611f7a565b9190910192915050565b600181815b80851115612001578160001904821115611fe757611fe7611d8e565b80851615611ff457918102915b93841c9390800290611fcb565b509250929050565b60008261201857506001610508565b8161202557506000610508565b816001811461203b576002811461204557612061565b6001915050610508565b60ff84111561205657612056611d8e565b50506001821b610508565b5060208310610133831016604e8410600b8410161715612084575081810a610508565b61208e8383611fc6565b80600019048211156120a2576120a2611d8e565b029392505050565b60006105308383612009565b600060ff821660ff8416808210156120d0576120d0611d8e565b90039392505050565b7f416363657373436f6e74726f6c3a206163636f756e7420000000000000000000815260008351612111816017850160208801611f7a565b7001034b99036b4b9b9b4b733903937b6329607d1b6017918401918201528351612142816028840160208801611f7a565b01602801949350505050565b602081526000825180602084015261216d816040850160208701611f7a565b601f01601f1916919091016040019291505056feb19546dff01e856fb3f010c267a7b1c60363cf8a4664e21cc89c26224620214ea26469706673582212207688925c9584d5ed3596427ee757a0c8c1db57344242dedb17908fb3e1142ced64736f6c634300080e0033b19546dff01e856fb3f010c267a7b1c60363cf8a4664e21cc89c26224620214ea49807205ce4d355092ef5a8a18f56e8913cf4a201fbe287825b095693c21775",
    "linkReferences": {}
  },
  "methodIdentifiers": {
    "ADMIN_ROLE()": "75b238fc",
    "DEFAULT_ADMIN_ROLE()": "a217fddf",
    "OWNER_ROLE()": "e58378bb",
    "collateralToDexIndex(address)": "6ff8e4f8",
    "feesAccumulator()": "00154310",
    "getProtocolFees(address,uint256)": "0ef73efc",
    "getProtocolFeesCoeff()": "592389b8",
    "getRoleAdmin(bytes32)": "248a9ca3",
    "grantRole(bytes32,address)": "2f2ff15d",
    "hasRole(bytes32,address)": "91d14854",
    "lemmaSwapFees()": "ad7bb9dd",
    "renounceRole(bytes32,address)": "36568abe",
    "rescueFunds(address,uint256)": "78e3214f",
    "revokeRole(bytes32,address)": "d547741f",
    "setCollateralToDexIndex(address,uint8)": "498be97d",
    "setFeeAccumulator(address)": "a0498ff0",
    "setLemmaSwapFees(uint256)": "2c05316a",
    "setUSDL(address)": "b3d85167",
    "supportsInterface(bytes4)": "01ffc9a7",
    "swapExactETHForTokens(uint256,address[],address,uint256)": "7ff36ab5",
    "swapExactTokensForETH(uint256,uint256,address[],address,uint256)": "18cbafe5",
    "swapExactTokensForTokens(uint256,uint256,address[],address,uint256)": "38ed1739",
    "usdl()": "f073658a",
    "weth()": "3fc8cef3"
  },
  "id": 24
}