{
  "_format": "hh-sol-artifact-1",
  "contractName": "FewWrappedToken",
  "sourceName": "contracts/FewWrappedToken.sol",
  "abi": [
    {
      "inputs": [],
      "stateMutability": "nonpayable",
      "type": "constructor"
    },
    {
      "anonymous": false,
      "inputs": [
        {
          "indexed": true,
          "internalType": "address",
          "name": "owner",
          "type": "address"
        },
        {
          "indexed": true,
          "internalType": "address",
          "name": "spender",
          "type": "address"
        },
        {
          "indexed": false,
          "internalType": "uint256",
          "name": "value",
          "type": "uint256"
        }
      ],
      "name": "Approval",
      "type": "event"
    },
    {
      "anonymous": false,
      "inputs": [
        {
          "indexed": true,
          "internalType": "address",
          "name": "burner",
          "type": "address"
        },
        {
          "indexed": false,
          "internalType": "uint256",
          "name": "amount",
          "type": "uint256"
        },
        {
          "indexed": true,
          "internalType": "address",
          "name": "to",
          "type": "address"
        }
      ],
      "name": "Burn",
      "type": "event"
    },
    {
      "anonymous": false,
      "inputs": [
        {
          "indexed": true,
          "internalType": "address",
          "name": "minter",
          "type": "address"
        },
        {
          "indexed": false,
          "internalType": "uint256",
          "name": "amount",
          "type": "uint256"
        },
        {
          "indexed": true,
          "internalType": "address",
          "name": "to",
          "type": "address"
        }
      ],
      "name": "Mint",
      "type": "event"
    },
    {
      "anonymous": false,
      "inputs": [
        {
          "indexed": true,
          "internalType": "address",
          "name": "from",
          "type": "address"
        },
        {
          "indexed": true,
          "internalType": "address",
          "name": "to",
          "type": "address"
        },
        {
          "indexed": false,
          "internalType": "uint256",
          "name": "value",
          "type": "uint256"
        }
      ],
      "name": "Transfer",
      "type": "event"
    },
    {
      "anonymous": false,
      "inputs": [
        {
          "indexed": true,
          "internalType": "address",
          "name": "sender",
          "type": "address"
        },
        {
          "indexed": false,
          "internalType": "uint256",
          "name": "amount",
          "type": "uint256"
        },
        {
          "indexed": true,
          "internalType": "address",
          "name": "to",
          "type": "address"
        }
      ],
      "name": "Unwrap",
      "type": "event"
    },
    {
      "anonymous": false,
      "inputs": [
        {
          "indexed": true,
          "internalType": "address",
          "name": "sender",
          "type": "address"
        },
        {
          "indexed": false,
          "internalType": "uint256",
          "name": "amount",
          "type": "uint256"
        },
        {
          "indexed": true,
          "internalType": "address",
          "name": "to",
          "type": "address"
        }
      ],
      "name": "Wrap",
      "type": "event"
    },
    {
      "inputs": [],
      "name": "DOMAIN_SEPARATOR",
      "outputs": [
        {
          "internalType": "bytes32",
          "name": "",
          "type": "bytes32"
        }
      ],
      "stateMutability": "view",
      "type": "function"
    },
    {
      "inputs": [],
      "name": "PERMIT_TYPEHASH",
      "outputs": [
        {
          "internalType": "bytes32",
          "name": "",
          "type": "bytes32"
        }
      ],
      "stateMutability": "view",
      "type": "function"
    },
    {
      "inputs": [
        {
          "internalType": "address",
          "name": "",
          "type": "address"
        },
        {
          "internalType": "address",
          "name": "",
          "type": "address"
        }
      ],
      "name": "allowance",
      "outputs": [
        {
          "internalType": "uint256",
          "name": "",
          "type": "uint256"
        }
      ],
      "stateMutability": "view",
      "type": "function"
    },
    {
      "inputs": [
        {
          "internalType": "address",
          "name": "spender",
          "type": "address"
        },
        {
          "internalType": "uint256",
          "name": "value",
          "type": "uint256"
        }
      ],
      "name": "approve",
      "outputs": [
        {
          "internalType": "bool",
          "name": "",
          "type": "bool"
        }
      ],
      "stateMutability": "nonpayable",
      "type": "function"
    },
    {
      "inputs": [
        {
          "internalType": "address",
          "name": "",
          "type": "address"
        }
      ],
      "name": "balanceOf",
      "outputs": [
        {
          "internalType": "uint256",
          "name": "",
          "type": "uint256"
        }
      ],
      "stateMutability": "view",
      "type": "function"
    },
    {
      "inputs": [
        {
          "internalType": "uint256",
          "name": "amount",
          "type": "uint256"
        }
      ],
      "name": "burn",
      "outputs": [],
      "stateMutability": "nonpayable",
      "type": "function"
    },
    {
      "inputs": [
        {
          "internalType": "address",
          "name": "account",
          "type": "address"
        },
        {
          "internalType": "uint256",
          "name": "amount",
          "type": "uint256"
        }
      ],
      "name": "burnFrom",
      "outputs": [],
      "stateMutability": "nonpayable",
      "type": "function"
    },
    {
      "inputs": [],
      "name": "decimals",
      "outputs": [
        {
          "internalType": "uint8",
          "name": "",
          "type": "uint8"
        }
      ],
      "stateMutability": "view",
      "type": "function"
    },
    {
      "inputs": [],
      "name": "factory",
      "outputs": [
        {
          "internalType": "address",
          "name": "",
          "type": "address"
        }
      ],
      "stateMutability": "view",
      "type": "function"
    },
    {
      "inputs": [
        {
          "internalType": "address",
          "name": "account",
          "type": "address"
        },
        {
          "internalType": "uint256",
          "name": "amount",
          "type": "uint256"
        }
      ],
      "name": "mint",
      "outputs": [],
      "stateMutability": "nonpayable",
      "type": "function"
    },
    {
      "inputs": [],
      "name": "name",
      "outputs": [
        {
          "internalType": "string",
          "name": "",
          "type": "string"
        }
      ],
      "stateMutability": "view",
      "type": "function"
    },
    {
      "inputs": [
        {
          "internalType": "address",
          "name": "",
          "type": "address"
        }
      ],
      "name": "nonces",
      "outputs": [
        {
          "internalType": "uint256",
          "name": "",
          "type": "uint256"
        }
      ],
      "stateMutability": "view",
      "type": "function"
    },
    {
      "inputs": [
        {
          "internalType": "address",
          "name": "owner",
          "type": "address"
        },
        {
          "internalType": "address",
          "name": "spender",
          "type": "address"
        },
        {
          "internalType": "uint256",
          "name": "value",
          "type": "uint256"
        },
        {
          "internalType": "uint256",
          "name": "deadline",
          "type": "uint256"
        },
        {
          "internalType": "uint8",
          "name": "v",
          "type": "uint8"
        },
        {
          "internalType": "bytes32",
          "name": "r",
          "type": "bytes32"
        },
        {
          "internalType": "bytes32",
          "name": "s",
          "type": "bytes32"
        }
      ],
      "name": "permit",
      "outputs": [],
      "stateMutability": "nonpayable",
      "type": "function"
    },
    {
      "inputs": [],
      "name": "symbol",
      "outputs": [
        {
          "internalType": "string",
          "name": "",
          "type": "string"
        }
      ],
      "stateMutability": "view",
      "type": "function"
    },
    {
      "inputs": [],
      "name": "token",
      "outputs": [
        {
          "internalType": "address",
          "name": "",
          "type": "address"
        }
      ],
      "stateMutability": "view",
      "type": "function"
    },
    {
      "inputs": [],
      "name": "totalSupply",
      "outputs": [
        {
          "internalType": "uint256",
          "name": "",
          "type": "uint256"
        }
      ],
      "stateMutability": "view",
      "type": "function"
    },
    {
      "inputs": [
        {
          "internalType": "address",
          "name": "to",
          "type": "address"
        },
        {
          "internalType": "uint256",
          "name": "value",
          "type": "uint256"
        }
      ],
      "name": "transfer",
      "outputs": [
        {
          "internalType": "bool",
          "name": "",
          "type": "bool"
        }
      ],
      "stateMutability": "nonpayable",
      "type": "function"
    },
    {
      "inputs": [
        {
          "internalType": "address",
          "name": "from",
          "type": "address"
        },
        {
          "internalType": "address",
          "name": "to",
          "type": "address"
        },
        {
          "internalType": "uint256",
          "name": "value",
          "type": "uint256"
        }
      ],
      "name": "transferFrom",
      "outputs": [
        {
          "internalType": "bool",
          "name": "",
          "type": "bool"
        }
      ],
      "stateMutability": "nonpayable",
      "type": "function"
    },
    {
      "inputs": [
        {
          "internalType": "uint256",
          "name": "amount",
          "type": "uint256"
        }
      ],
      "name": "unwrap",
      "outputs": [
        {
          "internalType": "uint256",
          "name": "",
          "type": "uint256"
        }
      ],
      "stateMutability": "nonpayable",
      "type": "function"
    },
    {
      "inputs": [
        {
          "internalType": "uint256",
          "name": "amount",
          "type": "uint256"
        },
        {
          "internalType": "address",
          "name": "to",
          "type": "address"
        }
      ],
      "name": "unwrapTo",
      "outputs": [
        {
          "internalType": "uint256",
          "name": "",
          "type": "uint256"
        }
      ],
      "stateMutability": "nonpayable",
      "type": "function"
    },
    {
      "inputs": [
        {
          "internalType": "uint256",
          "name": "amount",
          "type": "uint256"
        }
      ],
      "name": "wrap",
      "outputs": [
        {
          "internalType": "uint256",
          "name": "",
          "type": "uint256"
        }
      ],
      "stateMutability": "nonpayable",
      "type": "function"
    },
    {
      "inputs": [
        {
          "internalType": "uint256",
          "name": "amount",
          "type": "uint256"
        },
        {
          "internalType": "address",
          "name": "to",
          "type": "address"
        }
      ],
      "name": "wrapTo",
      "outputs": [
        {
          "internalType": "uint256",
          "name": "",
          "type": "uint256"
        }
      ],
      "stateMutability": "nonpayable",
      "type": "function"
    }
  ],
  "bytecode": "0x60806040523480156200001157600080fd5b5060405146908060526200217c823960520190506040518091039020600060405180828054600181600116156101000203166002900480156200008e5780601f106200006b5761010080835404028352918201916200008e565b820191906000526020600020905b81548152906001019060200180831162000079575b505060408051918290038220828201825260018352603160f81b602093840152815180840196909652858201527fc89efdaa54c0f20c7adf612882df0950f5a951637e0307cdcb4c672f298b8bc66060860152608085018690523060a0808701919091528151808703909101815260c08601808352815191840191909120600555600780546001600160a01b0319163390811790915563ad4d4e2960e01b9091529051909463ad4d4e29945060c4808201945090829003018186803b1580156200015757600080fd5b505afa1580156200016c573d6000803e3d6000fd5b505050506040513d60208110156200018357600080fd5b5051600880546001600160a01b0319166001600160a01b039283161790819055604080516306fdde0360e01b8152905191909216916306fdde03916004808301926000929190829003018186803b158015620001de57600080fd5b505afa158015620001f3573d6000803e3d6000fd5b505050506040513d6000823e601f3d908101601f1916820160405260208110156200021d57600080fd5b81019080805160405193929190846401000000008211156200023e57600080fd5b9083019060208201858111156200025457600080fd5b82516401000000008111828201881017156200026f57600080fd5b82525081516020918201929091019080838360005b838110156200029e57818101518382015260200162000284565b50505050905090810190601f168015620002cc5780820380516001836020036101000a031916815260200191505b5060405250508151620002e79260009250602001906200058a565b50600060405160200180806b02332bb902bb930b83832b2160a51b815250600c0182805460018160011615610100020316600290048015620003635780601f106200034057610100808354040283529182019162000363565b820191906000526020600020905b8154815290600101906020018083116200034e575b505060408051601f1981840301815291905280516200038d9350600092506020909101906200058a565b50600860009054906101000a90046001600160a01b03166001600160a01b03166395d89b416040518163ffffffff1660e01b815260040160006040518083038186803b158015620003dd57600080fd5b505afa158015620003f2573d6000803e3d6000fd5b505050506040513d6000823e601f3d908101601f1916820160405260208110156200041c57600080fd5b81019080805160405193929190846401000000008211156200043d57600080fd5b9083019060208201858111156200045357600080fd5b82516401000000008111828201881017156200046e57600080fd5b82525081516020918201929091019080838360005b838110156200049d57818101518382015260200162000483565b50505050905090810190601f168015620004cb5780820380516001836020036101000a031916815260200191505b5060405250508151620004e69260019250602001906200058a565b506001604051602001808061667760f01b81525060020182805460018160011615610100020316600290048015620005585780601f106200053557610100808354040283529182019162000558565b820191906000526020600020905b81548152906001019060200180831162000543575b505060408051601f198184030181529190528051620005829350600192506020909101906200058a565b50506200062f565b828054600181600116156101000203166002900490600052602060002090601f016020900481019282601f10620005cd57805160ff1916838001178555620005fd565b82800160010185558215620005fd579182015b82811115620005fd578251825591602001919060010190620005e0565b506200060b9291506200060f565b5090565b6200062c91905b808211156200060b576000815560010162000616565b90565b611b3d806200063f6000396000f3fe608060405234801561001057600080fd5b50600436106101825760003560e01c806370a08231116100d8578063c45a01551161008c578063de0e9a3e11610066578063de0e9a3e14610550578063ea598cb01461056d578063fc0c546a1461058a57610182565b8063c45a015514610486578063d505accf146104b7578063dd62ed3e1461051557610182565b80637ecebe00116100bd5780637ecebe001461041257806395d89b4114610445578063a9059cbb1461044d57610182565b806370a08231146103a657806379cc6790146103d957610182565b806330adf81f1161013a57806340c10f191161011457806340c10f191461031557806342966c68146103505780635dbd60591461036d57610182565b806330adf81f146102e7578063313ce567146102ef5780633644e5151461030d57610182565b806318160ddd1161016b57806318160ddd1461025157806323b872dd1461026b57806326599850146102ae57610182565b806306fdde0314610187578063095ea7b314610204575b600080fd5b61018f610592565b6040805160208082528351818301528351919283929083019185019080838360005b838110156101c95781810151838201526020016101b1565b50505050905090810190601f1680156101f65780820380516001836020036101000a031916815260200191505b509250505060405180910390f35b61023d6004803603604081101561021a57600080fd5b5073ffffffffffffffffffffffffffffffffffffffff813516906020013561063e565b604080519115158252519081900360200190f35b610259610655565b60408051918252519081900360200190f35b61023d6004803603606081101561028157600080fd5b5073ffffffffffffffffffffffffffffffffffffffff81358116916020810135909116906040013561065b565b610259600480360360408110156102c457600080fd5b508035906020013573ffffffffffffffffffffffffffffffffffffffff1661073a565b61025961082d565b6102f7610851565b6040805160ff9092168252519081900360200190f35b610259610856565b61034e6004803603604081101561032b57600080fd5b5073ffffffffffffffffffffffffffffffffffffffff813516906020013561085c565b005b61034e6004803603602081101561036657600080fd5b5035610b50565b6102596004803603604081101561038357600080fd5b508035906020013573ffffffffffffffffffffffffffffffffffffffff16610b94565b610259600480360360208110156103bc57600080fd5b503573ffffffffffffffffffffffffffffffffffffffff16610c70565b61034e600480360360408110156103ef57600080fd5b5073ffffffffffffffffffffffffffffffffffffffff8135169060200135610c82565b6102596004803603602081101561042857600080fd5b503573ffffffffffffffffffffffffffffffffffffffff16610f76565b61018f610f88565b61023d6004803603604081101561046357600080fd5b5073ffffffffffffffffffffffffffffffffffffffff8135169060200135611000565b61048e61100d565b6040805173ffffffffffffffffffffffffffffffffffffffff9092168252519081900360200190f35b61034e600480360360e08110156104cd57600080fd5b5073ffffffffffffffffffffffffffffffffffffffff813581169160208101359091169060408101359060608101359060ff6080820135169060a08101359060c00135611029565b6102596004803603604081101561052b57600080fd5b5073ffffffffffffffffffffffffffffffffffffffff813581169160200135166112f5565b6102596004803603602081101561056657600080fd5b5035611312565b6102596004803603602081101561058357600080fd5b503561131e565b61048e61132a565b6000805460408051602060026001851615610100027fffffffffffffffffffffffffffffffffffffffffffffffffffffffffffffffff0190941693909304601f810184900484028201840190925281815292918301828280156106365780601f1061060b57610100808354040283529160200191610636565b820191906000526020600020905b81548152906001019060200180831161061957829003601f168201915b505050505081565b600061064b338484611346565b5060015b92915050565b60025481565b73ffffffffffffffffffffffffffffffffffffffff831660009081526004602090815260408083203384529091528120547fffffffffffffffffffffffffffffffffffffffffffffffffffffffffffffffff146107255773ffffffffffffffffffffffffffffffffffffffff841660009081526004602090815260408083203384529091529020546106f3908363ffffffff6113b516565b73ffffffffffffffffffffffffffffffffffffffff851660009081526004602090815260408083203384529091529020555b610730848484611427565b5060019392505050565b60008083116107aa57604080517f08c379a000000000000000000000000000000000000000000000000000000000815260206004820152601a60248201527f4665773a2063616e27742077726170207a65726f20746f6b656e000000000000604482015290519081900360640190fd5b6008546107cf9073ffffffffffffffffffffffffffffffffffffffff16333086611508565b6107d982846116d8565b60408051848152905173ffffffffffffffffffffffffffffffffffffffff84169133917feb5580a0908e96b78bdcb1a3c5638793b491a6073c3ff56061a069cb205817739181900360200190a35090919050565b7f6e71edae12b1b97f4d1f60370fef10105fa2faae0126114a169c64845d6126c981565b601281565b60055481565b600760009054906101000a900473ffffffffffffffffffffffffffffffffffffffff1673ffffffffffffffffffffffffffffffffffffffff1663f2f4eb266040518163ffffffff1660e01b815260040160206040518083038186803b1580156108c457600080fd5b505afa1580156108d8573d6000803e3d6000fd5b505050506040513d60208110156108ee57600080fd5b5051604080517faa271e1a000000000000000000000000000000000000000000000000000000008152336004820152905173ffffffffffffffffffffffffffffffffffffffff9092169163aa271e1a91602480820192602092909190829003018186803b15801561095e57600080fd5b505afa158015610972573d6000803e3d6000fd5b505050506040513d602081101561098857600080fd5b50516109f557604080517f08c379a000000000000000000000000000000000000000000000000000000000815260206004820152601f60248201527f436f72655265663a2043616c6c6572206973206e6f742061206d696e74657200604482015290519081900360640190fd5b600760009054906101000a900473ffffffffffffffffffffffffffffffffffffffff1673ffffffffffffffffffffffffffffffffffffffff16635c975abb6040518163ffffffff1660e01b815260040160206040518083038186803b158015610a5d57600080fd5b505afa158015610a71573d6000803e3d6000fd5b505050506040513d6020811015610a8757600080fd5b505115610af557604080517f08c379a000000000000000000000000000000000000000000000000000000000815260206004820152601960248201527f436f72655265663a2043616c6c65722069732070617573656400000000000000604482015290519081900360640190fd5b610aff82826116d8565b60408051828152905173ffffffffffffffffffffffffffffffffffffffff84169133917fbcad3d7d3dfccb90d49c6063bf70f828901fefc88937d90af74e58e6e55bc39d9181900360200190a35050565b610b5a3382611789565b604080518281529051339182917fdbdf9b8e4b75e75b162d151ec8fc7f0561cabab5fcccfa2600be62223e4300c49181900360200190a350565b6000808311610bee576040517f08c379a0000000000000000000000000000000000000000000000000000000008152600401808060200182810382526023815260200180611ab86023913960400191505060405180910390fd5b610bf83384611789565b600854610c1c9073ffffffffffffffffffffffffffffffffffffffff16838561184d565b60408051848152905173ffffffffffffffffffffffffffffffffffffffff84169133917f12d6424519838e57637c6db9df31af32d7926ff0a53dd37007c191d0fe3028189181900360200190a35090919050565b60036020526000908152604090205481565b600760009054906101000a900473ffffffffffffffffffffffffffffffffffffffff1673ffffffffffffffffffffffffffffffffffffffff1663f2f4eb266040518163ffffffff1660e01b815260040160206040518083038186803b158015610cea57600080fd5b505afa158015610cfe573d6000803e3d6000fd5b505050506040513d6020811015610d1457600080fd5b5051604080517f4334614a000000000000000000000000000000000000000000000000000000008152336004820152905173ffffffffffffffffffffffffffffffffffffffff90921691634334614a91602480820192602092909190829003018186803b158015610d8457600080fd5b505afa158015610d98573d6000803e3d6000fd5b505050506040513d6020811015610dae57600080fd5b5051610e1b57604080517f08c379a000000000000000000000000000000000000000000000000000000000815260206004820152601f60248201527f436f72655265663a2043616c6c6572206973206e6f742061206275726e657200604482015290519081900360640190fd5b600760009054906101000a900473ffffffffffffffffffffffffffffffffffffffff1673ffffffffffffffffffffffffffffffffffffffff16635c975abb6040518163ffffffff1660e01b815260040160206040518083038186803b158015610e8357600080fd5b505afa158015610e97573d6000803e3d6000fd5b505050506040513d6020811015610ead57600080fd5b505115610f1b57604080517f08c379a000000000000000000000000000000000000000000000000000000000815260206004820152601960248201527f436f72655265663a2043616c6c65722069732070617573656400000000000000604482015290519081900360640190fd5b610f258282611789565b60408051828152905173ffffffffffffffffffffffffffffffffffffffff84169133917fdbdf9b8e4b75e75b162d151ec8fc7f0561cabab5fcccfa2600be62223e4300c49181900360200190a35050565b60066020526000908152604090205481565b60018054604080516020600284861615610100027fffffffffffffffffffffffffffffffffffffffffffffffffffffffffffffffff0190941693909304601f810184900484028201840190925281815292918301828280156106365780601f1061060b57610100808354040283529160200191610636565b600061064b338484611427565b60075473ffffffffffffffffffffffffffffffffffffffff1681565b4284101561109857604080517f08c379a000000000000000000000000000000000000000000000000000000000815260206004820152600c60248201527f4665773a20455850495245440000000000000000000000000000000000000000604482015290519081900360640190fd5b60055473ffffffffffffffffffffffffffffffffffffffff80891660008181526006602090815260408083208054600180820190925582517f6e71edae12b1b97f4d1f60370fef10105fa2faae0126114a169c64845d6126c98186015280840196909652958d166060860152608085018c905260a085019590955260c08085018b90528151808603909101815260e0850182528051908301207f19010000000000000000000000000000000000000000000000000000000000006101008601526101028501969096526101228085019690965280518085039096018652610142840180825286519683019690962095839052610162840180825286905260ff89166101828501526101a284018890526101c28401879052519193926101e2808201937fffffffffffffffffffffffffffffffffffffffffffffffffffffffffffffffe081019281900390910190855afa1580156111f9573d6000803e3d6000fd5b50506040517fffffffffffffffffffffffffffffffffffffffffffffffffffffffffffffffe0015191505073ffffffffffffffffffffffffffffffffffffffff81161580159061127457508873ffffffffffffffffffffffffffffffffffffffff168173ffffffffffffffffffffffffffffffffffffffff16145b6112df57604080517f08c379a000000000000000000000000000000000000000000000000000000000815260206004820152601660248201527f4665773a20494e56414c49445f5349474e415455524500000000000000000000604482015290519081900360640190fd5b6112ea898989611346565b505050505050505050565b600460209081526000928352604080842090915290825290205481565b600061064f8233610b94565b600061064f823361073a565b60085473ffffffffffffffffffffffffffffffffffffffff1681565b73ffffffffffffffffffffffffffffffffffffffff808416600081815260046020908152604080832094871680845294825291829020859055815185815291517f8c5be1e5ebec7d5bd14f71427d1e84f3dd0314c0f7b2291e5b200ac8c7c3b9259281900390910190a3505050565b8082038281111561064f57604080517f08c379a000000000000000000000000000000000000000000000000000000000815260206004820152601560248201527f64732d6d6174682d7375622d756e646572666c6f770000000000000000000000604482015290519081900360640190fd5b73ffffffffffffffffffffffffffffffffffffffff831660009081526003602052604090205461145d908263ffffffff6113b516565b73ffffffffffffffffffffffffffffffffffffffff808516600090815260036020526040808220939093559084168152205461149f908263ffffffff611a1416565b73ffffffffffffffffffffffffffffffffffffffff80841660008181526003602090815260409182902094909455805185815290519193928716927fddf252ad1be2c89b69c2b068fc378daa952ba7f163c4a11628f55a4df523b3ef92918290030190a3505050565b6040805173ffffffffffffffffffffffffffffffffffffffff85811660248301528481166044830152606480830185905283518084039091018152608490920183526020820180517bffffffffffffffffffffffffffffffffffffffffffffffffffffffff167f23b872dd0000000000000000000000000000000000000000000000000000000017815292518251600094606094938a169392918291908083835b602083106115e657805182527fffffffffffffffffffffffffffffffffffffffffffffffffffffffffffffffe090920191602091820191016115a9565b6001836020036101000a0380198251168184511680821785525050505050509050019150506000604051808303816000865af19150503d8060008114611648576040519150601f19603f3d011682016040523d82523d6000602084013e61164d565b606091505b509150915081801561167b57508051158061167b575080806020019051602081101561167857600080fd5b50515b6116d0576040517f08c379a0000000000000000000000000000000000000000000000000000000008152600401808060200182810382526031815260200180611a876031913960400191505060405180910390fd5b505050505050565b6002546116eb908263ffffffff611a1416565b60025573ffffffffffffffffffffffffffffffffffffffff8216600090815260036020526040902054611724908263ffffffff611a1416565b73ffffffffffffffffffffffffffffffffffffffff831660008181526003602090815260408083209490945583518581529351929391927fddf252ad1be2c89b69c2b068fc378daa952ba7f163c4a11628f55a4df523b3ef9281900390910190a35050565b73ffffffffffffffffffffffffffffffffffffffff82166000908152600360205260409020546117bf908263ffffffff6113b516565b73ffffffffffffffffffffffffffffffffffffffff83166000908152600360205260409020556002546117f8908263ffffffff6113b516565b60025560408051828152905160009173ffffffffffffffffffffffffffffffffffffffff8516917fddf252ad1be2c89b69c2b068fc378daa952ba7f163c4a11628f55a4df523b3ef9181900360200190a35050565b6040805173ffffffffffffffffffffffffffffffffffffffff8481166024830152604480830185905283518084039091018152606490920183526020820180517bffffffffffffffffffffffffffffffffffffffffffffffffffffffff167fa9059cbb00000000000000000000000000000000000000000000000000000000178152925182516000946060949389169392918291908083835b6020831061192357805182527fffffffffffffffffffffffffffffffffffffffffffffffffffffffffffffffe090920191602091820191016118e6565b6001836020036101000a0380198251168184511680821785525050505050509050019150506000604051808303816000865af19150503d8060008114611985576040519150601f19603f3d011682016040523d82523d6000602084013e61198a565b606091505b50915091508180156119b85750805115806119b857508080602001905160208110156119b557600080fd5b50515b611a0d576040517f08c379a000000000000000000000000000000000000000000000000000000000815260040180806020018281038252602d815260200180611adb602d913960400191505060405180910390fd5b5050505050565b8082018281101561064f57604080517f08c379a000000000000000000000000000000000000000000000000000000000815260206004820152601460248201527f64732d6d6174682d6164642d6f766572666c6f77000000000000000000000000604482015290519081900360640190fdfe5472616e7366657248656c7065723a3a7472616e7366657246726f6d3a207472616e7366657246726f6d206661696c65644665773a207a65726f20616d6f756e7420756e77726170206e6f7420616c6c6f7765645472616e7366657248656c7065723a3a736166655472616e736665723a207472616e73666572206661696c6564a2646970667358221220fb4d68ddfdf6276ca4a2c32195454555ebea54885be43587198200c3a63be11964736f6c63430006060033454950373132446f6d61696e28737472696e67206e616d652c737472696e672076657273696f6e2c75696e7432353620636861696e49642c6164647265737320766572696679696e67436f6e747261637429",
  "linkReferences": {},
  "deployedLinkReferences": {}
}