{
  "_format": "hh-sol-artifact-1",
  "contractName": "SecondaryIssuePool",
  "sourceName": "contracts/SecondaryIssuePool.sol",
  "abi": [
    {
      "inputs": [
        {
          "internalType": "contract IVault",
          "name": "vault",
          "type": "address"
        },
        {
          "internalType": "string",
          "name": "name",
          "type": "string"
        },
        {
          "internalType": "string",
          "name": "symbol",
          "type": "string"
        },
        {
          "internalType": "address",
          "name": "security",
          "type": "address"
        },
        {
          "internalType": "address",
          "name": "currency",
          "type": "address"
        },
        {
          "internalType": "uint256",
          "name": "minOrderSize",
          "type": "uint256"
        },
        {
          "internalType": "uint256",
          "name": "tradeFeePercentage",
          "type": "uint256"
        },
        {
          "internalType": "uint256",
          "name": "pauseWindowDuration",
          "type": "uint256"
        },
        {
          "internalType": "uint256",
          "name": "bufferPeriodDuration",
          "type": "uint256"
        },
        {
          "internalType": "address",
          "name": "owner",
          "type": "address"
        }
      ],
      "stateMutability": "nonpayable",
      "type": "constructor"
    },
    {
      "anonymous": false,
      "inputs": [
        {
          "indexed": true,
          "internalType": "address",
          "name": "owner",
          "type": "address"
        },
        {
          "indexed": true,
          "internalType": "address",
          "name": "spender",
          "type": "address"
        },
        {
          "indexed": false,
          "internalType": "uint256",
          "name": "value",
          "type": "uint256"
        }
      ],
      "name": "Approval",
      "type": "event"
    },
    {
      "anonymous": false,
      "inputs": [
        {
          "indexed": true,
          "internalType": "address",
          "name": "security",
          "type": "address"
        },
        {
          "indexed": false,
          "internalType": "uint256",
          "name": "minOrderSize",
          "type": "uint256"
        },
        {
          "indexed": false,
          "internalType": "address",
          "name": "currency",
          "type": "address"
        },
        {
          "indexed": false,
          "internalType": "address",
          "name": "orderBook",
          "type": "address"
        },
        {
          "indexed": false,
          "internalType": "address",
          "name": "issueManager",
          "type": "address"
        }
      ],
      "name": "Offer",
      "type": "event"
    },
    {
      "anonymous": false,
      "inputs": [
        {
          "indexed": false,
          "internalType": "address",
          "name": "creator",
          "type": "address"
        },
        {
          "indexed": false,
          "internalType": "address",
          "name": "tokenIn",
          "type": "address"
        },
        {
          "indexed": false,
          "internalType": "address",
          "name": "tokenOut",
          "type": "address"
        },
        {
          "indexed": false,
          "internalType": "uint256",
          "name": "amountOffered",
          "type": "uint256"
        },
        {
          "indexed": false,
          "internalType": "uint256",
          "name": "priceOffered",
          "type": "uint256"
        },
        {
          "indexed": false,
          "internalType": "uint256",
          "name": "timestamp",
          "type": "uint256"
        },
        {
          "indexed": false,
          "internalType": "bytes32",
          "name": "orderRef",
          "type": "bytes32"
        }
      ],
      "name": "OrderBook",
      "type": "event"
    },
    {
      "anonymous": false,
      "inputs": [
        {
          "indexed": false,
          "internalType": "bool",
          "name": "paused",
          "type": "bool"
        }
      ],
      "name": "PausedStateChanged",
      "type": "event"
    },
    {
      "anonymous": false,
      "inputs": [
        {
          "indexed": false,
          "internalType": "bool",
          "name": "enabled",
          "type": "bool"
        }
      ],
      "name": "RecoveryModeStateChanged",
      "type": "event"
    },
    {
      "anonymous": false,
      "inputs": [
        {
          "indexed": false,
          "internalType": "uint256",
          "name": "swapFeePercentage",
          "type": "uint256"
        }
      ],
      "name": "SwapFeePercentageChanged",
      "type": "event"
    },
    {
      "anonymous": false,
      "inputs": [
        {
          "indexed": true,
          "internalType": "address",
          "name": "security",
          "type": "address"
        },
        {
          "indexed": false,
          "internalType": "bytes32",
          "name": "orderRef",
          "type": "bytes32"
        },
        {
          "indexed": false,
          "internalType": "address",
          "name": "party",
          "type": "address"
        },
        {
          "indexed": false,
          "internalType": "address",
          "name": "counterparty",
          "type": "address"
        },
        {
          "indexed": false,
          "internalType": "bytes32",
          "name": "orderType",
          "type": "bytes32"
        },
        {
          "indexed": false,
          "internalType": "uint256",
          "name": "price",
          "type": "uint256"
        },
        {
          "indexed": false,
          "internalType": "address",
          "name": "currency",
          "type": "address"
        },
        {
          "indexed": false,
          "internalType": "uint256",
          "name": "amount",
          "type": "uint256"
        },
        {
          "indexed": false,
          "internalType": "uint256",
          "name": "executionDate",
          "type": "uint256"
        }
      ],
      "name": "TradeReport",
      "type": "event"
    },
    {
      "anonymous": false,
      "inputs": [
        {
          "indexed": true,
          "internalType": "address",
          "name": "from",
          "type": "address"
        },
        {
          "indexed": true,
          "internalType": "address",
          "name": "to",
          "type": "address"
        },
        {
          "indexed": false,
          "internalType": "uint256",
          "name": "value",
          "type": "uint256"
        }
      ],
      "name": "Transfer",
      "type": "event"
    },
    {
      "inputs": [],
      "name": "DOMAIN_SEPARATOR",
      "outputs": [
        {
          "internalType": "bytes32",
          "name": "",
          "type": "bytes32"
        }
      ],
      "stateMutability": "view",
      "type": "function"
    },
    {
      "inputs": [],
      "name": "_orderbook",
      "outputs": [
        {
          "internalType": "contract Orderbook",
          "name": "",
          "type": "address"
        }
      ],
      "stateMutability": "view",
      "type": "function"
    },
    {
      "inputs": [
        {
          "internalType": "address",
          "name": "owner",
          "type": "address"
        },
        {
          "internalType": "address",
          "name": "spender",
          "type": "address"
        }
      ],
      "name": "allowance",
      "outputs": [
        {
          "internalType": "uint256",
          "name": "",
          "type": "uint256"
        }
      ],
      "stateMutability": "view",
      "type": "function"
    },
    {
      "inputs": [
        {
          "internalType": "address",
          "name": "spender",
          "type": "address"
        },
        {
          "internalType": "uint256",
          "name": "amount",
          "type": "uint256"
        }
      ],
      "name": "approve",
      "outputs": [
        {
          "internalType": "bool",
          "name": "",
          "type": "bool"
        }
      ],
      "stateMutability": "nonpayable",
      "type": "function"
    },
    {
      "inputs": [
        {
          "internalType": "address",
          "name": "account",
          "type": "address"
        }
      ],
      "name": "balanceOf",
      "outputs": [
        {
          "internalType": "uint256",
          "name": "",
          "type": "uint256"
        }
      ],
      "stateMutability": "view",
      "type": "function"
    },
    {
      "inputs": [],
      "name": "decimals",
      "outputs": [
        {
          "internalType": "uint8",
          "name": "",
          "type": "uint8"
        }
      ],
      "stateMutability": "view",
      "type": "function"
    },
    {
      "inputs": [
        {
          "internalType": "address",
          "name": "spender",
          "type": "address"
        },
        {
          "internalType": "uint256",
          "name": "amount",
          "type": "uint256"
        }
      ],
      "name": "decreaseAllowance",
      "outputs": [
        {
          "internalType": "bool",
          "name": "",
          "type": "bool"
        }
      ],
      "stateMutability": "nonpayable",
      "type": "function"
    },
    {
      "inputs": [],
      "name": "disableRecoveryMode",
      "outputs": [],
      "stateMutability": "nonpayable",
      "type": "function"
    },
    {
      "inputs": [],
      "name": "enableRecoveryMode",
      "outputs": [],
      "stateMutability": "nonpayable",
      "type": "function"
    },
    {
      "inputs": [
        {
          "internalType": "bytes4",
          "name": "selector",
          "type": "bytes4"
        }
      ],
      "name": "getActionId",
      "outputs": [
        {
          "internalType": "bytes32",
          "name": "",
          "type": "bytes32"
        }
      ],
      "stateMutability": "view",
      "type": "function"
    },
    {
      "inputs": [],
      "name": "getAuthorizer",
      "outputs": [
        {
          "internalType": "contract IAuthorizer",
          "name": "",
          "type": "address"
        }
      ],
      "stateMutability": "view",
      "type": "function"
    },
    {
      "inputs": [],
      "name": "getCurrency",
      "outputs": [
        {
          "internalType": "address",
          "name": "",
          "type": "address"
        }
      ],
      "stateMutability": "view",
      "type": "function"
    },
    {
      "inputs": [],
      "name": "getDomainSeparator",
      "outputs": [
        {
          "internalType": "bytes32",
          "name": "",
          "type": "bytes32"
        }
      ],
      "stateMutability": "view",
      "type": "function"
    },
    {
      "inputs": [],
      "name": "getMinOrderSize",
      "outputs": [
        {
          "internalType": "uint256",
          "name": "",
          "type": "uint256"
        }
      ],
      "stateMutability": "view",
      "type": "function"
    },
    {
      "inputs": [
        {
          "internalType": "address",
          "name": "account",
          "type": "address"
        }
      ],
      "name": "getNextNonce",
      "outputs": [
        {
          "internalType": "uint256",
          "name": "",
          "type": "uint256"
        }
      ],
      "stateMutability": "view",
      "type": "function"
    },
    {
      "inputs": [],
      "name": "getOwner",
      "outputs": [
        {
          "internalType": "address",
          "name": "",
          "type": "address"
        }
      ],
      "stateMutability": "view",
      "type": "function"
    },
    {
      "inputs": [],
      "name": "getPausedState",
      "outputs": [
        {
          "internalType": "bool",
          "name": "paused",
          "type": "bool"
        },
        {
          "internalType": "uint256",
          "name": "pauseWindowEndTime",
          "type": "uint256"
        },
        {
          "internalType": "uint256",
          "name": "bufferPeriodEndTime",
          "type": "uint256"
        }
      ],
      "stateMutability": "view",
      "type": "function"
    },
    {
      "inputs": [],
      "name": "getPoolId",
      "outputs": [
        {
          "internalType": "bytes32",
          "name": "",
          "type": "bytes32"
        }
      ],
      "stateMutability": "view",
      "type": "function"
    },
    {
      "inputs": [],
      "name": "getProtocolFeesCollector",
      "outputs": [
        {
          "internalType": "contract IProtocolFeesCollector",
          "name": "",
          "type": "address"
        }
      ],
      "stateMutability": "view",
      "type": "function"
    },
    {
      "inputs": [],
      "name": "getScalingFactors",
      "outputs": [
        {
          "internalType": "uint256[]",
          "name": "",
          "type": "uint256[]"
        }
      ],
      "stateMutability": "view",
      "type": "function"
    },
    {
      "inputs": [],
      "name": "getSecurity",
      "outputs": [
        {
          "internalType": "address",
          "name": "",
          "type": "address"
        }
      ],
      "stateMutability": "view",
      "type": "function"
    },
    {
      "inputs": [],
      "name": "getSwapFeePercentage",
      "outputs": [
        {
          "internalType": "uint256",
          "name": "",
          "type": "uint256"
        }
      ],
      "stateMutability": "view",
      "type": "function"
    },
    {
      "inputs": [],
      "name": "getVault",
      "outputs": [
        {
          "internalType": "contract IVault",
          "name": "",
          "type": "address"
        }
      ],
      "stateMutability": "view",
      "type": "function"
    },
    {
      "inputs": [],
      "name": "inRecoveryMode",
      "outputs": [
        {
          "internalType": "bool",
          "name": "",
          "type": "bool"
        }
      ],
      "stateMutability": "view",
      "type": "function"
    },
    {
      "inputs": [
        {
          "internalType": "address",
          "name": "spender",
          "type": "address"
        },
        {
          "internalType": "uint256",
          "name": "addedValue",
          "type": "uint256"
        }
      ],
      "name": "increaseAllowance",
      "outputs": [
        {
          "internalType": "bool",
          "name": "",
          "type": "bool"
        }
      ],
      "stateMutability": "nonpayable",
      "type": "function"
    },
    {
      "inputs": [],
      "name": "name",
      "outputs": [
        {
          "internalType": "string",
          "name": "",
          "type": "string"
        }
      ],
      "stateMutability": "view",
      "type": "function"
    },
    {
      "inputs": [
        {
          "internalType": "address",
          "name": "owner",
          "type": "address"
        }
      ],
      "name": "nonces",
      "outputs": [
        {
          "internalType": "uint256",
          "name": "",
          "type": "uint256"
        }
      ],
      "stateMutability": "view",
      "type": "function"
    },
    {
      "inputs": [
        {
          "internalType": "bytes32",
          "name": "poolId",
          "type": "bytes32"
        },
        {
          "internalType": "address",
          "name": "sender",
          "type": "address"
        },
        {
          "internalType": "address",
          "name": "recipient",
          "type": "address"
        },
        {
          "internalType": "uint256[]",
          "name": "balances",
          "type": "uint256[]"
        },
        {
          "internalType": "uint256",
          "name": "lastChangeBlock",
          "type": "uint256"
        },
        {
          "internalType": "uint256",
          "name": "protocolSwapFeePercentage",
          "type": "uint256"
        },
        {
          "internalType": "bytes",
          "name": "userData",
          "type": "bytes"
        }
      ],
      "name": "onExitPool",
      "outputs": [
        {
          "internalType": "uint256[]",
          "name": "",
          "type": "uint256[]"
        },
        {
          "internalType": "uint256[]",
          "name": "",
          "type": "uint256[]"
        }
      ],
      "stateMutability": "nonpayable",
      "type": "function"
    },
    {
      "inputs": [
        {
          "internalType": "bytes32",
          "name": "poolId",
          "type": "bytes32"
        },
        {
          "internalType": "address",
          "name": "sender",
          "type": "address"
        },
        {
          "internalType": "address",
          "name": "recipient",
          "type": "address"
        },
        {
          "internalType": "uint256[]",
          "name": "balances",
          "type": "uint256[]"
        },
        {
          "internalType": "uint256",
          "name": "lastChangeBlock",
          "type": "uint256"
        },
        {
          "internalType": "uint256",
          "name": "protocolSwapFeePercentage",
          "type": "uint256"
        },
        {
          "internalType": "bytes",
          "name": "userData",
          "type": "bytes"
        }
      ],
      "name": "onJoinPool",
      "outputs": [
        {
          "internalType": "uint256[]",
          "name": "",
          "type": "uint256[]"
        },
        {
          "internalType": "uint256[]",
          "name": "",
          "type": "uint256[]"
        }
      ],
      "stateMutability": "nonpayable",
      "type": "function"
    },
    {
      "inputs": [
        {
          "components": [
            {
              "internalType": "enum IVault.SwapKind",
              "name": "kind",
              "type": "uint8"
            },
            {
              "internalType": "contract IERC20",
              "name": "tokenIn",
              "type": "address"
            },
            {
              "internalType": "contract IERC20",
              "name": "tokenOut",
              "type": "address"
            },
            {
              "internalType": "uint256",
              "name": "amount",
              "type": "uint256"
            },
            {
              "internalType": "bytes32",
              "name": "poolId",
              "type": "bytes32"
            },
            {
              "internalType": "uint256",
              "name": "lastChangeBlock",
              "type": "uint256"
            },
            {
              "internalType": "address",
              "name": "from",
              "type": "address"
            },
            {
              "internalType": "address",
              "name": "to",
              "type": "address"
            },
            {
              "internalType": "bytes",
              "name": "userData",
              "type": "bytes"
            }
          ],
          "internalType": "struct IPoolSwapStructs.SwapRequest",
          "name": "request",
          "type": "tuple"
        },
        {
          "internalType": "uint256[]",
          "name": "balances",
          "type": "uint256[]"
        },
        {
          "internalType": "uint256",
          "name": "indexIn",
          "type": "uint256"
        },
        {
          "internalType": "uint256",
          "name": "indexOut",
          "type": "uint256"
        }
      ],
      "name": "onSwap",
      "outputs": [
        {
          "internalType": "uint256",
          "name": "",
          "type": "uint256"
        }
      ],
      "stateMutability": "nonpayable",
      "type": "function"
    },
    {
      "inputs": [],
      "name": "pause",
      "outputs": [],
      "stateMutability": "nonpayable",
      "type": "function"
    },
    {
      "inputs": [
        {
          "internalType": "address",
          "name": "owner",
          "type": "address"
        },
        {
          "internalType": "address",
          "name": "spender",
          "type": "address"
        },
        {
          "internalType": "uint256",
          "name": "value",
          "type": "uint256"
        },
        {
          "internalType": "uint256",
          "name": "deadline",
          "type": "uint256"
        },
        {
          "internalType": "uint8",
          "name": "v",
          "type": "uint8"
        },
        {
          "internalType": "bytes32",
          "name": "r",
          "type": "bytes32"
        },
        {
          "internalType": "bytes32",
          "name": "s",
          "type": "bytes32"
        }
      ],
      "name": "permit",
      "outputs": [],
      "stateMutability": "nonpayable",
      "type": "function"
    },
    {
      "inputs": [
        {
          "internalType": "bytes32",
          "name": "poolId",
          "type": "bytes32"
        },
        {
          "internalType": "address",
          "name": "sender",
          "type": "address"
        },
        {
          "internalType": "address",
          "name": "recipient",
          "type": "address"
        },
        {
          "internalType": "uint256[]",
          "name": "balances",
          "type": "uint256[]"
        },
        {
          "internalType": "uint256",
          "name": "lastChangeBlock",
          "type": "uint256"
        },
        {
          "internalType": "uint256",
          "name": "protocolSwapFeePercentage",
          "type": "uint256"
        },
        {
          "internalType": "bytes",
          "name": "userData",
          "type": "bytes"
        }
      ],
      "name": "queryExit",
      "outputs": [
        {
          "internalType": "uint256",
          "name": "bptIn",
          "type": "uint256"
        },
        {
          "internalType": "uint256[]",
          "name": "amountsOut",
          "type": "uint256[]"
        }
      ],
      "stateMutability": "view",
      "type": "function"
    },
    {
      "inputs": [
        {
          "internalType": "bytes32",
          "name": "poolId",
          "type": "bytes32"
        },
        {
          "internalType": "address",
          "name": "sender",
          "type": "address"
        },
        {
          "internalType": "address",
          "name": "recipient",
          "type": "address"
        },
        {
          "internalType": "uint256[]",
          "name": "balances",
          "type": "uint256[]"
        },
        {
          "internalType": "uint256",
          "name": "lastChangeBlock",
          "type": "uint256"
        },
        {
          "internalType": "uint256",
          "name": "protocolSwapFeePercentage",
          "type": "uint256"
        },
        {
          "internalType": "bytes",
          "name": "userData",
          "type": "bytes"
        }
      ],
      "name": "queryJoin",
      "outputs": [
        {
          "internalType": "uint256",
          "name": "bptOut",
          "type": "uint256"
        },
        {
          "internalType": "uint256[]",
          "name": "amountsIn",
          "type": "uint256[]"
        }
      ],
      "stateMutability": "view",
      "type": "function"
    },
    {
      "inputs": [
        {
          "internalType": "contract IERC20",
          "name": "token",
          "type": "address"
        },
        {
          "internalType": "bytes",
          "name": "poolConfig",
          "type": "bytes"
        }
      ],
      "name": "setAssetManagerPoolConfig",
      "outputs": [],
      "stateMutability": "nonpayable",
      "type": "function"
    },
    {
      "inputs": [
        {
          "internalType": "uint256",
          "name": "swapFeePercentage",
          "type": "uint256"
        }
      ],
      "name": "setSwapFeePercentage",
      "outputs": [],
      "stateMutability": "nonpayable",
      "type": "function"
    },
    {
      "inputs": [],
      "name": "symbol",
      "outputs": [
        {
          "internalType": "string",
          "name": "",
          "type": "string"
        }
      ],
      "stateMutability": "view",
      "type": "function"
    },
    {
      "inputs": [],
      "name": "totalSupply",
      "outputs": [
        {
          "internalType": "uint256",
          "name": "",
          "type": "uint256"
        }
      ],
      "stateMutability": "view",
      "type": "function"
    },
    {
      "inputs": [
        {
          "internalType": "address",
          "name": "recipient",
          "type": "address"
        },
        {
          "internalType": "uint256",
          "name": "amount",
          "type": "uint256"
        }
      ],
      "name": "transfer",
      "outputs": [
        {
          "internalType": "bool",
          "name": "",
          "type": "bool"
        }
      ],
      "stateMutability": "nonpayable",
      "type": "function"
    },
    {
      "inputs": [
        {
          "internalType": "address",
          "name": "sender",
          "type": "address"
        },
        {
          "internalType": "address",
          "name": "recipient",
          "type": "address"
        },
        {
          "internalType": "uint256",
          "name": "amount",
          "type": "uint256"
        }
      ],
      "name": "transferFrom",
      "outputs": [
        {
          "internalType": "bool",
          "name": "",
          "type": "bool"
        }
      ],
      "stateMutability": "nonpayable",
      "type": "function"
    },
    {
      "inputs": [],
      "name": "unpause",
      "outputs": [],
      "stateMutability": "nonpayable",
      "type": "function"
    }
  ],
  "bytecode": "0x6102e06040523480156200001257600080fd5b5060405162008e5b38038062008e5b833981016040819052620000359162000b88565b8960008a8a620000478b8b30620004d1565b6040805160038082526080820190925290602082016060803683370190505089898989828289898d85336001600160a01b031660001b8480604051806040016040528060018152602001603160f81b81525087878160039080519060200190620000b3929190620009f2565b508051620000c9906004906020840190620009f2565b50506005805460ff19166012179055508151602092830120608052805191012060a052507f8b73c3c69bb8fe3d512ecc4cf759cc79239f7b179b0ffacaa9a75d522b39400f60c05260e0526001600160601b0319606091821b81166101005291901b1661012052506200014790506276a700831115610194620005a0565b6200015b62278d00821115610195620005a0565b42909101610140819052016101605285516200017d906002111560c8620005a0565b620001976200018b620005b5565b8751111560c9620005a0565b620001ad86620005ba60201b620023981760201c565b620001b884620005c6565b6040516309b2760f60e01b81526000906001600160a01b038c16906309b2760f90620001e9908d9060040162000d51565b602060405180830381600087803b1580156200020457600080fd5b505af115801562000219573d6000803e3d6000fd5b505050506040513d601f19601f820116820180604052508101906200023f919062000b50565b604051633354e3e960e11b81529091506001600160a01b038c16906366a9c7d290620002749084908b908b9060040162000cb5565b600060405180830381600087803b1580156200028f57600080fd5b505af1158015620002a4573d6000803e3d6000fd5b505050508061018081815250508a6001600160a01b031663d2946c2b6040518163ffffffff1660e01b815260040160206040518083038186803b158015620002eb57600080fd5b505afa15801562000300573d6000803e3d6000fd5b505050506040513d601f19601f8201168201806040525081019062000326919062000b69565b6001600160a01b03166101a0816001600160a01b031660601b815250505050505050505050505050866001600160a01b03166101c0816001600160a01b031660601b81525050856001600160a01b03166101e0816001600160a01b031660601b8152505089600a60006101000a8154816001600160a01b0302191690836001600160a01b031602179055506000806000620003c98a8a306200065a60201b60201c565b6102608190526102808390526102a082905291945092509050620003ed8a62000750565b61020052620003fc8962000750565b610220526102408890526001600160601b0319606085901b166102c05260405184908b908b9030906200042f9062000a77565b6200043e949392919062000c8a565b604051809103906000f0801580156200045b573d6000803e3d6000fd5b50600980546001600160a01b0319166001600160a01b0392831617908190556040518c8316927f32e7b5e5c88bb4ec1dca71e1e00fc2444e236858d09faa9ddbb9d8c710549ecb92620004b6928d928f9216908a9062000d6f565b60405180910390a25050505050505050505050505062000db8565b606060008080620004e48787876200065a565b60408051600380825260808201909252939650919450925060208201606080368337019050509350868484815181106200051a57fe5b60200260200101906001600160a01b031690816001600160a01b031681525050858483815181106200054857fe5b60200260200101906001600160a01b031690816001600160a01b031681525050848482815181106200057657fe5b60200260200101906001600160a01b031690816001600160a01b0316815250505050509392505050565b81620005b157620005b18162000824565b5050565b600390565b80620005b18162000839565b620005df620005d4620008c5565b82101560cb620005a0565b620005f8620005ed620008ce565b82111560ca620005a0565b6200061a8160c0603f600854620008da60201b620023a217909392919060201c565b6008556040517fa9ba3ffe0b6c366b81232caab38605a0699ad5398d6cce76f91ee809e322dafc906200064f90839062000d66565b60405180910390a150565b6000806000846001600160a01b0316866001600160a01b03161015620006e357836001600160a01b0316856001600160a01b03161015620006a657506000915060019050600262000747565b836001600160a01b0316866001600160a01b03161015620006d257506000915060029050600162000747565b506001915060029050600062000747565b846001600160a01b0316846001600160a01b031610156200070f57506002915060019050600062000747565b856001600160a01b0316846001600160a01b031610156200073b57506002915060009050600162000747565b50600191506000905060025b93509350939050565b60006001600160a01b038216301415620007745750670de0b6b3a76400006200081f565b6000826001600160a01b031663313ce5676040518163ffffffff1660e01b815260040160206040518083038186803b158015620007b057600080fd5b505afa158015620007c5573d6000803e3d6000fd5b505050506040513d601f19601f82011682018060405250810190620007eb919062000c67565b60ff16905060006200080a601283620008ff60201b620023c51760201c565b905080600a0a670de0b6b3a764000002925050505b919050565b62000836816210905360ea1b6200091c565b50565b6002815110156200084a5762000836565b6000816000815181106200085a57fe5b602002602001015190506000600190505b8251811015620008c05760008382815181106200088457fe5b60200260200101519050620008b5816001600160a01b0316846001600160a01b0316106065620005a060201b60201c565b91506001016200086b565b505050565b64e8d4a5100090565b67016345785d8a000090565b6000620008e98484846200097d565b506001901b60001901811b1992909216911b1790565b600062000911838311156001620005a0565b508082035b92915050565b62461bcd60e51b600090815260206004526007602452600a808404818106603090810160081b958390069590950190829004918206850160101b01602363ffffff0060e086901c160160181b0190930160c81b60445260e882901c90606490fd5b6200098e61010083106064620005a0565b620009c760018210158015620009bf5750620009bb60ff8461010003620009d860201b620023db1760201c565b8211155b6064620005a0565b620008c083821c156101b4620005a0565b6000818310620009e95781620009eb565b825b9392505050565b828054600181600116156101000203166002900490600052602060002090601f016020900481019282601f1062000a3557805160ff191683800117855562000a65565b8280016001018555821562000a65579182015b8281111562000a6557825182559160200191906001019062000a48565b5062000a7392915062000a85565b5090565b6136c1806200579a83390190565b5b8082111562000a73576000815560010162000a86565b8051620009168162000da2565b600082601f83011262000aba578081fd5b81516001600160401b038082111562000ad1578283fd5b6040516020601f8401601f191682018101838111838210171562000af3578586fd5b8060405250819450838252868185880101111562000b1057600080fd5b600092505b8383101562000b34578583018101518284018201529182019162000b15565b8383111562000b465760008185840101525b5050505092915050565b60006020828403121562000b62578081fd5b5051919050565b60006020828403121562000b7b578081fd5b8151620009eb8162000da2565b6000806000806000806000806000806101408b8d03121562000ba8578586fd5b62000bb48c8c62000a9c565b60208c0151909a506001600160401b038082111562000bd1578788fd5b62000bdf8e838f0162000aa9565b9a5060408d015191508082111562000bf5578788fd5b5062000c048d828e0162000aa9565b98505062000c168c60608d0162000a9c565b965062000c278c60808d0162000a9c565b955060a08b0151945060c08b0151935060e08b015192506101008b0151915062000c568c6101208d0162000a9c565b90509295989b9194979a5092959850565b60006020828403121562000c79578081fd5b815160ff81168114620009eb578182fd5b6001600160a01b03948516815292841660208401529083166040830152909116606082015260800190565b60006060820185835260206060818501528186518084526080860191508288019350845b8181101562000d015762000cee855162000d96565b8352938301939183019160010162000cd9565b505084810360408601528551808252908201925081860190845b8181101562000d435762000d30835162000d96565b8552938301939183019160010162000d1b565b509298975050505050505050565b602081016003831062000d6057fe5b91905290565b90815260200190565b9384526001600160a01b039283166020850152908216604084015216606082015260800190565b6001600160a01b031690565b6001600160a01b03811681146200083657600080fd5b60805160a05160c05160e0516101005160601c6101205160601c6101405161016051610180516101a05160601c6101c05160601c6101e05160601c61020051610220516102405161026051610280516102a0516102c05160601c61486e62000f2c60003980612fbb52508061086652806124db5280613027528061308152508061093252806124755250806109d052806117a852806119af52806119ec5280611a2a528061253052508061189d5280611dc15250806112905280612503528061305a52508061125c528061249d52508061061c52806106b2528061080a5280610cfb5280610da6528061121152806113da528061193a5280611e5f52508061065b52806106f252806108d65280610b485280610c585280610e235280610eab528061139b52806118fb5280611cfb525080612172525080611d4e52508061274652508061272252508061205a525080612036525080611fc0525080613112525080613154525080613133525061486e6000f3fe608060405234801561001057600080fd5b50600436106102d35760003560e01c806370a0823111610186578063a457c2d7116100e3578063d2946c2b11610097578063dd62ed3e11610071578063dd62ed3e14610547578063ed24911d1461055a578063fd19cac814610562576102d3565b8063d2946c2b14610519578063d505accf14610521578063d5c096c414610534576102d3565b8063aaabadc5116100c8578063aaabadc514610501578063b35056b814610509578063b7b814fc14610511576102d3565b8063a457c2d7146104db578063a9059cbb146104ee576102d3565b806387ec68171161013a5780638d928af81161011f5780638d928af8146104b857806390193b7c146104c057806395d89b41146104d3576102d3565b806387ec68171461049d578063893d20e8146104b0576102d3565b80637ecebe001161016b5780637ecebe001461046f5780638456cb5914610482578063851c1bb31461048a576102d3565b806370a082311461043b57806374f3b0091461044e576102d3565b806338e9922e1161023457806350dd6ed9116101e857806355c67628116101cd57806355c676281461040a5780636028bfd4146104125780636945c1fd14610433576102d3565b806350dd6ed9146103ef57806354a844ba14610402576102d3565b8063395093511161021957806339509351146103cc5780633f4ba83a146103df5780634d6d0fd0146103e7576102d3565b806338e9922e146103af57806338fff2d0146103c4576102d3565b80631dd746ea1161028b5780632541897f116102705780632541897f1461037d578063313ce567146103925780633644e515146103a7576102d3565b80631dd746ea1461035557806323b872dd1461036a576102d3565b8063095ea7b3116102bc578063095ea7b31461031657806318160ddd146103365780631c0de0511461033e576102d3565b806301ec954a146102d857806306fdde0314610301575b600080fd5b6102eb6102e6366004613e48565b61056a565b6040516102f89190614371565b60405180910390f35b610309611b9a565b6040516102f891906144b5565b610329610324366004613b82565b611c30565b6040516102f8919061434e565b6102eb611c47565b610346611c4d565b6040516102f893929190614359565b61035d611c76565b6040516102f8919061430d565b610329610378366004613ad2565b611c85565b610385611cf9565b6040516102f8919061429f565b61039a611d1d565b6040516102f891906147b2565b6102eb611d26565b6103c26103bd366004614047565b611d30565b005b6102eb611d4c565b6103296103da366004613b82565b611d70565b6103c2611dab565b6102eb611dbf565b6103c26103fd366004613d07565b611de3565b6103c2611e01565b6102eb611e13565b610425610420366004613be5565b611e26565b6040516102f8929190614799565b610385611e5d565b6102eb610449366004613a7e565b611e81565b61046161045c366004613be5565b611e9c565b6040516102f8929190614320565b6102eb61047d366004613a7e565b611f9f565b6103c2611faa565b6102eb610498366004613cab565b611fbc565b6104256104ab366004613be5565b61200e565b610385612034565b610385612058565b6102eb6104ce366004613a7e565b61207c565b610309612097565b6103296104e9366004613b82565b6120f8565b6103296104fc366004613b82565b612136565b610385612143565b61032961214d565b6103c261215e565b610385612170565b6103c261052f366004613b12565b612194565b610461610542366004613be5565b61221f565b6102eb610555366004613a9a565b612342565b6102eb61237f565b610385612389565b6000846080015161059761057c612058565b6001600160a01b0316336001600160a01b03161460cd6123f3565b6105ac6105a2611d4c565b82146101f46123f3565b6105b4612401565b6000865160018111156105c357fe5b14806105db57506001865160018111156105d957fe5b145b61061a576040517f08c379a000000000000000000000000000000000000000000000000000000000815260040161061190614601565b60405180910390fd5b7f00000000000000000000000000000000000000000000000000000000000000006001600160a01b031686604001516001600160a01b0316148061069357507f00000000000000000000000000000000000000000000000000000000000000006001600160a01b031686604001516001600160a01b0316145b806106aa575060408601516001600160a01b031630145b806106ea57507f00000000000000000000000000000000000000000000000000000000000000006001600160a01b031686602001516001600160a01b0316145b8061072a57507f00000000000000000000000000000000000000000000000000000000000000006001600160a01b031686602001516001600160a01b0316145b80610741575060208601516001600160a01b031630145b610777576040517f08c379a0000000000000000000000000000000000000000000000000000000008152600401610611906144c8565b6060610781612414565b905061078d8682612587565b610795613927565b6000808080808c5160018111156107a857fe5b14156107d9576107cf8c60600151878c815181106107c257fe5b60200260200101516125f6565b60608d0152610808565b60018c5160018111156107e857fe5b1415610808576108028c60600151878b815181106107c257fe5b60608d01525b7f00000000000000000000000000000000000000000000000000000000000000006001600160a01b03168c602001516001600160a01b0316148015610859575060008c51600181111561085757fe5b145b156108d4578b606001518b7f00000000000000000000000000000000000000000000000000000000000000008151811061088f57fe5b602002602001015110156108cf576040517f08c379a00000000000000000000000000000000000000000000000000000000081526004016106119061456d565b610a39565b7f00000000000000000000000000000000000000000000000000000000000000006001600160a01b03168c602001516001600160a01b0316148015610925575060008c51600181111561092357fe5b145b1561099b578b606001518b7f00000000000000000000000000000000000000000000000000000000000000008151811061095b57fe5b602002602001015110156108cf576040517f08c379a000000000000000000000000000000000000000000000000000000000815260040161061190614638565b60208c01516001600160a01b0316301480156109c3575060008c5160018111156109c157fe5b145b15610a39578b606001518b7f0000000000000000000000000000000000000000000000000000000000000000815181106109f957fe5b60200260200101511015610a39576040517f08c379a000000000000000000000000000000000000000000000000000000000815260040161061190614536565b6101008c01515115611884578b6101000151806020019051810190610a5e9190613c88565b90945092507f4c696d697400000000000000000000000000000000000000000000000000000091508361136557610a9361393e565b60095460c08e01516040517fca142f750000000000000000000000000000000000000000000000000000000081526001600160a01b039092169163ca142f7591610ae19188906004016142f4565b60c06040518083038186803b158015610af957600080fd5b505afa158015610b0d573d6000803e3d6000fd5b505050506040513d601f19601f82011682018060405250810190610b319190613fe1565b60095460c08f015182519293506001600160a01b037f000000000000000000000000000000000000000000000000000000000000000081169392811692635778472a92908216911614610b88578360400151610b8e565b83602001515b6040518263ffffffff1660e01b8152600401610baa9190614371565b60a06040518083038186803b158015610bc257600080fd5b505afa158015610bd6573d6000803e3d6000fd5b505050506040513d601f19601f82011682018060405250810190610bfa9190613f67565b602001516001600160a01b031614610c32577f63757272656e6379000000000000000000000000000000000000000000000000610c54565b7f73656375726974790000000000000000000000000000000000000000000000005b92507f00000000000000000000000000000000000000000000000000000000000000006001600160a01b03168d604001516001600160a01b0316148015610ca7575060008d516001811115610ca557fe5b145b15610cf957806080015191508c606001518160a0015114610cf4576040517f08c379a0000000000000000000000000000000000000000000000000000000008152600401610611906146cc565b610da2565b7f00000000000000000000000000000000000000000000000000000000000000006001600160a01b03168d604001516001600160a01b0316148015610d4a575060008d516001811115610d4857fe5b145b15610d97578060a0015191508c60600151816080015114610cf4576040517f08c379a00000000000000000000000000000000000000000000000000000000081526004016106119061466f565b610da2610163612602565b60007f00000000000000000000000000000000000000000000000000000000000000006001600160a01b03168e604001516001600160a01b0316148015610df5575060208e01516001600160a01b031630145b15610e2157507f53656c6c00000000000000000000000000000000000000000000000000000000610ea9565b7f00000000000000000000000000000000000000000000000000000000000000006001600160a01b03168e604001516001600160a01b0316148015610e72575060208e01516001600160a01b031630145b15610e9e57507f4275790000000000000000000000000000000000000000000000000000000000610ea9565b610ea9610163612602565b7f00000000000000000000000000000000000000000000000000000000000000006001600160a01b03167fd6a806535ec4f172139ede2e9d6bbbe20957ca8a454fd40c9747fe139efe42478f60c001516001600160a01b031684600001516001600160a01b031614610f1f578360400151610f25565b83602001515b7f73656375726974790000000000000000000000000000000000000000000000008714610fee5760095460408087015190517f5778472a0000000000000000000000000000000000000000000000000000000081526001600160a01b0390921691635778472a91610f9891600401614371565b60a06040518083038186803b158015610fb057600080fd5b505afa158015610fc4573d6000803e3d6000fd5b505050506040513d601f19601f82011682018060405250810190610fe89190613f67565b5161108c565b60095460208601516040517f5778472a0000000000000000000000000000000000000000000000000000000081526001600160a01b0390921691635778472a9161103a91600401614371565b60a06040518083038186803b15801561105257600080fd5b505afa158015611066573d6000803e3d6000fd5b505050506040513d601f19601f8201168201806040525081019061108a9190613f67565b515b7f63757272656e637900000000000000000000000000000000000000000000000088146111555760095460408088015190517f5778472a0000000000000000000000000000000000000000000000000000000081526001600160a01b0390921691635778472a916110ff91600401614371565b60a06040518083038186803b15801561111757600080fd5b505afa15801561112b573d6000803e3d6000fd5b505050506040513d601f19601f8201168201806040525081019061114f9190613f67565b516111f3565b60095460208701516040517f5778472a0000000000000000000000000000000000000000000000000000000081526001600160a01b0390921691635778472a916111a191600401614371565b60a06040518083038186803b1580156111b957600080fd5b505afa1580156111cd573d6000803e3d6000fd5b505050506040513d601f19601f820116820180604052508101906111f19190613f67565b515b8561120f88608001518960a0015161262c90919063ffffffff16565b7f00000000000000000000000000000000000000000000000000000000000000008a8a6060015160405161124a9897969594939291906143b0565b60405180910390a261128082608001517f000000000000000000000000000000000000000000000000000000000000000061267d565b608083015260a08201516112b4907f000000000000000000000000000000000000000000000000000000000000000061267d565b60a083015260095460c08f01516040517fd729cf6c0000000000000000000000000000000000000000000000000000000081526001600160a01b039092169163d729cf6c916113079189906004016142f4565b600060405180830381600087803b15801561132157600080fd5b505af1158015611335573d6000803e3d6000fd5b5050505061135683898d8151811061134957fe5b602002602001015161267d565b99505050505050505050611b91565b818414801561137357508215155b1561139457604080518082019091528060018152602001849052945061187f565b826115a7577f00000000000000000000000000000000000000000000000000000000000000006001600160a01b03168c604001516001600160a01b0316148061141257507f00000000000000000000000000000000000000000000000000000000000000006001600160a01b03168c604001516001600160a01b0316145b801561142a575060208c01516001600160a01b031630145b8015611442575060008c51600181111561144057fe5b145b156115975760095460c08d01516040517fd61aed7a0000000000000000000000000000000000000000000000000000000081526001600160a01b039092169163d61aed7a916114969188919060040161437a565b602060405180830381600087803b1580156114b057600080fd5b505af11580156114c4573d6000803e3d6000fd5b505050506040513d601f19601f820116820180604052508101906114e89190613bcd565b90508b606001518114611527576040517f08c379a0000000000000000000000000000000000000000000000000000000008152600401610611906145a4565b7f9b85ff671b830162b81f1cb1253d54a6fee66e6f9760fc15cfc3fecccca8f1188c60c001518d602001518e604001518f6060015187428a60405161157297969594939291906142b3565b60405180910390a161158a81878b8151811061134957fe5b9750505050505050611b91565b6115a2610163612602565b61187f565b82156118745760208c01516001600160a01b0316301480156115d5575060008c5160018111156115d357fe5b145b156116ca57600960009054906101000a90046001600160a01b03166001600160a01b03166346764e5e85858f6040518463ffffffff1660e01b815260040161161f93929190614478565b602060405180830381600087803b15801561163957600080fd5b505af115801561164d573d6000803e3d6000fd5b505050506040513d601f19601f820116820180604052508101906116719190613bcd565b9050611681818d606001516123c5565b90507f9b85ff671b830162b81f1cb1253d54a6fee66e6f9760fc15cfc3fecccca8f1188c60c001518d604001518e602001518487428a60405161157297969594939291906142b3565b60408c01516001600160a01b0316301480156116f2575060008c5160018111156116f057fe5b145b1561159757600960009054906101000a90046001600160a01b03166001600160a01b03166346764e5e85858f6040518463ffffffff1660e01b815260040161173c93929190614478565b602060405180830381600087803b15801561175657600080fd5b505af115801561176a573d6000803e3d6000fd5b505050506040513d601f19601f8201168201806040525081019061178e9190613bcd565b905061179e8c6060015182612689565b90508b606001518b7f0000000000000000000000000000000000000000000000000000000000000000815181106117d157fe5b60200260200101511015611811576040517f08c379a000000000000000000000000000000000000000000000000000000000815260040161061190614729565b7f9b85ff671b830162b81f1cb1253d54a6fee66e6f9760fc15cfc3fecccca8f1188c60c001518d602001518e604001518487428a60405161185897969594939291906142b3565b60405180910390a161158a8c60600151878b8151811061134957fe5b61187f610163612602565b61189b565b604080518082019091526000808252602082015294505b7f00000000000000000000000000000000000000000000000000000000000000008c6060015110156118f9576040517f08c379a0000000000000000000000000000000000000000000000000000000008152600401610611906144ff565b7f00000000000000000000000000000000000000000000000000000000000000006001600160a01b03168c602001516001600160a01b0316148061197257507f00000000000000000000000000000000000000000000000000000000000000006001600160a01b03168c602001516001600160a01b0316145b801561198a575060408c01516001600160a01b031630145b80156119a2575060008c5160018111156119a057fe5b145b15611b12578b606001518b7f0000000000000000000000000000000000000000000000000000000000000000815181106119d857fe5b60200260200101511115611b0257611a278b7f000000000000000000000000000000000000000000000000000000000000000081518110611a1557fe5b60200260200101518d606001516123c5565b8b7f000000000000000000000000000000000000000000000000000000000000000081518110611a5357fe5b60209081029190910101526009546040517f5487e8cf0000000000000000000000000000000000000000000000000000000081526001600160a01b0390911690635487e8cf90611aa9908f908990600401614760565b602060405180830381600087803b158015611ac357600080fd5b505af1158015611ad7573d6000803e3d6000fd5b505050506040513d601f19601f82011682018060405250810190611afb9190613bcd565b9150611b0d565b611b0d610201612602565b611b1d565b611b1d610163612602565b7f9b85ff671b830162b81f1cb1253d54a6fee66e6f9760fc15cfc3fecccca8f1188c60c001518d602001518e604001518f6060015189602001514288604051611b6c97969594939291906142b3565b60405180910390a1611b888c60600151878b8151811061134957fe5b97505050505050505b50949350505050565b60038054604080516020601f6002600019610100600188161502019095169490940493840181900481028201810190925282815260609390929091830182828015611c265780601f10611bfb57610100808354040283529160200191611c26565b820191906000526020600020905b815481529060010190602001808311611c0957829003601f168201915b5050505050905090565b6000611c3d33848461269b565b5060015b92915050565b60025490565b6000806000611c5a612703565b159250611c65612720565b9150611c6f612744565b9050909192565b6060611c80612414565b905090565b600080611c928533612342565b9050611cb6336001600160a01b0387161480611cae5750838210155b61019e6123f3565b611cc1858585612768565b336001600160a01b03861614801590611cdc57506000198114155b15611cee57611cee853385840361269b565b506001949350505050565b7f000000000000000000000000000000000000000000000000000000000000000090565b60055460ff1690565b6000611c8061237f565b611d38612848565b611d40612401565b611d498161288e565b50565b7f000000000000000000000000000000000000000000000000000000000000000090565b3360008181526001602090815260408083206001600160a01b03871684529091528120549091611c3d918590611da69086612689565b61269b565b611db3612848565b611dbd6000612907565b565b7f000000000000000000000000000000000000000000000000000000000000000090565b611deb612848565b611df3612401565b611dfd8282612998565b5050565b611e09612848565b611dbd6001612aa6565b600854600090611c809060c0603f612afd565b60006060611e3c8651611e37612b0c565b612b11565b611e5189898989898989612b1e612b70612bd9565b97509795505050505050565b7f000000000000000000000000000000000000000000000000000000000000000090565b6001600160a01b031660009081526020819052604090205490565b60608088611eab61057c612058565b611eb66105a2611d4c565b60606000611ec386612d8e565b15611eeb57611ed0612dbd565b611ee289611edc611c47565b88612dd0565b92509050611f3d565b611ef3612dfc565b6060611efd612414565b9050611f098a82612587565b611f2d8d8d8d8d8d611f1961214d565b611f23578d611f26565b60005b878e612b1e565b93509150611f3b8382612b70565b505b611f478b82612e04565b81895167ffffffffffffffff81118015611f6057600080fd5b50604051908082528060200260200182016040528015611f8a578160200160208202803683370190505b509450945050505b5097509795505050505050565b6000611c418261207c565b611fb2612848565b611dbd6001612907565b60007f000000000000000000000000000000000000000000000000000000000000000082604051602001611ff1929190614229565b604051602081830303815290604052805190602001209050919050565b6000606061201f8651611e37612b0c565b611e5189898989898989612e0e612e2a612bd9565b7f000000000000000000000000000000000000000000000000000000000000000090565b7f000000000000000000000000000000000000000000000000000000000000000090565b6001600160a01b031660009081526006602052604090205490565b60048054604080516020601f6002600019610100600188161502019095169490940493840181900481028201810190925282815260609390929091830182828015611c265780601f10611bfb57610100808354040283529160200191611c26565b6000806121053385612342565b905080831061211f5761211a3385600061269b565b61212c565b61212c338585840361269b565b5060019392505050565b6000611c3d338484612768565b6000611c80612e93565b600854600090611c809060ff612f0d565b612166612848565b611dbd6000612aa6565b7f000000000000000000000000000000000000000000000000000000000000000090565b60007f6e71edae12b1b97f4d1f60370fef10105fa2faae0126114a169c64845d6126c98888886121c38c61207c565b896040516020016121d9969594939291906143f7565b60405160208183030381529060405280519060200120905061220a8882612201878787612f17565b886101f8612f56565b61221588888861269b565b5050505050505050565b6060808861222e61057c612058565b6122396105a2611d4c565b612241612dfc565b606061224b612414565b9050612255611c47565b612302576000606061226a8d8d8d868b612fad565b915091506122836122796130d2565b83101560cc6123f3565b61229560006122906130d2565b6130d9565b6122a88b6122a16130d2565b84036130d9565b6122b28184612e2a565b808a5167ffffffffffffffff811180156122cb57600080fd5b506040519080825280602002602001820160405280156122f5578160200160208202803683370190505b5095509550505050611f92565b61230c8882612587565b600060606123348d8d8d8d8d61232061214d565b61232a578d61232d565b60005b898e612e0e565b915091506122a88b836130d9565b600061234c612058565b6001600160a01b0316826001600160a01b0316141561236e5750600019611c41565b61237883836130e3565b9050611c41565b6000611c8061310e565b6009546001600160a01b031681565b80611dfd816131ab565b60006123af848484613229565b506001901b60001901811b1992909216911b1790565b60006123d58383111560016123f3565b50900390565b60008183106123ea57816123ec565b825b9392505050565b81611dfd57611dfd81612602565b611dbd61240c612703565b6101926123f3565b60606000612420612b0c565b905060608167ffffffffffffffff8111801561243b57600080fd5b50604051908082528060200260200182016040528015612465578160200160208202803683370190505b50905060005b82811015612580577f00000000000000000000000000000000000000000000000000000000000000008114156124d9577f00000000000000000000000000000000000000000000000000000000000000008282815181106124c857fe5b602002602001018181525050612578565b7f000000000000000000000000000000000000000000000000000000000000000081141561252e577f00000000000000000000000000000000000000000000000000000000000000008282815181106124c857fe5b7f000000000000000000000000000000000000000000000000000000000000000081141561257857670de0b6b3a764000082828151811061256b57fe5b6020026020010181815250505b60010161246b565b5091505090565b81518151612596908290612b11565b60005b818110156125f0576125d18482815181106125b057fe5b60200260200101518483815181106125c457fe5b6020026020010151613270565b8482815181106125dd57fe5b6020908102919091010152600101612599565b50505050565b60006123ec8383613270565b611d49817f42414c00000000000000000000000000000000000000000000000000000000006132a6565b600061263b82151560046123f3565b8261264857506000611c41565b670de0b6b3a76400008381029061266b9085838161266257fe5b041460056123f3565b82818161267457fe5b04915050611c41565b60006123ec838361262c565b60008282016123ec84821015836123f3565b6001600160a01b0380841660008181526001602090815260408083209487168084529490915290819020849055517f8c5be1e5ebec7d5bd14f71427d1e84f3dd0314c0f7b2291e5b200ac8c7c3b925906126f6908590614371565b60405180910390a3505050565b600061270d612744565b421180611c8057505060075460ff161590565b7f000000000000000000000000000000000000000000000000000000000000000090565b7f000000000000000000000000000000000000000000000000000000000000000090565b61277f6001600160a01b03841615156101986123f3565b6127966001600160a01b03831615156101996123f3565b6127a1838383613224565b6001600160a01b0383166000908152602081905260409020546127c790826101a0613321565b6001600160a01b0380851660009081526020819052604080822093909355908416815220546127f69082612689565b6001600160a01b0380841660008181526020819052604090819020939093559151908516907fddf252ad1be2c89b69c2b068fc378daa952ba7f163c4a11628f55a4df523b3ef906126f6908590614371565b60006128776000357fffffffff0000000000000000000000000000000000000000000000000000000016611fbc565b9050611d496128868233613337565b6101916123f3565b6128a3612899613420565b82101560cb6123f3565b6128b86128ae613429565b82111560ca6123f3565b6008546128c9908260c0603f6123a2565b6008556040517fa9ba3ffe0b6c366b81232caab38605a0699ad5398d6cce76f91ee809e322dafc906128fc908390614371565b60405180910390a150565b801561292757612922612918612720565b42106101936123f3565b61293c565b61293c612932612744565b42106101a96123f3565b600780547fffffffffffffffffffffffffffffffffffffffffffffffffffffffffffffff00168215151790556040517f9e3a5e37224532dea67b89face185703738a228a6e8a23dee546960180d3be64906128fc90839061434e565b60006129a2611d4c565b905060006129ae612058565b6001600160a01b031663b05f8e4883866040518363ffffffff1660e01b81526004016129db92919061437a565b60806040518083038186803b1580156129f357600080fd5b505afa158015612a07573d6000803e3d6000fd5b505050506040513d601f19601f82011682018060405250810190612a2b919061405f565b6040517f18e736d40000000000000000000000000000000000000000000000000000000081529094506001600160a01b03851693506318e736d49250612a78915085908790600401614457565b600060405180830381600087803b158015612a9257600080fd5b505af1158015612215573d6000803e3d6000fd5b600854612ab5908260ff613435565b6008556040517feff3d4d215b42bf0960be9c6d5e05c22cba4df6627a3a523e2acee733b5854c890612ae890839061434e565b60405180910390a180611d4957611d49611dbd565b6001901b6000190191901c1690565b600390565b611dfd81831460676123f3565b600060606000612b2d8461345c565b90506001816001811115612b3d57fe5b14612b5257612b4d610163612602565b612b62565b612b5c8885613472565b90935091505b509850989650505050505050565b81518151612b7f908290612b11565b60005b818110156125f057612bba848281518110612b9957fe5b6020026020010151848381518110612bad57fe5b602002602001015161262c565b848281518110612bc657fe5b6020908102919091010152600101612b82565b333014612cc8576000306001600160a01b0316600036604051612bfd929190614259565b6000604051808303816000865af19150503d8060008114612c3a576040519150601f19603f3d011682016040523d82523d6000602084013e612c3f565b606091505b505090508060008114612c4e57fe5b60046000803e6000517fffffffff00000000000000000000000000000000000000000000000000000000167f43adbafb000000000000000000000000000000000000000000000000000000008114612caa573d6000803e3d6000fd5b506020600460003e604060205260243d03602460403e601c3d016000f35b612cd0612dfc565b6060612cda612414565b9050612ce68782612587565b60006060612cfe8c8c8c8c8c8c898d8d63ffffffff16565b91509150612d1081848663ffffffff16565b80517fffffffffffffffffffffffffffffffffffffffffffffffffffffffffffffffe082018390526343adbafb7fffffffffffffffffffffffffffffffffffffffffffffffffffffffffffffffc08301526020027fffffffffffffffffffffffffffffffffffffffffffffffffffffffffffffffdc82016044820181fd5b6000808251118015611c41575060ff801682806020019051810190612db3919061409f565b60ff161492915050565b611dbd612dc861214d565b6101b66123f3565b600060606000612ddf84613515565b90506060612dee87878461352b565b919791965090945050505050565b611dbd612401565b611dfd82826135da565b60006060612e1d610163612602565b9850989650505050505050565b81518151612e39908290612b11565b60005b818110156125f057612e74848281518110612e5357fe5b6020026020010151848381518110612e6757fe5b60200260200101516136a6565b848281518110612e8057fe5b6020908102919091010152600101612e3c565b6000612e9d612058565b6001600160a01b031663aaabadc56040518163ffffffff1660e01b815260040160206040518083038186803b158015612ed557600080fd5b505afa158015612ee9573d6000803e3d6000fd5b505050506040513d601f19601f82011682018060405250810190611c809190613ceb565b1c60019081161490565b60408051604180825260808201909252606091829190602082018180368337019050509050836020820152826040820152846060820153949350505050565b6000612f61856136f4565b9050612f77612f71878387613710565b836123f3565b612f86428410156101b86123f3565b5050506001600160a01b039092166000908152600660205260409020805460010190555050565b60006060612fb9612401565b7f0000000000000000000000000000000000000000000000000000000000000000612ff46001600160a01b03888116908316146101566123f3565b613014816001600160a01b0316876001600160a01b0316146101566123f3565b606061301f856137dd565b905061307e817f00000000000000000000000000000000000000000000000000000000000000008151811061305057fe5b60200260200101517f00000000000000000000000000000000000000000000000000000000000000006125f6565b817f0000000000000000000000000000000000000000000000000000000000000000815181106130aa57fe5b60209081029190910101526dffffffffffffffffffffffffffff999098509650505050505050565b620f424090565b611dfd82826137f3565b6001600160a01b03918216600090815260016020908152604080832093909416825291909152205490565b60007f00000000000000000000000000000000000000000000000000000000000000007f00000000000000000000000000000000000000000000000000000000000000007f000000000000000000000000000000000000000000000000000000000000000061317b613886565b3060405160200161319095949392919061442b565b60405160208183030381529060405280519060200120905090565b6002815110156131ba57611d49565b6000816000815181106131c957fe5b602002602001015190506000600190505b82518110156132245760008382815181106131f157fe5b6020026020010151905061321a816001600160a01b0316846001600160a01b03161060656123f3565b91506001016131da565b505050565b613238610100831060646123f3565b6132616001821015801561325a575061325660ff84610100036123db565b8211155b60646123f3565b61322483821c156101b46123f3565b600082820261329484158061328d57508385838161328a57fe5b04145b60036123f3565b670de0b6b3a764000090049392505050565b7f08c379a000000000000000000000000000000000000000000000000000000000600090815260206004526007602452600a808404818106603090810160081b958390069590950190829004918206850160101b01602363ffffff0060e086901c160160181b0190930160c81b60445260e882901c90606490fd5b600061333084841115836123f3565b5050900390565b600073ba1ba1ba1ba1ba1ba1ba1ba1ba1ba1ba1ba1ba1b613356612034565b6001600160a01b03161415801561337157506133718361388a565b156133995761337e612034565b6001600160a01b0316336001600160a01b0316149050611c41565b6133a1612e93565b6001600160a01b0316639be2a8848484306040518463ffffffff1660e01b81526004016133d093929190614391565b60206040518083038186803b1580156133e857600080fd5b505afa1580156133fc573d6000803e3d6000fd5b505050506040513d601f19601f820116820180604052508101906123789190613bad565b64e8d4a5100090565b67016345785d8a000090565b60006001821b198416828461344b57600061344e565b60015b60ff16901b17949350505050565b600081806020019051810190611c419190613d55565b600060606000613481846138f8565b90506060855167ffffffffffffffff8111801561349d57600080fd5b506040519080825280602002602001820160405280156134c7578160200160208202803683370190505b50905060005b8651811015613509578681815181106134e257fe5b60200260200101518282815181106134f657fe5b60209081029190910101526001016134cd565b50909590945092505050565b6000818060200190518101906123ec91906140bb565b60606000613539838561262c565b9050845167ffffffffffffffff8111801561355357600080fd5b5060405190808252806020026020018201604052801561357d578160200160208202803683370190505b50915060005b85518110156135d1576135b28287838151811061359c57fe5b602002602001015161327090919063ffffffff16565b8382815181106135be57fe5b6020908102919091010152600101613583565b50509392505050565b6135f16001600160a01b038316151561019b6123f3565b6135fd82600083613224565b6001600160a01b03821660009081526020819052604090205461362390826101b2613321565b6001600160a01b0383166000908152602081905260409020556136566136518261364b611c47565b9061390e565b61391c565b60006001600160a01b0316826001600160a01b03167fddf252ad1be2c89b69c2b068fc378daa952ba7f163c4a11628f55a4df523b3ef8360405161369a9190614371565b60405180910390a35050565b60006136b582151560046123f3565b826136c257506000611c41565b670de0b6b3a7640000838102906136dc9085838161266257fe5b8260018203816136e857fe5b04600101915050611c41565b60006136fe61310e565b82604051602001611ff1929190614269565b600061372282516041146101b96123f3565b60208281015160408085015160608601518251600080825295019283905292939092811a9160019061375b908990859088908890614497565b6020604051602081039080840390855afa15801561377d573d6000803e3d6000fd5b50506040517fffffffffffffffffffffffffffffffffffffffffffffffffffffffffffffffe001519150506001600160a01b038116158015906137d15750876001600160a01b0316816001600160a01b0316145b98975050505050505050565b6060818060200190518101906123ec9190613d9e565b6137ff60008383613224565b6138146136518261380e611c47565b90612689565b6001600160a01b0382166000908152602081905260409020546138379082612689565b6001600160a01b0383166000818152602081905260408082209390935591519091907fddf252ad1be2c89b69c2b068fc378daa952ba7f163c4a11628f55a4df523b3ef9061369a908590614371565b4690565b60006138b57f38e9922e00000000000000000000000000000000000000000000000000000000611fbc565b8214806138e957506138e67f50dd6ed900000000000000000000000000000000000000000000000000000000611fbc565b82145b80611c415750611c4182613921565b6000818060200190518101906123ec9190613d71565b60006123ec83836001613321565b600255565b50600090565b604080518082019091526000808252602082015290565b6040805160c081018252600080825260208201819052918101829052606081018290526080810182905260a081019190915290565b8035611c4181614807565b600082601f83011261398e578081fd5b81356139a161399c826147e7565b6147c0565b8181529150602080830190848101818402860182018710156139c257600080fd5b60005b848110156139e1578135845292820192908201906001016139c5565b505050505092915050565b600082601f8301126139fc578081fd5b813567ffffffffffffffff811115613a12578182fd5b613a4360207fffffffffffffffffffffffffffffffffffffffffffffffffffffffffffffffe0601f840116016147c0565b9150808252836020828501011115613a5a57600080fd5b8060208401602084013760009082016020015292915050565b8035611c418161481c565b600060208284031215613a8f578081fd5b81356123ec81614807565b60008060408385031215613aac578081fd5b8235613ab781614807565b91506020830135613ac781614807565b809150509250929050565b600080600060608486031215613ae6578081fd5b8335613af181614807565b92506020840135613b0181614807565b929592945050506040919091013590565b600080600080600080600060e0888a031215613b2c578485fd5b8735613b3781614807565b96506020880135613b4781614807565b955060408801359450606088013593506080880135613b6581614829565b9699959850939692959460a0840135945060c09093013592915050565b60008060408385031215613b94578182fd5b8235613b9f81614807565b946020939093013593505050565b600060208284031215613bbe578081fd5b815180151581146123ec578182fd5b600060208284031215613bde578081fd5b5051919050565b600080600080600080600060e0888a031215613bff578081fd5b873596506020880135613c1181614807565b95506040880135613c2181614807565b9450606088013567ffffffffffffffff80821115613c3d578283fd5b613c498b838c0161397e565b955060808a0135945060a08a0135935060c08a0135915080821115613c6c578283fd5b50613c798a828b016139ec565b91505092959891949750929550565b60008060408385031215613c9a578182fd5b505080516020909101519092909150565b600060208284031215613cbc578081fd5b81357fffffffff00000000000000000000000000000000000000000000000000000000811681146123ec578182fd5b600060208284031215613cfc578081fd5b81516123ec81614807565b60008060408385031215613d19578182fd5b8235613d2481614807565b9150602083013567ffffffffffffffff811115613d3f578182fd5b613d4b858286016139ec565b9150509250929050565b600060208284031215613d66578081fd5b81516123ec8161481c565b60008060408385031215613d83578182fd5b8251613d8e8161481c565b6020939093015192949293505050565b60008060408385031215613db0578182fd5b825160048110613dbe578283fd5b8092505060208084015167ffffffffffffffff811115613ddc578283fd5b8401601f81018613613dec578283fd5b8051613dfa61399c826147e7565b81815283810190838501858402850186018a1015613e16578687fd5b8694505b83851015613e38578051835260019490940193918501918501613e1a565b5080955050505050509250929050565b60008060008060808587031215613e5d578182fd5b843567ffffffffffffffff80821115613e74578384fd5b818701915061012080838a031215613e8a578485fd5b613e93816147c0565b9050613e9f8984613a73565b8152613eae8960208501613973565b6020820152613ec08960408501613973565b6040820152606083013560608201526080830135608082015260a083013560a0820152613ef08960c08501613973565b60c0820152613f028960e08501613973565b60e08201526101008084013583811115613f1a578687fd5b613f268b8287016139ec565b828401525050809650506020870135915080821115613f43578384fd5b50613f508782880161397e565b949794965050505060408301359260600135919050565b600060a08284031215613f78578081fd5b613f8260a06147c0565b8251613f8d81614807565b81526020830151613f9d81614807565b6020820152604083015160038110613fb3578283fd5b6040820152606083015160058110613fc9578283fd5b60608201526080928301519281019290925250919050565b600060c08284031215613ff2578081fd5b613ffc60c06147c0565b825161400781614807565b808252506020830151602082015260408301516040820152606083015160608201526080830151608082015260a083015160a08201528091505092915050565b600060208284031215614058578081fd5b5035919050565b60008060008060808587031215614074578182fd5b845193506020850151925060408501519150606085015161409481614807565b939692955090935050565b6000602082840312156140b0578081fd5b81516123ec81614829565b600080604083850312156140cd578182fd5b8251613d8e81614829565b6001600160a01b03169052565b6000815180845260208085019450808401835b83811015614114578151875295820195908201906001016140f8565b509495945050505050565b60008151808452815b8181101561414457602081850181015186830182015201614128565b818111156141555782602083870101525b50601f017fffffffffffffffffffffffffffffffffffffffffffffffffffffffffffffffe0169290920160200192915050565b600061012082516002811061419957fe5b8085525060208301516141af60208601826140d8565b5060408301516141c260408601826140d8565b50606083015160608501526080830151608085015260a083015160a085015260c08301516141f360c08601826140d8565b5060e083015161420660e08601826140d8565b5061010080840151828287015261421f8387018261411f565b9695505050505050565b9182527fffffffff0000000000000000000000000000000000000000000000000000000016602082015260240190565b6000828483379101908152919050565b7f190100000000000000000000000000000000000000000000000000000000000081526002810192909252602282015260420190565b6001600160a01b0391909116815260200190565b6001600160a01b03978816815295871660208701529390951660408501526060840191909152608083015260a082019290925260c081019190915260e00190565b6001600160a01b03929092168252602082015260400190565b6000602082526123ec60208301846140e5565b60006040825261433360408301856140e5565b828103602084015261434581856140e5565b95945050505050565b901515815260200190565b92151583526020830191909152604082015260600190565b90815260200190565b9182526001600160a01b0316602082015260400190565b9283526001600160a01b03918216602084015216604082015260600190565b9788526001600160a01b03968716602089015294861660408801526060870193909352608086019190915290921660a084015260c083019190915260e08201526101000190565b9586526001600160a01b0394851660208701529290931660408501526060840152608083019190915260a082015260c00190565b9485526020850193909352604084019190915260608301526001600160a01b0316608082015260a00190565b600083825260406020830152614470604083018461411f565b949350505050565b6000848252836020830152606060408301526143456060830184614188565b93845260ff9290921660208401526040830152606082015260800190565b6000602082526123ec602083018461411f565b60208082526016908201527f496e76616c6964207377617070656420746f6b656e7300000000000000000000604082015260600190565b60208082526018908201527f4f726465722062656c6f77206d696e696d756d2073697a650000000000000000604082015260600190565b6020808252601f908201527f496e73756666696369656e7420706f6f6c20746f6b656e2062616c616e636500604082015260600190565b6020808252601d908201527f496e73756666696369656e742063757272656e63792062616c616e6365000000604082015260600190565b60208082526023908201527f496e73756666696369656e7420706f6f6c20746f6b656e73207377617070656460408201527f20696e0000000000000000000000000000000000000000000000000000000000606082015260800190565b6020808252600c908201527f496e76616c696420737761700000000000000000000000000000000000000000604082015260600190565b6020808252601d908201527f496e73756666696369656e742073656375726974792062616c616e6365000000604082015260600190565b60208082526030908201527f496e73756666696369656e7420706f6f6c20746f6b656e73207377617070656460408201527f20696e20666f722063757272656e637900000000000000000000000000000000606082015260800190565b60208082526030908201527f496e73756666696369656e7420706f6f6c20746f6b656e73207377617070656460408201527f20696e20666f7220736563757269747900000000000000000000000000000000606082015260800190565b6020808252601d908201527f494e53554646494349454e545f494e5445524e414c5f42414c414e4345000000604082015260600190565b6000606082526147736060830185614188565b905082516003811061478157fe5b80602084015250602083015160408301529392505050565b60008382526040602083015261447060408301846140e5565b60ff91909116815260200190565b60405181810167ffffffffffffffff811182821017156147df57600080fd5b604052919050565b600067ffffffffffffffff8211156147fd578081fd5b5060209081020190565b6001600160a01b0381168114611d4957600080fd5b60028110611d4957600080fd5b60ff81168114611d4957600080fdfea2646970667358221220cca09af2376def77f1d0da8df5d928ea9e72f51e754a83d2a9bc1d41b27e9c5964736f6c63430007010033608060405260006005553480156200001657600080fd5b50604051620036c1380380620036c1833981016040819052620000399162000106565b620000443362000098565b600b80546001600160a01b039586166001600160a01b0319918216179091556009805494861694821694909417909355600a805492851692841692909217909155600c805491909316911617905562000166565b600080546001600160a01b038381166001600160a01b0319831681178455604051919092169283917f8be0079c531659141344cd1fd0a4f28419497f9722a3daafe3b4186f6b6457e09190a35050565b80516001600160a01b03811681146200010057600080fd5b92915050565b600080600080608085870312156200011c578384fd5b620001288686620000e8565b9350620001398660208701620000e8565b92506200014a8660408701620000e8565b91506200015b8660608701620000e8565b905092959194509250565b61354b80620001766000396000f3fe608060405234801561001057600080fd5b50600436106101005760003560e01c80637ef9389011610097578063d61aed7a11610066578063d61aed7a146101f3578063d729cf6c14610206578063e43372e914610219578063f2fde38b1461022157610100565b80637ef93890146101a557806381b5da1d146101b85780638da5cb5b146101cb578063ca142f75146101d357610100565b80635487e8cf116100d35780635487e8cf146101605780635778472a146101735780636945c1fd14610193578063715018a61461019b57610100565b80632541897f1461010557806338fff2d01461012357806346764e5e1461013857806346b8b7301461014b575b600080fd5b61010d610234565b60405161011a9190613284565b60405180910390f35b61012b610243565b60405161011a91906132dc565b61012b610146366004613155565b6102d2565b6101536104b5565b60405161011a9190613298565b61012b61016e3660046131b7565b6105aa565b6101866101813660046130cb565b610810565b60405161011a919061342f565b61010d610952565b6101a3610961565b005b6101a36101b33660046131a3565b610979565b6101a36101c636600461312a565b610a97565b61010d610c0d565b6101e66101e13660046130a0565b610c1c565b60405161011a919061348c565b61012b6102013660046130fb565b610cf7565b6101a36102143660046130a0565b610e78565b610153610f17565b6101a361022f366004613084565b610f78565b6009546001600160a01b031690565b600080600c60009054906101000a90046001600160a01b03166001600160a01b03166338fff2d06040518163ffffffff1660e01b815260040160206040518083038186803b15801561029457600080fd5b505afa1580156102a8573d6000803e3d6000fd5b505050506040513d601f19601f820116820180604052508101906102cc91906130e3565b91505090565b60006102f2336102e0610c0d565b6001600160a01b0316146101aa610fa7565b60026000858152600660205260409020600101547501000000000000000000000000000000000000000000900460ff16600481111561032d57fe5b1461036d576040517f08c379a0000000000000000000000000000000000000000000000000000000008152600401610364906133c1565b60405180910390fd5b60c08201516000858152600660205260409020546001600160a01b039081169116146103c5576040517f08c379a00000000000000000000000000000000000000000000000000000000081526004016103649061338a565b60095460008581526006602052604081206001015490916001600160a01b039182169116146103f55760016103f8565b60005b9050610405848683610fb9565b6000858152600660209081526040909120600201546009549185015190916001600160a01b039182169116148061044e5750600a5460208501516001600160a01b039081169116145b1561047857610461846060015182611059565b6000878152600660205260409020600201556104ac565b60008681526006602052604090206002015460608501516104999190611072565b6000878152600660205260409020600201555b95945050505050565b600354606090819067ffffffffffffffff811180156104d357600080fd5b506040519080825280602002602001820160405280156104fd578160200160208202803683370190505b5090506000805b6003548110156105a257336001600160a01b0316600660006003848154811061052957fe5b600091825260208083206001600290930201919091015483528201929092526040019020546001600160a01b0316141561059a576003818154811061056a57fe5b90600052602060002090600202016001015483838151811061058857fe5b60209081029190910101526001909101905b600101610504565b509091505090565b60006105b8336102e0610c0d565b6000825160028111156105c757fe5b14806105df57506001825160028111156105dd57fe5b145b6105e857600080fd5b60055442146105f757426105fe565b6005546001015b600581905560c084015160405160009261061b929160200161324f565b60405160208183030381529060405280519060200120905061063b612ea3565b6040518060a001604052808660c001516001600160a01b0316815260200186602001516001600160a01b031681526020018560000151600281111561067c57fe5b8152602001600281526060870151602091820152600084815260068252604090819020835181547fffffffffffffffffffffffff00000000000000000000000000000000000000009081166001600160a01b0392831617835593850151600183018054909516911617808455918401519394508493909290917fffffffffffffffffffffff00ffffffffffffffffffffffffffffffffffffffff167401000000000000000000000000000000000000000083600281111561073957fe5b021790555060608201516001820180547fffffffffffffffffffff00ffffffffffffffffffffffffffffffffffffffffff16750100000000000000000000000000000000000000000083600481111561078e57fe5b02179055506080919091015160029091015560095460208201516001600160a01b03908116911614156107ce576107c9846020015183611088565b6107f7565b600a5460208201516001600160a01b03908116911614156107f7576107f78460200151836112a1565b6108058285602001516114b6565b925050505b92915050565b610818612ea3565b610820610c0d565b6001600160a01b0316336001600160a01b031614806108495750600b546001600160a01b031633145b8061086a57506000828152600660205260409020546001600160a01b031633145b6108a0576040517f08c379a00000000000000000000000000000000000000000000000000000000081526004016103649061331c565b600082815260066020908152604091829020825160a08101845281546001600160a01b0390811682526001830154908116938201939093529290919083019074010000000000000000000000000000000000000000900460ff16600281111561090557fe5b600281111561091057fe5b81526020016001820160159054906101000a900460ff16600481111561093257fe5b600481111561093d57fe5b81526020016002820154815250509050919050565b600a546001600160a01b031690565b61096d336102e0610c0d565b6109776000611d8d565b565b600b546001600160a01b03163314806109aa5750610995610c0d565b6001600160a01b0316336001600160a01b0316145b6109e0576040517f08c379a000000000000000000000000000000000000000000000000000000000815260040161036490613353565b60008381526006602052604090206002810180548401905560010180547fffffffffffffffffffff00ffffffffffffffffffffffffffffffffffffffffff16750200000000000000000000000000000000000000000017908190556009546001600160a01b0391821691161415610a6057610a5b8184611088565b610a92565b600a546000848152600660205260409020600101546001600160a01b0390811691161415610a9257610a9281846112a1565b505050565b600b546001600160a01b0316331480610ac85750610ab3610c0d565b6001600160a01b0316336001600160a01b0316145b610afe576040517f08c379a000000000000000000000000000000000000000000000000000000000815260040161036490613353565b600092835260066020908152604080852080547fffffffffffffffffffffffff00000000000000000000000000000000000000009081168255600180830180547fffffffffffffffffffff0000000000000000000000000000000000000000000090811690915560028085018a9055978952848920805484168155808301805490921690915580880189905592546001600160a01b0390811689526007808752858a20888b528752858a208054851681558084018b9055808a018b905560038082018c905560048083018d905560059283018d905596549093168b52908752858a20978a5296909552928720805490911681559182018690559381018590559081018490559182018390550155565b6000546001600160a01b031690565b610c24612ed2565b610c2c610c0d565b6001600160a01b0316336001600160a01b03161480610c535750336001600160a01b038416145b610c89576040517f08c379a0000000000000000000000000000000000000000000000000000000008152600401610364906133f8565b506001600160a01b03918216600090815260076020908152604080832093835292815290829020825160c0810184528154909416845260018101549184019190915260028101549183019190915260038101546060830152600481015460808301526005015460a082015290565b6000610d05336102e0610c0d565b60026000848152600660205260409020600101547501000000000000000000000000000000000000000000900460ff166004811115610d4057fe5b14610d77576040517f08c379a0000000000000000000000000000000000000000000000000000000008152600401610364906133c1565b6000838152600660205260409020546001600160a01b03838116911614610dca576040517f08c379a00000000000000000000000000000000000000000000000000000000081526004016103649061338a565b60095460008481526006602052604081206001015490916001600160a01b03918216911614610dfa576001610dfd565b60005b9050610e098482611df5565b505050600090815260066020526040812060028101805482547fffffffffffffffffffffffff0000000000000000000000000000000000000000168355600190920180547fffffffffffffffffffff000000000000000000000000000000000000000000001690559190915590565b610e84336102e0610c0d565b60005b6001600160a01b038316600090815260086020526040902054811015610a92576001600160a01b0383166000908152600860205260409020805483919083908110610ece57fe5b90600052602060002001541415610f0f576001600160a01b0383166000908152600860205260409020805482908110610f0357fe5b60009182526020822001555b600101610e87565b33600090815260086020908152604091829020805483518184028101840190945280845260609392830182828015610f6e57602002820191906000526020600020905b815481526020019060010190808311610f5a575b5050505050905090565b610f84336102e0610c0d565b610f9b6001600160a01b03821615156101ab610fa7565b610fa481611d8d565b50565b81610fb557610fb581611f9d565b5050565b801561100a57600082815260026020526040902054600180548592908110610fdd57fe5b60009182526020808320600292830201939093558482529091526040902054610a5b57610a5b6000611fc7565b60008281526004602052604090205460038054859290811061102857fe5b6000918252602080832060029092029091019290925583815260049091526040902054610a9257610a9260006121b5565b600082820161106b8482101583610fa7565b9392505050565b6000611082838311156001610fa7565b50900390565b60408051808201909152828152602081018281526003805460018082018355600083815294517fc2575a0e9e593c00f959f8c92f12db2869c3395a3b0502d05e2516446f71f85b60029093029283015592517fc2575a0e9e593c00f959f8c92f12db2869c3395a3b0502d05e2516446f71f85c909101555461110991611072565b9050600061111a82600260006123a1565b90505b60008211801561116857506003828154811061113557fe5b9060005260206000209060020201600001546003828154811061115457fe5b906000526020600020906002020160000154115b1561129b57611175612f07565b6003828154811061118257fe5b9060005260206000209060020201604051806040016040529081600082015481526020016001820154815250509050600383815481106111be57fe5b9060005260206000209060020201600383815481106111d957fe5b9060005260206000209060020201600082015481600001556001820154816001015590505081600460006003868154811061121057fe5b906000526020600020906002020160010154815260200190815260200160002081905550806003848154811061124257fe5b906000526020600020906002020160008201518160000155602082015181600101559050508260046000836020015181526020019081526020016000208190555081925061129383600260006123a1565b91505061111d565b50505050565b6040805180820190915282815260208101828152600180548082018255600082815293517fb10e2d527612073b26eecdfd717e6a320cf44b4afac2b0732d9fcbe2b7fa0cf660029092029182015591517fb10e2d527612073b26eecdfd717e6a320cf44b4afac2b0732d9fcbe2b7fa0cf790920191909155805461132491611072565b9050600061133582600260006123a1565b90505b60008211801561138357506001828154811061135057fe5b9060005260206000209060020201600001546001828154811061136f57fe5b906000526020600020906002020160000154105b1561129b57611390612f07565b6001828154811061139d57fe5b9060005260206000209060020201604051806040016040529081600082015481526020016001820154815250509050600183815481106113d957fe5b9060005260206000209060020201600183815481106113f457fe5b9060005260206000209060020201600082015481600001556001820154816001015590505081600260006001868154811061142b57fe5b906000526020600020906002020160010154815260200190815260200160002081905550806001848154811061145d57fe5b90600052602060002090600202016000820151816000015560208201518160010155905050826002600083602001518152602001908152602001600020819055508192506114ae83600260006123a1565b915050611338565b60008060008080600080600060606114ce8b8b6123c9565b9092509050816114e8578a9850505050505050505061080a565b600092505b8051831015611cfd5760008b81526006602052604090206002015461151157611cfd565b8a81848151811061151e57fe5b60200260200101516020015114158015611589575060008b815260066020819052604082205483516001600160a01b03909116929084908790811061155f57fe5b6020908102919091018101518101518252810191909152604001600020546001600160a01b031614155b80156115db57506000600660008386815181106115a257fe5b602002602001015160200151815260200190815260200160002060010160159054906101000a900460ff1660048111156115d857fe5b14155b1561183a578083815181106115ec57fe5b6020026020010151600001516000148015611605575089155b1561160f57611cf2565b600a5481516001600160a01b039091169060069060009084908790811061163257fe5b6020908102919091018101518101518252810191909152604001600020600101546001600160a01b0316148015611688575060095460008c8152600660205260409020600101546001600160a01b039081169116145b15611738578981848151811061169a57fe5b6020026020010151600001511015806116b1575089155b806116d357508083815181106116c357fe5b6020026020010151600001516000145b15611733578083815181106116e457fe5b6020026020010151600001516000146117145780838151811061170357fe5b602002602001015160000151611716565b895b965080838151811061172457fe5b60200260200101516020015197505b61183a565b60095481516001600160a01b039091169060069060009084908790811061175b57fe5b6020908102919091018101518101518252810191909152604001600020600101546001600160a01b03161480156117b15750600a5460008c8152600660205260409020600101546001600160a01b039081169116145b1561183a57898184815181106117c357fe5b6020026020010151600001511115806117da575089155b1561183a578083815181106117eb57fe5b60200260200101516000015160001461181b5780838151811061180a57fe5b60200260200101516000015161181d565b895b965080838151811061182b57fe5b60200260200101516020015195505b8715611a9b5760095460008c8152600660205260409020600101546001600160a01b0390811691161415611a96576000888152600660205260409020600201546118849088612719565b60008c81526006602052604090206002015490955085106119e25760008b81526006602052604090206002015494506118bd858861276a565b6000898152600660205260409020600201549094506118dc9085611072565b60008981526006602052604080822060029081019384558e8352908220018190558990525461194157600088815260066020526040902060010180547fffffffffffffffffffff00ffffffffffffffffffffffffffffffffffffffffff16905561199a565b600088815260066020526040902060010180547fffffffffffffffffffff00ffffffffffffffffffffffffffffffffffffffffff16750100000000000000000000000000000000000000000017905561199a87896112a1565b60008b815260066020526040902060010180547fffffffffffffffffffff00ffffffffffffffffffffffffffffffffffffffffff1690556119dd8b8987876127a0565b611a96565b8415611a96576119f2858861276a565b60008c815260066020526040902060020154909450611a119086611072565b60008c8152600660205260408082206002808201949094558b8352908220928301829055600192830180547fffffffffffffffffffff00ffffffffffffffffffffffffffffffffffffffffff908116909155918e90529190910180549091167501000000000000000000000000000000000000000000179055611a968b8987876127a0565b611cf2565b8515611cf257600a5460008c8152600660205260409020600101546001600160a01b0390811691161415611cf257600086815260066020526040902060020154611ae5908861276a565b60008c8152600660205260409020600201549094508410611c3e5760008b8152600660205260409020600201549350611b1e8488612719565b600087815260066020526040902060020154909550611b3d9086611072565b60008781526006602052604080822060029081019384558e83529082200181905587905254611ba257600086815260066020526040902060010180547fffffffffffffffffffff00ffffffffffffffffffffffffffffffffffffffffff169055611bfb565b600086815260066020526040902060010180547fffffffffffffffffffff00ffffffffffffffffffffffffffffffffffffffffff167501000000000000000000000000000000000000000000179055611bfb8787611088565b60008b815260066020526040902060010180547fffffffffffffffffffff00ffffffffffffffffffffffffffffffffffffffffff169055611a968b8787876127a0565b8315611cf257611c4e8488612719565b60008c815260066020526040902060020154909550611c6d9085611072565b60008c815260066020526040808220600280820194909455898352908220928301829055600192830180547fffffffffffffffffffff00ffffffffffffffffffffffffffffffffffffffffff908116909155918e90529190910180549091167501000000000000000000000000000000000000000000179055611cf28b8787876127a0565b6001909201916114ed565b6000808c8152600660205260409020600101547501000000000000000000000000000000000000000000900460ff166004811115611d3757fe5b1415611d7e5760095460008c81526006602052604081206001015490916001600160a01b03918216911614611d6d576001611d70565b60005b9050611d7c8c82611df5565b505b50989998505050505050505050565b600080546001600160a01b038381167fffffffffffffffffffffffff0000000000000000000000000000000000000000831681178455604051919092169283917f8be0079c531659141344cd1fd0a4f28419497f9722a3daafe3b4186f6b6457e09190a35050565b8015611ecc57600082815260026020526040902054611e1c57611e16612a92565b50611ec7565b60018054611e2a9082611072565b81548110611e3457fe5b90600052602060002090600202016001600260008581526020019081526020016000205481548110611e6257fe5b60009182526020909120825460029092020190815560019182015490820155805480611e8a57fe5b60008281526020812060027fffffffffffffffffffffffffffffffffffffffffffffffffffffffffffffffff909301928302018181556001015590555b610fb5565b600082815260046020526040902054611eed57611ee7612c0f565b50610fb5565b60038054611efc906001611072565b81548110611f0657fe5b90600052602060002090600202016003600460008581526020019081526020016000205481548110611f3457fe5b6000918252602090912082546002909202019081556001918201549101556003805480611f5d57fe5b60008281526020812060027fffffffffffffffffffffffffffffffffffffffffffffffffffffffffffffffff909301928302018181556001015590555050565b610fa4817f42414c0000000000000000000000000000000000000000000000000000000000612d84565b60018054611fd491611072565b611fdf826002612dff565b1015610fa4576000611ff2826002612dff565b905060006001828154811061200357fe5b60009182526020822060029091020154915060016120218482611059565b8154811061202b57fe5b90600052602060002090600202016000015490508082101561205557612052836001611059565b92505b6001838154811061206257fe5b9060005260206000209060020201600001546001858154811061208157fe5b90600052602060002090600202016000015411156120a157505050610fa4565b6120a9612f07565b600185815481106120b657fe5b9060005260206000209060020201604051806040016040529081600082015481526020016001820154815250509050600184815481106120f257fe5b90600052602060002090600202016001868154811061210d57fe5b9060005260206000209060020201600082015481600001556001820154816001015590505084600260006001878154811061214457fe5b906000526020600020906002020160010154815260200190815260200160002081905550806001858154811061217657fe5b6000918252602080832084516002938402909101908155938101516001909401939093559282015181529190526040902083905550909150611fc79050565b6003546121c3906001611072565b6121ce826002612dff565b1015610fa45760006121e1826002612dff565b90506000600382815481106121f257fe5b6000918252602082206002909102015491506003612211846001611059565b8154811061221b57fe5b90600052602060002090600202016000015490508082111561224557612242836001611059565b92505b6003838154811061225257fe5b9060005260206000209060020201600001546003858154811061227157fe5b906000526020600020906002020160000154101561229157505050610fa4565b612299612f07565b600385815481106122a657fe5b9060005260206000209060020201604051806040016040529081600082015481526020016001820154815250509050600384815481106122e257fe5b9060005260206000209060020201600386815481106122fd57fe5b9060005260206000209060020201600082015481600001556001820154816001015590505084600460006003878154811061233457fe5b906000526020600020906002020160010154815260200190815260200160002081905550806003858154811061236657fe5b600091825260208083208451600290930201918255928301516001909101559181015182526004905260409020839055509091506121b59050565b6000816123b7576123b28484612e19565b6123c1565b6123c18484612e39565b949350505050565b6009546000838152600660205260408120600101549091606091839183916001600160a01b039081169116146124525760035467ffffffffffffffff8111801561241257600080fd5b5060405190808252806020026020018201604052801561244c57816020015b612439612f07565b8152602001906001900390816124315790505b506124a7565b60015467ffffffffffffffff8111801561246b57600080fd5b506040519080825280602002602001820160405280156124a557816020015b612492612f07565b81526020019060019003908161248a5790505b505b600954600088815260066020526040812060010154929350916001600160a01b03908116911614156125f4575b600154156125ef5760006124e6612e6c565b90506124f28188611059565b6124fc57506125ef565b806125045750855b8681101561251257506125ef565b61251a612a92565b83838151811061252657fe5b602002602001018190525060008084848151811061254057fe5b602002602001015160000151116125575781612570565b83838151811061256357fe5b6020026020010151600001515b90506125bb856125b6836006600089898151811061258a57fe5b60200260200101516020015181526020019081526020016000206002015461271990919063ffffffff16565b611059565b60008a81526006602052604090206002015490955085106125e55750929450909250612712915050565b50506001016124d4565b61270b565b600a546000888152600660205260409020600101546001600160a01b039081169116141561270b575b6003541580159061263d575085612632612e93565b11158061263d575085155b1561270b57600061264c612e93565b9050612656612c0f565b83838151811061266257fe5b6020026020010181905250806000146126925782828151811061268157fe5b602002602001015160000151612694565b865b90506126da846125b6600660008787815181106126ad57fe5b6020026020010151602001518152602001908152602001600020600201548461276a90919063ffffffff16565b6000898152600660205260409020600201549094508410612702575091935091506127129050565b5060010161261d565b5090925090505b9250929050565b60006127288215156004610fa7565b826127355750600061080a565b670de0b6b3a7640000838102906127589085838161274f57fe5b04146005610fa7565b82818161276157fe5b0491505061080a565b600082820261278e84158061278757508385838161278457fe5b04145b6003610fa7565b670de0b6b3a764000090049392505050565b60058054600101908190556127b3612ed2565b6040518060c001604052806006600089815260200190815260200160002060000160009054906101000a90046001600160a01b03166001600160a01b031681526020018781526020018681526020018381526020018581526020018481525090508060076000600660008a815260200190815260200160002060000160009054906101000a90046001600160a01b03166001600160a01b03166001600160a01b03168152602001908152602001600020600084815260200190815260200160002060008201518160000160006101000a8154816001600160a01b0302191690836001600160a01b031602179055506020820151816001015560408201518160020155606082015181600301556080820151816004015560a0820151816005015590505080600760006006600089815260200190815260200160002060000160009054906101000a90046001600160a01b03166001600160a01b03166001600160a01b03168152602001908152602001600020600084815260200190815260200160002060008201518160000160006101000a8154816001600160a01b0302191690836001600160a01b031602179055506020820151816001015560408201518160020155606082015181600301556080820151816004015560a08201518160050155905050600860006006600089815260200190815260200160002060000160009054906101000a90046001600160a01b03166001600160a01b03166001600160a01b0316815260200190815260200160002081606001519080600181540180825580915050600190039060005260206000200160009091909190915055600860006006600088815260200190815260200160002060000160009054906101000a90046001600160a01b03166001600160a01b03166001600160a01b0316815260200190815260200160002081606001519080600181540180825580915050600190039060005260206000200160009091909190915055505050505050565b612a9a612f07565b600154612ad3576040517f08c379a0000000000000000000000000000000000000000000000000000000008152600401610364906132e5565b612adb612f07565b6001600081548110612ae957fe5b90600052602060002090600202016040518060400160405290816000820154815260200160018201548152505090506001612b2a6001805490506001611072565b81548110612b3457fe5b90600052602060002090600202016001600081548110612b5057fe5b906000526020600020906002020160008201548160000155600182015481600101559050506000600260006001600081548110612b8957fe5b9060005260206000209060020201600101548152602001908152602001600020819055506001805480612bb857fe5b60008281526020812060027fffffffffffffffffffffffffffffffffffffffffffffffffffffffffffffffff909301928302018181556001908101829055919092555415612c0957612c0981611fc7565b50905090565b612c17612f07565b600354612c50576040517f08c379a0000000000000000000000000000000000000000000000000000000008152600401610364906132e5565b612c58612f07565b6003600081548110612c6657fe5b90600052602060002090600202016040518060400160405290816000820154815260200160018201548152505090506003612ca76003805490506001611072565b81548110612cb157fe5b90600052602060002090600202016003600081548110612ccd57fe5b906000526020600020906002020160008201548160000155600182015481600101559050506000600460006003600081548110612d0657fe5b9060005260206000209060020201600101548152602001908152602001600020819055506003805480612d3557fe5b60008281526020812060027fffffffffffffffffffffffffffffffffffffffffffffffffffffffffffffffff90930192830201818155600101819055915560035415612c0957612c09816121b5565b7f08c379a000000000000000000000000000000000000000000000000000000000600090815260206004526007602452600a808404818106603090810160081b958390069590950190829004918206850160101b01602363ffffff0060e086901c160160181b0190930160c81b60445260e882901c90606490fd5b600082820261106b84158061278757508385838161278457fe5b6000612e288215156004610fa7565b818381612e3157fe5b049392505050565b6000612e488215156004610fa7565b82612e555750600061080a565b816001840381612e6157fe5b04600101905061080a565b60006001600081548110612e7c57fe5b906000526020600020906002020160000154905090565b60006003600081548110612e7c57fe5b6040805160a0810182526000808252602082018190529091820190815260200160008152602001600081525090565b6040805160c081018252600080825260208201819052918101829052606081018290526080810182905260a081019190915290565b604080518082019091526000808252602082015290565b803561080a81613500565b600082601f830112612f39578081fd5b813567ffffffffffffffff811115612f4f578182fd5b612f8060207fffffffffffffffffffffffffffffffffffffffffffffffffffffffffffffffe0601f840116016134d9565b9150808252836020828501011115612f9757600080fd5b8060208401602084013760009082016020015292915050565b80356002811061080a57600080fd5b6000610120808385031215612fd2578182fd5b612fdb816134d9565b915050612fe88383612fb0565b8152612ff78360208401612f1e565b60208201526130098360408401612f1e565b6040820152606082013560608201526080820135608082015260a082013560a08201526130398360c08401612f1e565b60c082015261304b8360e08401612f1e565b60e08201526101008083013567ffffffffffffffff81111561306c57600080fd5b61307885828601612f29565b82840152505092915050565b600060208284031215613095578081fd5b813561106b81613500565b600080604083850312156130b2578081fd5b82356130bd81613500565b946020939093013593505050565b6000602082840312156130dc578081fd5b5035919050565b6000602082840312156130f4578081fd5b5051919050565b6000806040838503121561310d578182fd5b82359150602083013561311f81613500565b809150509250929050565b60008060006060848603121561313e578081fd5b505081359360208301359350604090920135919050565b600080600060608486031215613169578283fd5b8335925060208401359150604084013567ffffffffffffffff81111561318d578182fd5b61319986828701612fbf565b9150509250925092565b60008060006060848603121561313e578283fd5b60008082840360608112156131ca578283fd5b833567ffffffffffffffff8111156131e0578384fd5b6131ec86828701612fbf565b93505060407fffffffffffffffffffffffffffffffffffffffffffffffffffffffffffffffe08201121561321e578182fd5b5061322960406134d9565b60208401356003811061323a578283fd5b81526040939093013560208401525092909150565b60609290921b7fffffffffffffffffffffffffffffffffffffffff000000000000000000000000168252601482015260340190565b6001600160a01b0391909116815260200190565b6020808252825182820181905260009190848201906040850190845b818110156132d0578351835292840192918401916001016132b4565b50909695505050505050565b90815260200190565b60208082526012908201527f4f72646572626f6f6b20697320656d7074790000000000000000000000000000604082015260600190565b6020808252601d908201527f556e617574686f72697a65642061636365737320746f206f7264657273000000604082015260600190565b60208082526013908201527f556e617574686f72697a65642061636365737300000000000000000000000000604082015260600190565b6020808252601b908201527f53656e646572206973206e6f74206f726465722063726561746f720000000000604082015260600190565b60208082526017908201527f4f7264657220697320616c72656164792066696c6c6564000000000000000000604082015260600190565b6020808252601d908201527f556e617574686f72697a65642061636365737320746f20747261646573000000604082015260600190565b600060a0820190506001600160a01b038084511683528060208501511660208401525060408301516003811061346157fe5b604083015260608301516005811061347557fe5b806060840152506080830151608083015292915050565b600060c0820190506001600160a01b0383511682526020830151602083015260408301516040830152606083015160608301526080830151608083015260a083015160a083015292915050565b60405181810167ffffffffffffffff811182821017156134f857600080fd5b604052919050565b6001600160a01b0381168114610fa457600080fdfea264697066735822122069007e42e49e3bffdc1717fb1dfb410144be408a8516f1969f2468919afbf61964736f6c63430007010033",
  "linkReferences": {},
  "deployedLinkReferences": {}
}