{
  "_format": "hh-sol-artifact-1",
  "contractName": "SecondaryIssuePool",
  "sourceName": "contracts/SecondaryIssuePool.sol",
  "abi": [
    {
      "inputs": [
        {
          "internalType": "contract IVault",
          "name": "vault",
          "type": "address"
        },
        {
          "internalType": "string",
          "name": "name",
          "type": "string"
        },
        {
          "internalType": "string",
          "name": "symbol",
          "type": "string"
        },
        {
          "internalType": "address",
          "name": "security",
          "type": "address"
        },
        {
          "internalType": "address",
          "name": "currency",
          "type": "address"
        },
        {
          "internalType": "uint256",
          "name": "minOrderSize",
          "type": "uint256"
        },
        {
          "internalType": "uint256",
          "name": "tradeFeePercentage",
          "type": "uint256"
        },
        {
          "internalType": "uint256",
          "name": "pauseWindowDuration",
          "type": "uint256"
        },
        {
          "internalType": "uint256",
          "name": "bufferPeriodDuration",
          "type": "uint256"
        },
        {
          "internalType": "address",
          "name": "owner",
          "type": "address"
        }
      ],
      "stateMutability": "nonpayable",
      "type": "constructor"
    },
    {
      "anonymous": false,
      "inputs": [
        {
          "indexed": true,
          "internalType": "address",
          "name": "owner",
          "type": "address"
        },
        {
          "indexed": true,
          "internalType": "address",
          "name": "spender",
          "type": "address"
        },
        {
          "indexed": false,
          "internalType": "uint256",
          "name": "value",
          "type": "uint256"
        }
      ],
      "name": "Approval",
      "type": "event"
    },
    {
      "anonymous": false,
      "inputs": [
        {
          "indexed": true,
          "internalType": "address",
          "name": "security",
          "type": "address"
        },
        {
          "indexed": false,
          "internalType": "uint256",
          "name": "minOrderSize",
          "type": "uint256"
        },
        {
          "indexed": false,
          "internalType": "address",
          "name": "currency",
          "type": "address"
        },
        {
          "indexed": false,
          "internalType": "address",
          "name": "orderBook",
          "type": "address"
        },
        {
          "indexed": false,
          "internalType": "address",
          "name": "issueManager",
          "type": "address"
        }
      ],
      "name": "Offer",
      "type": "event"
    },
    {
      "anonymous": false,
      "inputs": [
        {
          "indexed": false,
          "internalType": "address",
          "name": "creator",
          "type": "address"
        },
        {
          "indexed": false,
          "internalType": "address",
          "name": "tokenIn",
          "type": "address"
        },
        {
          "indexed": false,
          "internalType": "address",
          "name": "tokenOut",
          "type": "address"
        },
        {
          "indexed": false,
          "internalType": "uint256",
          "name": "amountOffered",
          "type": "uint256"
        },
        {
          "indexed": false,
          "internalType": "uint256",
          "name": "priceOffered",
          "type": "uint256"
        },
        {
          "indexed": false,
          "internalType": "uint256",
          "name": "timestamp",
          "type": "uint256"
        },
        {
          "indexed": false,
          "internalType": "bytes32",
          "name": "orderRef",
          "type": "bytes32"
        }
      ],
      "name": "OrderBook",
      "type": "event"
    },
    {
      "anonymous": false,
      "inputs": [
        {
          "indexed": false,
          "internalType": "bool",
          "name": "paused",
          "type": "bool"
        }
      ],
      "name": "PausedStateChanged",
      "type": "event"
    },
    {
      "anonymous": false,
      "inputs": [
        {
          "indexed": false,
          "internalType": "bool",
          "name": "enabled",
          "type": "bool"
        }
      ],
      "name": "RecoveryModeStateChanged",
      "type": "event"
    },
    {
      "anonymous": false,
      "inputs": [
        {
          "indexed": false,
          "internalType": "uint256",
          "name": "swapFeePercentage",
          "type": "uint256"
        }
      ],
      "name": "SwapFeePercentageChanged",
      "type": "event"
    },
    {
      "anonymous": false,
      "inputs": [
        {
          "indexed": true,
          "internalType": "address",
          "name": "security",
          "type": "address"
        },
        {
          "indexed": false,
          "internalType": "bytes32",
          "name": "orderRef",
          "type": "bytes32"
        },
        {
          "indexed": false,
          "internalType": "address",
          "name": "party",
          "type": "address"
        },
        {
          "indexed": false,
          "internalType": "address",
          "name": "counterparty",
          "type": "address"
        },
        {
          "indexed": false,
          "internalType": "bytes32",
          "name": "orderType",
          "type": "bytes32"
        },
        {
          "indexed": false,
          "internalType": "uint256",
          "name": "price",
          "type": "uint256"
        },
        {
          "indexed": false,
          "internalType": "address",
          "name": "currency",
          "type": "address"
        },
        {
          "indexed": false,
          "internalType": "uint256",
          "name": "amount",
          "type": "uint256"
        },
        {
          "indexed": false,
          "internalType": "uint256",
          "name": "executionDate",
          "type": "uint256"
        }
      ],
      "name": "TradeReport",
      "type": "event"
    },
    {
      "anonymous": false,
      "inputs": [
        {
          "indexed": true,
          "internalType": "address",
          "name": "from",
          "type": "address"
        },
        {
          "indexed": true,
          "internalType": "address",
          "name": "to",
          "type": "address"
        },
        {
          "indexed": false,
          "internalType": "uint256",
          "name": "value",
          "type": "uint256"
        }
      ],
      "name": "Transfer",
      "type": "event"
    },
    {
      "inputs": [],
      "name": "DOMAIN_SEPARATOR",
      "outputs": [
        {
          "internalType": "bytes32",
          "name": "",
          "type": "bytes32"
        }
      ],
      "stateMutability": "view",
      "type": "function"
    },
    {
      "inputs": [],
      "name": "_orderbook",
      "outputs": [
        {
          "internalType": "contract Orderbook",
          "name": "",
          "type": "address"
        }
      ],
      "stateMutability": "view",
      "type": "function"
    },
    {
      "inputs": [
        {
          "internalType": "address",
          "name": "owner",
          "type": "address"
        },
        {
          "internalType": "address",
          "name": "spender",
          "type": "address"
        }
      ],
      "name": "allowance",
      "outputs": [
        {
          "internalType": "uint256",
          "name": "",
          "type": "uint256"
        }
      ],
      "stateMutability": "view",
      "type": "function"
    },
    {
      "inputs": [
        {
          "internalType": "address",
          "name": "spender",
          "type": "address"
        },
        {
          "internalType": "uint256",
          "name": "amount",
          "type": "uint256"
        }
      ],
      "name": "approve",
      "outputs": [
        {
          "internalType": "bool",
          "name": "",
          "type": "bool"
        }
      ],
      "stateMutability": "nonpayable",
      "type": "function"
    },
    {
      "inputs": [
        {
          "internalType": "address",
          "name": "account",
          "type": "address"
        }
      ],
      "name": "balanceOf",
      "outputs": [
        {
          "internalType": "uint256",
          "name": "",
          "type": "uint256"
        }
      ],
      "stateMutability": "view",
      "type": "function"
    },
    {
      "inputs": [],
      "name": "decimals",
      "outputs": [
        {
          "internalType": "uint8",
          "name": "",
          "type": "uint8"
        }
      ],
      "stateMutability": "view",
      "type": "function"
    },
    {
      "inputs": [
        {
          "internalType": "address",
          "name": "spender",
          "type": "address"
        },
        {
          "internalType": "uint256",
          "name": "amount",
          "type": "uint256"
        }
      ],
      "name": "decreaseAllowance",
      "outputs": [
        {
          "internalType": "bool",
          "name": "",
          "type": "bool"
        }
      ],
      "stateMutability": "nonpayable",
      "type": "function"
    },
    {
      "inputs": [],
      "name": "disableRecoveryMode",
      "outputs": [],
      "stateMutability": "nonpayable",
      "type": "function"
    },
    {
      "inputs": [],
      "name": "enableRecoveryMode",
      "outputs": [],
      "stateMutability": "nonpayable",
      "type": "function"
    },
    {
      "inputs": [
        {
          "internalType": "bytes4",
          "name": "selector",
          "type": "bytes4"
        }
      ],
      "name": "getActionId",
      "outputs": [
        {
          "internalType": "bytes32",
          "name": "",
          "type": "bytes32"
        }
      ],
      "stateMutability": "view",
      "type": "function"
    },
    {
      "inputs": [],
      "name": "getAuthorizer",
      "outputs": [
        {
          "internalType": "contract IAuthorizer",
          "name": "",
          "type": "address"
        }
      ],
      "stateMutability": "view",
      "type": "function"
    },
    {
      "inputs": [],
      "name": "getCurrency",
      "outputs": [
        {
          "internalType": "address",
          "name": "",
          "type": "address"
        }
      ],
      "stateMutability": "view",
      "type": "function"
    },
    {
      "inputs": [],
      "name": "getDomainSeparator",
      "outputs": [
        {
          "internalType": "bytes32",
          "name": "",
          "type": "bytes32"
        }
      ],
      "stateMutability": "view",
      "type": "function"
    },
    {
      "inputs": [],
      "name": "getMinOrderSize",
      "outputs": [
        {
          "internalType": "uint256",
          "name": "",
          "type": "uint256"
        }
      ],
      "stateMutability": "view",
      "type": "function"
    },
    {
      "inputs": [
        {
          "internalType": "address",
          "name": "account",
          "type": "address"
        }
      ],
      "name": "getNextNonce",
      "outputs": [
        {
          "internalType": "uint256",
          "name": "",
          "type": "uint256"
        }
      ],
      "stateMutability": "view",
      "type": "function"
    },
    {
      "inputs": [],
      "name": "getOwner",
      "outputs": [
        {
          "internalType": "address",
          "name": "",
          "type": "address"
        }
      ],
      "stateMutability": "view",
      "type": "function"
    },
    {
      "inputs": [],
      "name": "getPausedState",
      "outputs": [
        {
          "internalType": "bool",
          "name": "paused",
          "type": "bool"
        },
        {
          "internalType": "uint256",
          "name": "pauseWindowEndTime",
          "type": "uint256"
        },
        {
          "internalType": "uint256",
          "name": "bufferPeriodEndTime",
          "type": "uint256"
        }
      ],
      "stateMutability": "view",
      "type": "function"
    },
    {
      "inputs": [],
      "name": "getPoolId",
      "outputs": [
        {
          "internalType": "bytes32",
          "name": "",
          "type": "bytes32"
        }
      ],
      "stateMutability": "view",
      "type": "function"
    },
    {
      "inputs": [],
      "name": "getProtocolFeesCollector",
      "outputs": [
        {
          "internalType": "contract IProtocolFeesCollector",
          "name": "",
          "type": "address"
        }
      ],
      "stateMutability": "view",
      "type": "function"
    },
    {
      "inputs": [],
      "name": "getScalingFactors",
      "outputs": [
        {
          "internalType": "uint256[]",
          "name": "",
          "type": "uint256[]"
        }
      ],
      "stateMutability": "view",
      "type": "function"
    },
    {
      "inputs": [],
      "name": "getSecurity",
      "outputs": [
        {
          "internalType": "address",
          "name": "",
          "type": "address"
        }
      ],
      "stateMutability": "view",
      "type": "function"
    },
    {
      "inputs": [],
      "name": "getSwapFeePercentage",
      "outputs": [
        {
          "internalType": "uint256",
          "name": "",
          "type": "uint256"
        }
      ],
      "stateMutability": "view",
      "type": "function"
    },
    {
      "inputs": [],
      "name": "getVault",
      "outputs": [
        {
          "internalType": "contract IVault",
          "name": "",
          "type": "address"
        }
      ],
      "stateMutability": "view",
      "type": "function"
    },
    {
      "inputs": [],
      "name": "inRecoveryMode",
      "outputs": [
        {
          "internalType": "bool",
          "name": "",
          "type": "bool"
        }
      ],
      "stateMutability": "view",
      "type": "function"
    },
    {
      "inputs": [
        {
          "internalType": "address",
          "name": "spender",
          "type": "address"
        },
        {
          "internalType": "uint256",
          "name": "addedValue",
          "type": "uint256"
        }
      ],
      "name": "increaseAllowance",
      "outputs": [
        {
          "internalType": "bool",
          "name": "",
          "type": "bool"
        }
      ],
      "stateMutability": "nonpayable",
      "type": "function"
    },
    {
      "inputs": [],
      "name": "name",
      "outputs": [
        {
          "internalType": "string",
          "name": "",
          "type": "string"
        }
      ],
      "stateMutability": "view",
      "type": "function"
    },
    {
      "inputs": [
        {
          "internalType": "address",
          "name": "owner",
          "type": "address"
        }
      ],
      "name": "nonces",
      "outputs": [
        {
          "internalType": "uint256",
          "name": "",
          "type": "uint256"
        }
      ],
      "stateMutability": "view",
      "type": "function"
    },
    {
      "inputs": [
        {
          "internalType": "bytes32",
          "name": "poolId",
          "type": "bytes32"
        },
        {
          "internalType": "address",
          "name": "sender",
          "type": "address"
        },
        {
          "internalType": "address",
          "name": "recipient",
          "type": "address"
        },
        {
          "internalType": "uint256[]",
          "name": "balances",
          "type": "uint256[]"
        },
        {
          "internalType": "uint256",
          "name": "lastChangeBlock",
          "type": "uint256"
        },
        {
          "internalType": "uint256",
          "name": "protocolSwapFeePercentage",
          "type": "uint256"
        },
        {
          "internalType": "bytes",
          "name": "userData",
          "type": "bytes"
        }
      ],
      "name": "onExitPool",
      "outputs": [
        {
          "internalType": "uint256[]",
          "name": "",
          "type": "uint256[]"
        },
        {
          "internalType": "uint256[]",
          "name": "",
          "type": "uint256[]"
        }
      ],
      "stateMutability": "nonpayable",
      "type": "function"
    },
    {
      "inputs": [
        {
          "internalType": "bytes32",
          "name": "poolId",
          "type": "bytes32"
        },
        {
          "internalType": "address",
          "name": "sender",
          "type": "address"
        },
        {
          "internalType": "address",
          "name": "recipient",
          "type": "address"
        },
        {
          "internalType": "uint256[]",
          "name": "balances",
          "type": "uint256[]"
        },
        {
          "internalType": "uint256",
          "name": "lastChangeBlock",
          "type": "uint256"
        },
        {
          "internalType": "uint256",
          "name": "protocolSwapFeePercentage",
          "type": "uint256"
        },
        {
          "internalType": "bytes",
          "name": "userData",
          "type": "bytes"
        }
      ],
      "name": "onJoinPool",
      "outputs": [
        {
          "internalType": "uint256[]",
          "name": "",
          "type": "uint256[]"
        },
        {
          "internalType": "uint256[]",
          "name": "",
          "type": "uint256[]"
        }
      ],
      "stateMutability": "nonpayable",
      "type": "function"
    },
    {
      "inputs": [
        {
          "components": [
            {
              "internalType": "enum IVault.SwapKind",
              "name": "kind",
              "type": "uint8"
            },
            {
              "internalType": "contract IERC20",
              "name": "tokenIn",
              "type": "address"
            },
            {
              "internalType": "contract IERC20",
              "name": "tokenOut",
              "type": "address"
            },
            {
              "internalType": "uint256",
              "name": "amount",
              "type": "uint256"
            },
            {
              "internalType": "bytes32",
              "name": "poolId",
              "type": "bytes32"
            },
            {
              "internalType": "uint256",
              "name": "lastChangeBlock",
              "type": "uint256"
            },
            {
              "internalType": "address",
              "name": "from",
              "type": "address"
            },
            {
              "internalType": "address",
              "name": "to",
              "type": "address"
            },
            {
              "internalType": "bytes",
              "name": "userData",
              "type": "bytes"
            }
          ],
          "internalType": "struct IPoolSwapStructs.SwapRequest",
          "name": "request",
          "type": "tuple"
        },
        {
          "internalType": "uint256[]",
          "name": "balances",
          "type": "uint256[]"
        },
        {
          "internalType": "uint256",
          "name": "indexIn",
          "type": "uint256"
        },
        {
          "internalType": "uint256",
          "name": "indexOut",
          "type": "uint256"
        }
      ],
      "name": "onSwap",
      "outputs": [
        {
          "internalType": "uint256",
          "name": "",
          "type": "uint256"
        }
      ],
      "stateMutability": "nonpayable",
      "type": "function"
    },
    {
      "inputs": [],
      "name": "pause",
      "outputs": [],
      "stateMutability": "nonpayable",
      "type": "function"
    },
    {
      "inputs": [
        {
          "internalType": "address",
          "name": "owner",
          "type": "address"
        },
        {
          "internalType": "address",
          "name": "spender",
          "type": "address"
        },
        {
          "internalType": "uint256",
          "name": "value",
          "type": "uint256"
        },
        {
          "internalType": "uint256",
          "name": "deadline",
          "type": "uint256"
        },
        {
          "internalType": "uint8",
          "name": "v",
          "type": "uint8"
        },
        {
          "internalType": "bytes32",
          "name": "r",
          "type": "bytes32"
        },
        {
          "internalType": "bytes32",
          "name": "s",
          "type": "bytes32"
        }
      ],
      "name": "permit",
      "outputs": [],
      "stateMutability": "nonpayable",
      "type": "function"
    },
    {
      "inputs": [
        {
          "internalType": "bytes32",
          "name": "poolId",
          "type": "bytes32"
        },
        {
          "internalType": "address",
          "name": "sender",
          "type": "address"
        },
        {
          "internalType": "address",
          "name": "recipient",
          "type": "address"
        },
        {
          "internalType": "uint256[]",
          "name": "balances",
          "type": "uint256[]"
        },
        {
          "internalType": "uint256",
          "name": "lastChangeBlock",
          "type": "uint256"
        },
        {
          "internalType": "uint256",
          "name": "protocolSwapFeePercentage",
          "type": "uint256"
        },
        {
          "internalType": "bytes",
          "name": "userData",
          "type": "bytes"
        }
      ],
      "name": "queryExit",
      "outputs": [
        {
          "internalType": "uint256",
          "name": "bptIn",
          "type": "uint256"
        },
        {
          "internalType": "uint256[]",
          "name": "amountsOut",
          "type": "uint256[]"
        }
      ],
      "stateMutability": "view",
      "type": "function"
    },
    {
      "inputs": [
        {
          "internalType": "bytes32",
          "name": "poolId",
          "type": "bytes32"
        },
        {
          "internalType": "address",
          "name": "sender",
          "type": "address"
        },
        {
          "internalType": "address",
          "name": "recipient",
          "type": "address"
        },
        {
          "internalType": "uint256[]",
          "name": "balances",
          "type": "uint256[]"
        },
        {
          "internalType": "uint256",
          "name": "lastChangeBlock",
          "type": "uint256"
        },
        {
          "internalType": "uint256",
          "name": "protocolSwapFeePercentage",
          "type": "uint256"
        },
        {
          "internalType": "bytes",
          "name": "userData",
          "type": "bytes"
        }
      ],
      "name": "queryJoin",
      "outputs": [
        {
          "internalType": "uint256",
          "name": "bptOut",
          "type": "uint256"
        },
        {
          "internalType": "uint256[]",
          "name": "amountsIn",
          "type": "uint256[]"
        }
      ],
      "stateMutability": "view",
      "type": "function"
    },
    {
      "inputs": [
        {
          "internalType": "contract IERC20",
          "name": "token",
          "type": "address"
        },
        {
          "internalType": "bytes",
          "name": "poolConfig",
          "type": "bytes"
        }
      ],
      "name": "setAssetManagerPoolConfig",
      "outputs": [],
      "stateMutability": "nonpayable",
      "type": "function"
    },
    {
      "inputs": [
        {
          "internalType": "uint256",
          "name": "swapFeePercentage",
          "type": "uint256"
        }
      ],
      "name": "setSwapFeePercentage",
      "outputs": [],
      "stateMutability": "nonpayable",
      "type": "function"
    },
    {
      "inputs": [],
      "name": "symbol",
      "outputs": [
        {
          "internalType": "string",
          "name": "",
          "type": "string"
        }
      ],
      "stateMutability": "view",
      "type": "function"
    },
    {
      "inputs": [],
      "name": "totalSupply",
      "outputs": [
        {
          "internalType": "uint256",
          "name": "",
          "type": "uint256"
        }
      ],
      "stateMutability": "view",
      "type": "function"
    },
    {
      "inputs": [
        {
          "internalType": "address",
          "name": "recipient",
          "type": "address"
        },
        {
          "internalType": "uint256",
          "name": "amount",
          "type": "uint256"
        }
      ],
      "name": "transfer",
      "outputs": [
        {
          "internalType": "bool",
          "name": "",
          "type": "bool"
        }
      ],
      "stateMutability": "nonpayable",
      "type": "function"
    },
    {
      "inputs": [
        {
          "internalType": "address",
          "name": "sender",
          "type": "address"
        },
        {
          "internalType": "address",
          "name": "recipient",
          "type": "address"
        },
        {
          "internalType": "uint256",
          "name": "amount",
          "type": "uint256"
        }
      ],
      "name": "transferFrom",
      "outputs": [
        {
          "internalType": "bool",
          "name": "",
          "type": "bool"
        }
      ],
      "stateMutability": "nonpayable",
      "type": "function"
    },
    {
      "inputs": [],
      "name": "unpause",
      "outputs": [],
      "stateMutability": "nonpayable",
      "type": "function"
    }
  ],
  "bytecode": "0x6102e06040523480156200001257600080fd5b5060405162008e9338038062008e93833981016040819052620000359162000b88565b8960008a8a620000478b8b30620004d1565b6040805160038082526080820190925290602082016060803683370190505089898989828289898d85336001600160a01b031660001b8480604051806040016040528060018152602001603160f81b81525087878160039080519060200190620000b3929190620009f2565b508051620000c9906004906020840190620009f2565b50506005805460ff19166012179055508151602092830120608052805191012060a052507f8b73c3c69bb8fe3d512ecc4cf759cc79239f7b179b0ffacaa9a75d522b39400f60c05260e0526001600160601b0319606091821b81166101005291901b1661012052506200014790506276a700831115610194620005a0565b6200015b62278d00821115610195620005a0565b42909101610140819052016101605285516200017d906002111560c8620005a0565b620001976200018b620005b5565b8751111560c9620005a0565b620001ad86620005ba60201b620023981760201c565b620001b884620005c6565b6040516309b2760f60e01b81526000906001600160a01b038c16906309b2760f90620001e9908d9060040162000d51565b602060405180830381600087803b1580156200020457600080fd5b505af115801562000219573d6000803e3d6000fd5b505050506040513d601f19601f820116820180604052508101906200023f919062000b50565b604051633354e3e960e11b81529091506001600160a01b038c16906366a9c7d290620002749084908b908b9060040162000cb5565b600060405180830381600087803b1580156200028f57600080fd5b505af1158015620002a4573d6000803e3d6000fd5b505050508061018081815250508a6001600160a01b031663d2946c2b6040518163ffffffff1660e01b815260040160206040518083038186803b158015620002eb57600080fd5b505afa15801562000300573d6000803e3d6000fd5b505050506040513d601f19601f8201168201806040525081019062000326919062000b69565b6001600160a01b03166101a0816001600160a01b031660601b815250505050505050505050505050866001600160a01b03166101c0816001600160a01b031660601b81525050856001600160a01b03166101e0816001600160a01b031660601b8152505089600a60006101000a8154816001600160a01b0302191690836001600160a01b031602179055506000806000620003c98a8a306200065a60201b60201c565b6102608190526102808390526102a082905291945092509050620003ed8a62000750565b61020052620003fc8962000750565b610220526102408890526001600160601b0319606085901b166102c05260405184908b908b9030906200042f9062000a77565b6200043e949392919062000c8a565b604051809103906000f0801580156200045b573d6000803e3d6000fd5b50600980546001600160a01b0319166001600160a01b0392831617908190556040518c8316927f32e7b5e5c88bb4ec1dca71e1e00fc2444e236858d09faa9ddbb9d8c710549ecb92620004b6928d928f9216908a9062000d6f565b60405180910390a25050505050505050505050505062000db8565b606060008080620004e48787876200065a565b60408051600380825260808201909252939650919450925060208201606080368337019050509350868484815181106200051a57fe5b60200260200101906001600160a01b031690816001600160a01b031681525050858483815181106200054857fe5b60200260200101906001600160a01b031690816001600160a01b031681525050848482815181106200057657fe5b60200260200101906001600160a01b031690816001600160a01b0316815250505050509392505050565b81620005b157620005b18162000824565b5050565b600390565b80620005b18162000839565b620005df620005d4620008c5565b82101560cb620005a0565b620005f8620005ed620008ce565b82111560ca620005a0565b6200061a8160c0603f600854620008da60201b620023a217909392919060201c565b6008556040517fa9ba3ffe0b6c366b81232caab38605a0699ad5398d6cce76f91ee809e322dafc906200064f90839062000d66565b60405180910390a150565b6000806000846001600160a01b0316866001600160a01b03161015620006e357836001600160a01b0316856001600160a01b03161015620006a657506000915060019050600262000747565b836001600160a01b0316866001600160a01b03161015620006d257506000915060029050600162000747565b506001915060029050600062000747565b846001600160a01b0316846001600160a01b031610156200070f57506002915060019050600062000747565b856001600160a01b0316846001600160a01b031610156200073b57506002915060009050600162000747565b50600191506000905060025b93509350939050565b60006001600160a01b038216301415620007745750670de0b6b3a76400006200081f565b6000826001600160a01b031663313ce5676040518163ffffffff1660e01b815260040160206040518083038186803b158015620007b057600080fd5b505afa158015620007c5573d6000803e3d6000fd5b505050506040513d601f19601f82011682018060405250810190620007eb919062000c67565b60ff16905060006200080a601283620008ff60201b620023c51760201c565b905080600a0a670de0b6b3a764000002925050505b919050565b62000836816210905360ea1b6200091c565b50565b6002815110156200084a5762000836565b6000816000815181106200085a57fe5b602002602001015190506000600190505b8251811015620008c05760008382815181106200088457fe5b60200260200101519050620008b5816001600160a01b0316846001600160a01b0316106065620005a060201b60201c565b91506001016200086b565b505050565b64e8d4a5100090565b67016345785d8a000090565b6000620008e98484846200097d565b506001901b60001901811b1992909216911b1790565b600062000911838311156001620005a0565b508082035b92915050565b62461bcd60e51b600090815260206004526007602452600a808404818106603090810160081b958390069590950190829004918206850160101b01602363ffffff0060e086901c160160181b0190930160c81b60445260e882901c90606490fd5b6200098e61010083106064620005a0565b620009c760018210158015620009bf5750620009bb60ff8461010003620009d860201b620023db1760201c565b8211155b6064620005a0565b620008c083821c156101b4620005a0565b6000818310620009e95781620009eb565b825b9392505050565b828054600181600116156101000203166002900490600052602060002090601f016020900481019282601f1062000a3557805160ff191683800117855562000a65565b8280016001018555821562000a65579182015b8281111562000a6557825182559160200191906001019062000a48565b5062000a7392915062000a85565b5090565b6136f9806200579a83390190565b5b8082111562000a73576000815560010162000a86565b8051620009168162000da2565b600082601f83011262000aba578081fd5b81516001600160401b038082111562000ad1578283fd5b6040516020601f8401601f191682018101838111838210171562000af3578586fd5b8060405250819450838252868185880101111562000b1057600080fd5b600092505b8383101562000b34578583018101518284018201529182019162000b15565b8383111562000b465760008185840101525b5050505092915050565b60006020828403121562000b62578081fd5b5051919050565b60006020828403121562000b7b578081fd5b8151620009eb8162000da2565b6000806000806000806000806000806101408b8d03121562000ba8578586fd5b62000bb48c8c62000a9c565b60208c0151909a506001600160401b038082111562000bd1578788fd5b62000bdf8e838f0162000aa9565b9a5060408d015191508082111562000bf5578788fd5b5062000c048d828e0162000aa9565b98505062000c168c60608d0162000a9c565b965062000c278c60808d0162000a9c565b955060a08b0151945060c08b0151935060e08b015192506101008b0151915062000c568c6101208d0162000a9c565b90509295989b9194979a5092959850565b60006020828403121562000c79578081fd5b815160ff81168114620009eb578182fd5b6001600160a01b03948516815292841660208401529083166040830152909116606082015260800190565b60006060820185835260206060818501528186518084526080860191508288019350845b8181101562000d015762000cee855162000d96565b8352938301939183019160010162000cd9565b505084810360408601528551808252908201925081860190845b8181101562000d435762000d30835162000d96565b8552938301939183019160010162000d1b565b509298975050505050505050565b602081016003831062000d6057fe5b91905290565b90815260200190565b9384526001600160a01b039283166020850152908216604084015216606082015260800190565b6001600160a01b031690565b6001600160a01b03811681146200083657600080fd5b60805160a05160c05160e0516101005160601c6101205160601c6101405161016051610180516101a05160601c6101c05160601c6101e05160601c61020051610220516102405161026051610280516102a0516102c05160601c61486e62000f2c60003980612fbb52508061086652806124db5280613027528061308152508061093252806124755250806109d052806117a852806119af52806119ec5280611a2a528061253052508061189d5280611dc15250806112905280612503528061305a52508061125c528061249d52508061061c52806106b2528061080a5280610cfb5280610da6528061121152806113da528061193a5280611e5f52508061065b52806106f252806108d65280610b485280610c585280610e235280610eab528061139b52806118fb5280611cfb525080612172525080611d4e52508061274652508061272252508061205a525080612036525080611fc0525080613112525080613154525080613133525061486e6000f3fe608060405234801561001057600080fd5b50600436106102d35760003560e01c806370a0823111610186578063a457c2d7116100e3578063d2946c2b11610097578063dd62ed3e11610071578063dd62ed3e14610547578063ed24911d1461055a578063fd19cac814610562576102d3565b8063d2946c2b14610519578063d505accf14610521578063d5c096c414610534576102d3565b8063aaabadc5116100c8578063aaabadc514610501578063b35056b814610509578063b7b814fc14610511576102d3565b8063a457c2d7146104db578063a9059cbb146104ee576102d3565b806387ec68171161013a5780638d928af81161011f5780638d928af8146104b857806390193b7c146104c057806395d89b41146104d3576102d3565b806387ec68171461049d578063893d20e8146104b0576102d3565b80637ecebe001161016b5780637ecebe001461046f5780638456cb5914610482578063851c1bb31461048a576102d3565b806370a082311461043b57806374f3b0091461044e576102d3565b806338e9922e1161023457806350dd6ed9116101e857806355c67628116101cd57806355c676281461040a5780636028bfd4146104125780636945c1fd14610433576102d3565b806350dd6ed9146103ef57806354a844ba14610402576102d3565b8063395093511161021957806339509351146103cc5780633f4ba83a146103df5780634d6d0fd0146103e7576102d3565b806338e9922e146103af57806338fff2d0146103c4576102d3565b80631dd746ea1161028b5780632541897f116102705780632541897f1461037d578063313ce567146103925780633644e515146103a7576102d3565b80631dd746ea1461035557806323b872dd1461036a576102d3565b8063095ea7b3116102bc578063095ea7b31461031657806318160ddd146103365780631c0de0511461033e576102d3565b806301ec954a146102d857806306fdde0314610301575b600080fd5b6102eb6102e6366004613e48565b61056a565b6040516102f89190614371565b60405180910390f35b610309611b9a565b6040516102f891906144b5565b610329610324366004613b82565b611c30565b6040516102f8919061434e565b6102eb611c47565b610346611c4d565b6040516102f893929190614359565b61035d611c76565b6040516102f8919061430d565b610329610378366004613ad2565b611c85565b610385611cf9565b6040516102f8919061429f565b61039a611d1d565b6040516102f891906147b2565b6102eb611d26565b6103c26103bd366004614047565b611d30565b005b6102eb611d4c565b6103296103da366004613b82565b611d70565b6103c2611dab565b6102eb611dbf565b6103c26103fd366004613d07565b611de3565b6103c2611e01565b6102eb611e13565b610425610420366004613be5565b611e26565b6040516102f8929190614799565b610385611e5d565b6102eb610449366004613a7e565b611e81565b61046161045c366004613be5565b611e9c565b6040516102f8929190614320565b6102eb61047d366004613a7e565b611f9f565b6103c2611faa565b6102eb610498366004613cab565b611fbc565b6104256104ab366004613be5565b61200e565b610385612034565b610385612058565b6102eb6104ce366004613a7e565b61207c565b610309612097565b6103296104e9366004613b82565b6120f8565b6103296104fc366004613b82565b612136565b610385612143565b61032961214d565b6103c261215e565b610385612170565b6103c261052f366004613b12565b612194565b610461610542366004613be5565b61221f565b6102eb610555366004613a9a565b612342565b6102eb61237f565b610385612389565b6000846080015161059761057c612058565b6001600160a01b0316336001600160a01b03161460cd6123f3565b6105ac6105a2611d4c565b82146101f46123f3565b6105b4612401565b6000865160018111156105c357fe5b14806105db57506001865160018111156105d957fe5b145b61061a576040517f08c379a000000000000000000000000000000000000000000000000000000000815260040161061190614601565b60405180910390fd5b7f00000000000000000000000000000000000000000000000000000000000000006001600160a01b031686604001516001600160a01b0316148061069357507f00000000000000000000000000000000000000000000000000000000000000006001600160a01b031686604001516001600160a01b0316145b806106aa575060408601516001600160a01b031630145b806106ea57507f00000000000000000000000000000000000000000000000000000000000000006001600160a01b031686602001516001600160a01b0316145b8061072a57507f00000000000000000000000000000000000000000000000000000000000000006001600160a01b031686602001516001600160a01b0316145b80610741575060208601516001600160a01b031630145b610777576040517f08c379a0000000000000000000000000000000000000000000000000000000008152600401610611906144c8565b6060610781612414565b905061078d8682612587565b610795613927565b6000808080808c5160018111156107a857fe5b14156107d9576107cf8c60600151878c815181106107c257fe5b60200260200101516125f6565b60608d0152610808565b60018c5160018111156107e857fe5b1415610808576108028c60600151878b815181106107c257fe5b60608d01525b7f00000000000000000000000000000000000000000000000000000000000000006001600160a01b03168c602001516001600160a01b0316148015610859575060008c51600181111561085757fe5b145b156108d4578b606001518b7f00000000000000000000000000000000000000000000000000000000000000008151811061088f57fe5b602002602001015110156108cf576040517f08c379a00000000000000000000000000000000000000000000000000000000081526004016106119061456d565b610a39565b7f00000000000000000000000000000000000000000000000000000000000000006001600160a01b03168c602001516001600160a01b0316148015610925575060008c51600181111561092357fe5b145b1561099b578b606001518b7f00000000000000000000000000000000000000000000000000000000000000008151811061095b57fe5b602002602001015110156108cf576040517f08c379a000000000000000000000000000000000000000000000000000000000815260040161061190614638565b60208c01516001600160a01b0316301480156109c3575060008c5160018111156109c157fe5b145b15610a39578b606001518b7f0000000000000000000000000000000000000000000000000000000000000000815181106109f957fe5b60200260200101511015610a39576040517f08c379a000000000000000000000000000000000000000000000000000000000815260040161061190614536565b6101008c01515115611884578b6101000151806020019051810190610a5e9190613c88565b90945092507f4c696d697400000000000000000000000000000000000000000000000000000091508361136557610a9361393e565b60095460c08e01516040517fca142f750000000000000000000000000000000000000000000000000000000081526001600160a01b039092169163ca142f7591610ae19188906004016142f4565b60c06040518083038186803b158015610af957600080fd5b505afa158015610b0d573d6000803e3d6000fd5b505050506040513d601f19601f82011682018060405250810190610b319190613fe1565b60095460c08f015182519293506001600160a01b037f000000000000000000000000000000000000000000000000000000000000000081169392811692635778472a92908216911614610b88578360400151610b8e565b83602001515b6040518263ffffffff1660e01b8152600401610baa9190614371565b60a06040518083038186803b158015610bc257600080fd5b505afa158015610bd6573d6000803e3d6000fd5b505050506040513d601f19601f82011682018060405250810190610bfa9190613f67565b602001516001600160a01b031614610c32577f63757272656e6379000000000000000000000000000000000000000000000000610c54565b7f73656375726974790000000000000000000000000000000000000000000000005b92507f00000000000000000000000000000000000000000000000000000000000000006001600160a01b03168d604001516001600160a01b0316148015610ca7575060008d516001811115610ca557fe5b145b15610cf957806080015191508c606001518160a0015114610cf4576040517f08c379a0000000000000000000000000000000000000000000000000000000008152600401610611906146cc565b610da2565b7f00000000000000000000000000000000000000000000000000000000000000006001600160a01b03168d604001516001600160a01b0316148015610d4a575060008d516001811115610d4857fe5b145b15610d97578060a0015191508c60600151816080015114610cf4576040517f08c379a00000000000000000000000000000000000000000000000000000000081526004016106119061466f565b610da2610163612602565b60007f00000000000000000000000000000000000000000000000000000000000000006001600160a01b03168e604001516001600160a01b0316148015610df5575060208e01516001600160a01b031630145b15610e2157507f53656c6c00000000000000000000000000000000000000000000000000000000610ea9565b7f00000000000000000000000000000000000000000000000000000000000000006001600160a01b03168e604001516001600160a01b0316148015610e72575060208e01516001600160a01b031630145b15610e9e57507f4275790000000000000000000000000000000000000000000000000000000000610ea9565b610ea9610163612602565b7f00000000000000000000000000000000000000000000000000000000000000006001600160a01b03167fd6a806535ec4f172139ede2e9d6bbbe20957ca8a454fd40c9747fe139efe42478f60c001516001600160a01b031684600001516001600160a01b031614610f1f578360400151610f25565b83602001515b7f73656375726974790000000000000000000000000000000000000000000000008714610fee5760095460408087015190517f5778472a0000000000000000000000000000000000000000000000000000000081526001600160a01b0390921691635778472a91610f9891600401614371565b60a06040518083038186803b158015610fb057600080fd5b505afa158015610fc4573d6000803e3d6000fd5b505050506040513d601f19601f82011682018060405250810190610fe89190613f67565b5161108c565b60095460208601516040517f5778472a0000000000000000000000000000000000000000000000000000000081526001600160a01b0390921691635778472a9161103a91600401614371565b60a06040518083038186803b15801561105257600080fd5b505afa158015611066573d6000803e3d6000fd5b505050506040513d601f19601f8201168201806040525081019061108a9190613f67565b515b7f63757272656e637900000000000000000000000000000000000000000000000088146111555760095460408088015190517f5778472a0000000000000000000000000000000000000000000000000000000081526001600160a01b0390921691635778472a916110ff91600401614371565b60a06040518083038186803b15801561111757600080fd5b505afa15801561112b573d6000803e3d6000fd5b505050506040513d601f19601f8201168201806040525081019061114f9190613f67565b516111f3565b60095460208701516040517f5778472a0000000000000000000000000000000000000000000000000000000081526001600160a01b0390921691635778472a916111a191600401614371565b60a06040518083038186803b1580156111b957600080fd5b505afa1580156111cd573d6000803e3d6000fd5b505050506040513d601f19601f820116820180604052508101906111f19190613f67565b515b8561120f88608001518960a0015161262c90919063ffffffff16565b7f00000000000000000000000000000000000000000000000000000000000000008a8a6060015160405161124a9897969594939291906143b0565b60405180910390a261128082608001517f000000000000000000000000000000000000000000000000000000000000000061267d565b608083015260a08201516112b4907f000000000000000000000000000000000000000000000000000000000000000061267d565b60a083015260095460c08f01516040517fd729cf6c0000000000000000000000000000000000000000000000000000000081526001600160a01b039092169163d729cf6c916113079189906004016142f4565b600060405180830381600087803b15801561132157600080fd5b505af1158015611335573d6000803e3d6000fd5b5050505061135683898d8151811061134957fe5b602002602001015161267d565b99505050505050505050611b91565b818414801561137357508215155b1561139457604080518082019091528060018152602001849052945061187f565b826115a7577f00000000000000000000000000000000000000000000000000000000000000006001600160a01b03168c604001516001600160a01b0316148061141257507f00000000000000000000000000000000000000000000000000000000000000006001600160a01b03168c604001516001600160a01b0316145b801561142a575060208c01516001600160a01b031630145b8015611442575060008c51600181111561144057fe5b145b156115975760095460c08d01516040517fd61aed7a0000000000000000000000000000000000000000000000000000000081526001600160a01b039092169163d61aed7a916114969188919060040161437a565b602060405180830381600087803b1580156114b057600080fd5b505af11580156114c4573d6000803e3d6000fd5b505050506040513d601f19601f820116820180604052508101906114e89190613bcd565b90508b606001518114611527576040517f08c379a0000000000000000000000000000000000000000000000000000000008152600401610611906145a4565b7f9b85ff671b830162b81f1cb1253d54a6fee66e6f9760fc15cfc3fecccca8f1188c60c001518d602001518e604001518f6060015187428a60405161157297969594939291906142b3565b60405180910390a161158a81878b8151811061134957fe5b9750505050505050611b91565b6115a2610163612602565b61187f565b82156118745760208c01516001600160a01b0316301480156115d5575060008c5160018111156115d357fe5b145b156116ca57600960009054906101000a90046001600160a01b03166001600160a01b03166346764e5e85858f6040518463ffffffff1660e01b815260040161161f93929190614478565b602060405180830381600087803b15801561163957600080fd5b505af115801561164d573d6000803e3d6000fd5b505050506040513d601f19601f820116820180604052508101906116719190613bcd565b9050611681818d606001516123c5565b90507f9b85ff671b830162b81f1cb1253d54a6fee66e6f9760fc15cfc3fecccca8f1188c60c001518d604001518e602001518487428a60405161157297969594939291906142b3565b60408c01516001600160a01b0316301480156116f2575060008c5160018111156116f057fe5b145b1561159757600960009054906101000a90046001600160a01b03166001600160a01b03166346764e5e85858f6040518463ffffffff1660e01b815260040161173c93929190614478565b602060405180830381600087803b15801561175657600080fd5b505af115801561176a573d6000803e3d6000fd5b505050506040513d601f19601f8201168201806040525081019061178e9190613bcd565b905061179e8c6060015182612689565b90508b606001518b7f0000000000000000000000000000000000000000000000000000000000000000815181106117d157fe5b60200260200101511015611811576040517f08c379a000000000000000000000000000000000000000000000000000000000815260040161061190614729565b7f9b85ff671b830162b81f1cb1253d54a6fee66e6f9760fc15cfc3fecccca8f1188c60c001518d602001518e604001518487428a60405161185897969594939291906142b3565b60405180910390a161158a8c60600151878b8151811061134957fe5b61187f610163612602565b61189b565b604080518082019091526000808252602082015294505b7f00000000000000000000000000000000000000000000000000000000000000008c6060015110156118f9576040517f08c379a0000000000000000000000000000000000000000000000000000000008152600401610611906144ff565b7f00000000000000000000000000000000000000000000000000000000000000006001600160a01b03168c602001516001600160a01b0316148061197257507f00000000000000000000000000000000000000000000000000000000000000006001600160a01b03168c602001516001600160a01b0316145b801561198a575060408c01516001600160a01b031630145b80156119a2575060008c5160018111156119a057fe5b145b15611b12578b606001518b7f0000000000000000000000000000000000000000000000000000000000000000815181106119d857fe5b60200260200101511115611b0257611a278b7f000000000000000000000000000000000000000000000000000000000000000081518110611a1557fe5b60200260200101518d606001516123c5565b8b7f000000000000000000000000000000000000000000000000000000000000000081518110611a5357fe5b60209081029190910101526009546040517f5487e8cf0000000000000000000000000000000000000000000000000000000081526001600160a01b0390911690635487e8cf90611aa9908f908990600401614760565b602060405180830381600087803b158015611ac357600080fd5b505af1158015611ad7573d6000803e3d6000fd5b505050506040513d601f19601f82011682018060405250810190611afb9190613bcd565b9150611b0d565b611b0d610201612602565b611b1d565b611b1d610163612602565b7f9b85ff671b830162b81f1cb1253d54a6fee66e6f9760fc15cfc3fecccca8f1188c60c001518d602001518e604001518f6060015189602001514288604051611b6c97969594939291906142b3565b60405180910390a1611b888c60600151878b8151811061134957fe5b97505050505050505b50949350505050565b60038054604080516020601f6002600019610100600188161502019095169490940493840181900481028201810190925282815260609390929091830182828015611c265780601f10611bfb57610100808354040283529160200191611c26565b820191906000526020600020905b815481529060010190602001808311611c0957829003601f168201915b5050505050905090565b6000611c3d33848461269b565b5060015b92915050565b60025490565b6000806000611c5a612703565b159250611c65612720565b9150611c6f612744565b9050909192565b6060611c80612414565b905090565b600080611c928533612342565b9050611cb6336001600160a01b0387161480611cae5750838210155b61019e6123f3565b611cc1858585612768565b336001600160a01b03861614801590611cdc57506000198114155b15611cee57611cee853385840361269b565b506001949350505050565b7f000000000000000000000000000000000000000000000000000000000000000090565b60055460ff1690565b6000611c8061237f565b611d38612848565b611d40612401565b611d498161288e565b50565b7f000000000000000000000000000000000000000000000000000000000000000090565b3360008181526001602090815260408083206001600160a01b03871684529091528120549091611c3d918590611da69086612689565b61269b565b611db3612848565b611dbd6000612907565b565b7f000000000000000000000000000000000000000000000000000000000000000090565b611deb612848565b611df3612401565b611dfd8282612998565b5050565b611e09612848565b611dbd6001612aa6565b600854600090611c809060c0603f612afd565b60006060611e3c8651611e37612b0c565b612b11565b611e5189898989898989612b1e612b70612bd9565b97509795505050505050565b7f000000000000000000000000000000000000000000000000000000000000000090565b6001600160a01b031660009081526020819052604090205490565b60608088611eab61057c612058565b611eb66105a2611d4c565b60606000611ec386612d8e565b15611eeb57611ed0612dbd565b611ee289611edc611c47565b88612dd0565b92509050611f3d565b611ef3612dfc565b6060611efd612414565b9050611f098a82612587565b611f2d8d8d8d8d8d611f1961214d565b611f23578d611f26565b60005b878e612b1e565b93509150611f3b8382612b70565b505b611f478b82612e04565b81895167ffffffffffffffff81118015611f6057600080fd5b50604051908082528060200260200182016040528015611f8a578160200160208202803683370190505b509450945050505b5097509795505050505050565b6000611c418261207c565b611fb2612848565b611dbd6001612907565b60007f000000000000000000000000000000000000000000000000000000000000000082604051602001611ff1929190614229565b604051602081830303815290604052805190602001209050919050565b6000606061201f8651611e37612b0c565b611e5189898989898989612e0e612e2a612bd9565b7f000000000000000000000000000000000000000000000000000000000000000090565b7f000000000000000000000000000000000000000000000000000000000000000090565b6001600160a01b031660009081526006602052604090205490565b60048054604080516020601f6002600019610100600188161502019095169490940493840181900481028201810190925282815260609390929091830182828015611c265780601f10611bfb57610100808354040283529160200191611c26565b6000806121053385612342565b905080831061211f5761211a3385600061269b565b61212c565b61212c338585840361269b565b5060019392505050565b6000611c3d338484612768565b6000611c80612e93565b600854600090611c809060ff612f0d565b612166612848565b611dbd6000612aa6565b7f000000000000000000000000000000000000000000000000000000000000000090565b60007f6e71edae12b1b97f4d1f60370fef10105fa2faae0126114a169c64845d6126c98888886121c38c61207c565b896040516020016121d9969594939291906143f7565b60405160208183030381529060405280519060200120905061220a8882612201878787612f17565b886101f8612f56565b61221588888861269b565b5050505050505050565b6060808861222e61057c612058565b6122396105a2611d4c565b612241612dfc565b606061224b612414565b9050612255611c47565b612302576000606061226a8d8d8d868b612fad565b915091506122836122796130d2565b83101560cc6123f3565b61229560006122906130d2565b6130d9565b6122a88b6122a16130d2565b84036130d9565b6122b28184612e2a565b808a5167ffffffffffffffff811180156122cb57600080fd5b506040519080825280602002602001820160405280156122f5578160200160208202803683370190505b5095509550505050611f92565b61230c8882612587565b600060606123348d8d8d8d8d61232061214d565b61232a578d61232d565b60005b898e612e0e565b915091506122a88b836130d9565b600061234c612058565b6001600160a01b0316826001600160a01b0316141561236e5750600019611c41565b61237883836130e3565b9050611c41565b6000611c8061310e565b6009546001600160a01b031681565b80611dfd816131ab565b60006123af848484613229565b506001901b60001901811b1992909216911b1790565b60006123d58383111560016123f3565b50900390565b60008183106123ea57816123ec565b825b9392505050565b81611dfd57611dfd81612602565b611dbd61240c612703565b6101926123f3565b60606000612420612b0c565b905060608167ffffffffffffffff8111801561243b57600080fd5b50604051908082528060200260200182016040528015612465578160200160208202803683370190505b50905060005b82811015612580577f00000000000000000000000000000000000000000000000000000000000000008114156124d9577f00000000000000000000000000000000000000000000000000000000000000008282815181106124c857fe5b602002602001018181525050612578565b7f000000000000000000000000000000000000000000000000000000000000000081141561252e577f00000000000000000000000000000000000000000000000000000000000000008282815181106124c857fe5b7f000000000000000000000000000000000000000000000000000000000000000081141561257857670de0b6b3a764000082828151811061256b57fe5b6020026020010181815250505b60010161246b565b5091505090565b81518151612596908290612b11565b60005b818110156125f0576125d18482815181106125b057fe5b60200260200101518483815181106125c457fe5b6020026020010151613270565b8482815181106125dd57fe5b6020908102919091010152600101612599565b50505050565b60006123ec8383613270565b611d49817f42414c00000000000000000000000000000000000000000000000000000000006132a6565b600061263b82151560046123f3565b8261264857506000611c41565b670de0b6b3a76400008381029061266b9085838161266257fe5b041460056123f3565b82818161267457fe5b04915050611c41565b60006123ec838361262c565b60008282016123ec84821015836123f3565b6001600160a01b0380841660008181526001602090815260408083209487168084529490915290819020849055517f8c5be1e5ebec7d5bd14f71427d1e84f3dd0314c0f7b2291e5b200ac8c7c3b925906126f6908590614371565b60405180910390a3505050565b600061270d612744565b421180611c8057505060075460ff161590565b7f000000000000000000000000000000000000000000000000000000000000000090565b7f000000000000000000000000000000000000000000000000000000000000000090565b61277f6001600160a01b03841615156101986123f3565b6127966001600160a01b03831615156101996123f3565b6127a1838383613224565b6001600160a01b0383166000908152602081905260409020546127c790826101a0613321565b6001600160a01b0380851660009081526020819052604080822093909355908416815220546127f69082612689565b6001600160a01b0380841660008181526020819052604090819020939093559151908516907fddf252ad1be2c89b69c2b068fc378daa952ba7f163c4a11628f55a4df523b3ef906126f6908590614371565b60006128776000357fffffffff0000000000000000000000000000000000000000000000000000000016611fbc565b9050611d496128868233613337565b6101916123f3565b6128a3612899613420565b82101560cb6123f3565b6128b86128ae613429565b82111560ca6123f3565b6008546128c9908260c0603f6123a2565b6008556040517fa9ba3ffe0b6c366b81232caab38605a0699ad5398d6cce76f91ee809e322dafc906128fc908390614371565b60405180910390a150565b801561292757612922612918612720565b42106101936123f3565b61293c565b61293c612932612744565b42106101a96123f3565b600780547fffffffffffffffffffffffffffffffffffffffffffffffffffffffffffffff00168215151790556040517f9e3a5e37224532dea67b89face185703738a228a6e8a23dee546960180d3be64906128fc90839061434e565b60006129a2611d4c565b905060006129ae612058565b6001600160a01b031663b05f8e4883866040518363ffffffff1660e01b81526004016129db92919061437a565b60806040518083038186803b1580156129f357600080fd5b505afa158015612a07573d6000803e3d6000fd5b505050506040513d601f19601f82011682018060405250810190612a2b919061405f565b6040517f18e736d40000000000000000000000000000000000000000000000000000000081529094506001600160a01b03851693506318e736d49250612a78915085908790600401614457565b600060405180830381600087803b158015612a9257600080fd5b505af1158015612215573d6000803e3d6000fd5b600854612ab5908260ff613435565b6008556040517feff3d4d215b42bf0960be9c6d5e05c22cba4df6627a3a523e2acee733b5854c890612ae890839061434e565b60405180910390a180611d4957611d49611dbd565b6001901b6000190191901c1690565b600390565b611dfd81831460676123f3565b600060606000612b2d8461345c565b90506001816001811115612b3d57fe5b14612b5257612b4d610163612602565b612b62565b612b5c8885613472565b90935091505b509850989650505050505050565b81518151612b7f908290612b11565b60005b818110156125f057612bba848281518110612b9957fe5b6020026020010151848381518110612bad57fe5b602002602001015161262c565b848281518110612bc657fe5b6020908102919091010152600101612b82565b333014612cc8576000306001600160a01b0316600036604051612bfd929190614259565b6000604051808303816000865af19150503d8060008114612c3a576040519150601f19603f3d011682016040523d82523d6000602084013e612c3f565b606091505b505090508060008114612c4e57fe5b60046000803e6000517fffffffff00000000000000000000000000000000000000000000000000000000167f43adbafb000000000000000000000000000000000000000000000000000000008114612caa573d6000803e3d6000fd5b506020600460003e604060205260243d03602460403e601c3d016000f35b612cd0612dfc565b6060612cda612414565b9050612ce68782612587565b60006060612cfe8c8c8c8c8c8c898d8d63ffffffff16565b91509150612d1081848663ffffffff16565b80517fffffffffffffffffffffffffffffffffffffffffffffffffffffffffffffffe082018390526343adbafb7fffffffffffffffffffffffffffffffffffffffffffffffffffffffffffffffc08301526020027fffffffffffffffffffffffffffffffffffffffffffffffffffffffffffffffdc82016044820181fd5b6000808251118015611c41575060ff801682806020019051810190612db3919061409f565b60ff161492915050565b611dbd612dc861214d565b6101b66123f3565b600060606000612ddf84613515565b90506060612dee87878461352b565b919791965090945050505050565b611dbd612401565b611dfd82826135da565b60006060612e1d610163612602565b9850989650505050505050565b81518151612e39908290612b11565b60005b818110156125f057612e74848281518110612e5357fe5b6020026020010151848381518110612e6757fe5b60200260200101516136a6565b848281518110612e8057fe5b6020908102919091010152600101612e3c565b6000612e9d612058565b6001600160a01b031663aaabadc56040518163ffffffff1660e01b815260040160206040518083038186803b158015612ed557600080fd5b505afa158015612ee9573d6000803e3d6000fd5b505050506040513d601f19601f82011682018060405250810190611c809190613ceb565b1c60019081161490565b60408051604180825260808201909252606091829190602082018180368337019050509050836020820152826040820152846060820153949350505050565b6000612f61856136f4565b9050612f77612f71878387613710565b836123f3565b612f86428410156101b86123f3565b5050506001600160a01b039092166000908152600660205260409020805460010190555050565b60006060612fb9612401565b7f0000000000000000000000000000000000000000000000000000000000000000612ff46001600160a01b03888116908316146101566123f3565b613014816001600160a01b0316876001600160a01b0316146101566123f3565b606061301f856137dd565b905061307e817f00000000000000000000000000000000000000000000000000000000000000008151811061305057fe5b60200260200101517f00000000000000000000000000000000000000000000000000000000000000006125f6565b817f0000000000000000000000000000000000000000000000000000000000000000815181106130aa57fe5b60209081029190910101526dffffffffffffffffffffffffffff999098509650505050505050565b620f424090565b611dfd82826137f3565b6001600160a01b03918216600090815260016020908152604080832093909416825291909152205490565b60007f00000000000000000000000000000000000000000000000000000000000000007f00000000000000000000000000000000000000000000000000000000000000007f000000000000000000000000000000000000000000000000000000000000000061317b613886565b3060405160200161319095949392919061442b565b60405160208183030381529060405280519060200120905090565b6002815110156131ba57611d49565b6000816000815181106131c957fe5b602002602001015190506000600190505b82518110156132245760008382815181106131f157fe5b6020026020010151905061321a816001600160a01b0316846001600160a01b03161060656123f3565b91506001016131da565b505050565b613238610100831060646123f3565b6132616001821015801561325a575061325660ff84610100036123db565b8211155b60646123f3565b61322483821c156101b46123f3565b600082820261329484158061328d57508385838161328a57fe5b04145b60036123f3565b670de0b6b3a764000090049392505050565b7f08c379a000000000000000000000000000000000000000000000000000000000600090815260206004526007602452600a808404818106603090810160081b958390069590950190829004918206850160101b01602363ffffff0060e086901c160160181b0190930160c81b60445260e882901c90606490fd5b600061333084841115836123f3565b5050900390565b600073ba1ba1ba1ba1ba1ba1ba1ba1ba1ba1ba1ba1ba1b613356612034565b6001600160a01b03161415801561337157506133718361388a565b156133995761337e612034565b6001600160a01b0316336001600160a01b0316149050611c41565b6133a1612e93565b6001600160a01b0316639be2a8848484306040518463ffffffff1660e01b81526004016133d093929190614391565b60206040518083038186803b1580156133e857600080fd5b505afa1580156133fc573d6000803e3d6000fd5b505050506040513d601f19601f820116820180604052508101906123789190613bad565b64e8d4a5100090565b67016345785d8a000090565b60006001821b198416828461344b57600061344e565b60015b60ff16901b17949350505050565b600081806020019051810190611c419190613d55565b600060606000613481846138f8565b90506060855167ffffffffffffffff8111801561349d57600080fd5b506040519080825280602002602001820160405280156134c7578160200160208202803683370190505b50905060005b8651811015613509578681815181106134e257fe5b60200260200101518282815181106134f657fe5b60209081029190910101526001016134cd565b50909590945092505050565b6000818060200190518101906123ec91906140bb565b60606000613539838561262c565b9050845167ffffffffffffffff8111801561355357600080fd5b5060405190808252806020026020018201604052801561357d578160200160208202803683370190505b50915060005b85518110156135d1576135b28287838151811061359c57fe5b602002602001015161327090919063ffffffff16565b8382815181106135be57fe5b6020908102919091010152600101613583565b50509392505050565b6135f16001600160a01b038316151561019b6123f3565b6135fd82600083613224565b6001600160a01b03821660009081526020819052604090205461362390826101b2613321565b6001600160a01b0383166000908152602081905260409020556136566136518261364b611c47565b9061390e565b61391c565b60006001600160a01b0316826001600160a01b03167fddf252ad1be2c89b69c2b068fc378daa952ba7f163c4a11628f55a4df523b3ef8360405161369a9190614371565b60405180910390a35050565b60006136b582151560046123f3565b826136c257506000611c41565b670de0b6b3a7640000838102906136dc9085838161266257fe5b8260018203816136e857fe5b04600101915050611c41565b60006136fe61310e565b82604051602001611ff1929190614269565b600061372282516041146101b96123f3565b60208281015160408085015160608601518251600080825295019283905292939092811a9160019061375b908990859088908890614497565b6020604051602081039080840390855afa15801561377d573d6000803e3d6000fd5b50506040517fffffffffffffffffffffffffffffffffffffffffffffffffffffffffffffffe001519150506001600160a01b038116158015906137d15750876001600160a01b0316816001600160a01b0316145b98975050505050505050565b6060818060200190518101906123ec9190613d9e565b6137ff60008383613224565b6138146136518261380e611c47565b90612689565b6001600160a01b0382166000908152602081905260409020546138379082612689565b6001600160a01b0383166000818152602081905260408082209390935591519091907fddf252ad1be2c89b69c2b068fc378daa952ba7f163c4a11628f55a4df523b3ef9061369a908590614371565b4690565b60006138b57f38e9922e00000000000000000000000000000000000000000000000000000000611fbc565b8214806138e957506138e67f50dd6ed900000000000000000000000000000000000000000000000000000000611fbc565b82145b80611c415750611c4182613921565b6000818060200190518101906123ec9190613d71565b60006123ec83836001613321565b600255565b50600090565b604080518082019091526000808252602082015290565b6040805160c081018252600080825260208201819052918101829052606081018290526080810182905260a081019190915290565b8035611c4181614807565b600082601f83011261398e578081fd5b81356139a161399c826147e7565b6147c0565b8181529150602080830190848101818402860182018710156139c257600080fd5b60005b848110156139e1578135845292820192908201906001016139c5565b505050505092915050565b600082601f8301126139fc578081fd5b813567ffffffffffffffff811115613a12578182fd5b613a4360207fffffffffffffffffffffffffffffffffffffffffffffffffffffffffffffffe0601f840116016147c0565b9150808252836020828501011115613a5a57600080fd5b8060208401602084013760009082016020015292915050565b8035611c418161481c565b600060208284031215613a8f578081fd5b81356123ec81614807565b60008060408385031215613aac578081fd5b8235613ab781614807565b91506020830135613ac781614807565b809150509250929050565b600080600060608486031215613ae6578081fd5b8335613af181614807565b92506020840135613b0181614807565b929592945050506040919091013590565b600080600080600080600060e0888a031215613b2c578485fd5b8735613b3781614807565b96506020880135613b4781614807565b955060408801359450606088013593506080880135613b6581614829565b9699959850939692959460a0840135945060c09093013592915050565b60008060408385031215613b94578182fd5b8235613b9f81614807565b946020939093013593505050565b600060208284031215613bbe578081fd5b815180151581146123ec578182fd5b600060208284031215613bde578081fd5b5051919050565b600080600080600080600060e0888a031215613bff578081fd5b873596506020880135613c1181614807565b95506040880135613c2181614807565b9450606088013567ffffffffffffffff80821115613c3d578283fd5b613c498b838c0161397e565b955060808a0135945060a08a0135935060c08a0135915080821115613c6c578283fd5b50613c798a828b016139ec565b91505092959891949750929550565b60008060408385031215613c9a578182fd5b505080516020909101519092909150565b600060208284031215613cbc578081fd5b81357fffffffff00000000000000000000000000000000000000000000000000000000811681146123ec578182fd5b600060208284031215613cfc578081fd5b81516123ec81614807565b60008060408385031215613d19578182fd5b8235613d2481614807565b9150602083013567ffffffffffffffff811115613d3f578182fd5b613d4b858286016139ec565b9150509250929050565b600060208284031215613d66578081fd5b81516123ec8161481c565b60008060408385031215613d83578182fd5b8251613d8e8161481c565b6020939093015192949293505050565b60008060408385031215613db0578182fd5b825160048110613dbe578283fd5b8092505060208084015167ffffffffffffffff811115613ddc578283fd5b8401601f81018613613dec578283fd5b8051613dfa61399c826147e7565b81815283810190838501858402850186018a1015613e16578687fd5b8694505b83851015613e38578051835260019490940193918501918501613e1a565b5080955050505050509250929050565b60008060008060808587031215613e5d578182fd5b843567ffffffffffffffff80821115613e74578384fd5b818701915061012080838a031215613e8a578485fd5b613e93816147c0565b9050613e9f8984613a73565b8152613eae8960208501613973565b6020820152613ec08960408501613973565b6040820152606083013560608201526080830135608082015260a083013560a0820152613ef08960c08501613973565b60c0820152613f028960e08501613973565b60e08201526101008084013583811115613f1a578687fd5b613f268b8287016139ec565b828401525050809650506020870135915080821115613f43578384fd5b50613f508782880161397e565b949794965050505060408301359260600135919050565b600060a08284031215613f78578081fd5b613f8260a06147c0565b8251613f8d81614807565b81526020830151613f9d81614807565b6020820152604083015160038110613fb3578283fd5b6040820152606083015160058110613fc9578283fd5b60608201526080928301519281019290925250919050565b600060c08284031215613ff2578081fd5b613ffc60c06147c0565b825161400781614807565b808252506020830151602082015260408301516040820152606083015160608201526080830151608082015260a083015160a08201528091505092915050565b600060208284031215614058578081fd5b5035919050565b60008060008060808587031215614074578182fd5b845193506020850151925060408501519150606085015161409481614807565b939692955090935050565b6000602082840312156140b0578081fd5b81516123ec81614829565b600080604083850312156140cd578182fd5b8251613d8e81614829565b6001600160a01b03169052565b6000815180845260208085019450808401835b83811015614114578151875295820195908201906001016140f8565b509495945050505050565b60008151808452815b8181101561414457602081850181015186830182015201614128565b818111156141555782602083870101525b50601f017fffffffffffffffffffffffffffffffffffffffffffffffffffffffffffffffe0169290920160200192915050565b600061012082516002811061419957fe5b8085525060208301516141af60208601826140d8565b5060408301516141c260408601826140d8565b50606083015160608501526080830151608085015260a083015160a085015260c08301516141f360c08601826140d8565b5060e083015161420660e08601826140d8565b5061010080840151828287015261421f8387018261411f565b9695505050505050565b9182527fffffffff0000000000000000000000000000000000000000000000000000000016602082015260240190565b6000828483379101908152919050565b7f190100000000000000000000000000000000000000000000000000000000000081526002810192909252602282015260420190565b6001600160a01b0391909116815260200190565b6001600160a01b03978816815295871660208701529390951660408501526060840191909152608083015260a082019290925260c081019190915260e00190565b6001600160a01b03929092168252602082015260400190565b6000602082526123ec60208301846140e5565b60006040825261433360408301856140e5565b828103602084015261434581856140e5565b95945050505050565b901515815260200190565b92151583526020830191909152604082015260600190565b90815260200190565b9182526001600160a01b0316602082015260400190565b9283526001600160a01b03918216602084015216604082015260600190565b9788526001600160a01b03968716602089015294861660408801526060870193909352608086019190915290921660a084015260c083019190915260e08201526101000190565b9586526001600160a01b0394851660208701529290931660408501526060840152608083019190915260a082015260c00190565b9485526020850193909352604084019190915260608301526001600160a01b0316608082015260a00190565b600083825260406020830152614470604083018461411f565b949350505050565b6000848252836020830152606060408301526143456060830184614188565b93845260ff9290921660208401526040830152606082015260800190565b6000602082526123ec602083018461411f565b60208082526016908201527f496e76616c6964207377617070656420746f6b656e7300000000000000000000604082015260600190565b60208082526018908201527f4f726465722062656c6f77206d696e696d756d2073697a650000000000000000604082015260600190565b6020808252601f908201527f496e73756666696369656e7420706f6f6c20746f6b656e2062616c616e636500604082015260600190565b6020808252601d908201527f496e73756666696369656e742063757272656e63792062616c616e6365000000604082015260600190565b60208082526023908201527f496e73756666696369656e7420706f6f6c20746f6b656e73207377617070656460408201527f20696e0000000000000000000000000000000000000000000000000000000000606082015260800190565b6020808252600c908201527f496e76616c696420737761700000000000000000000000000000000000000000604082015260600190565b6020808252601d908201527f496e73756666696369656e742073656375726974792062616c616e6365000000604082015260600190565b60208082526030908201527f496e73756666696369656e7420706f6f6c20746f6b656e73207377617070656460408201527f20696e20666f722063757272656e637900000000000000000000000000000000606082015260800190565b60208082526030908201527f496e73756666696369656e7420706f6f6c20746f6b656e73207377617070656460408201527f20696e20666f7220736563757269747900000000000000000000000000000000606082015260800190565b6020808252601d908201527f494e53554646494349454e545f494e5445524e414c5f42414c414e4345000000604082015260600190565b6000606082526147736060830185614188565b905082516003811061478157fe5b80602084015250602083015160408301529392505050565b60008382526040602083015261447060408301846140e5565b60ff91909116815260200190565b60405181810167ffffffffffffffff811182821017156147df57600080fd5b604052919050565b600067ffffffffffffffff8211156147fd578081fd5b5060209081020190565b6001600160a01b0381168114611d4957600080fd5b60028110611d4957600080fd5b60ff81168114611d4957600080fdfea2646970667358221220a9d636f015745d9bbc89971faac0cd77b9eba3fe3ac9d961521fcef3568b922464736f6c6343000701003360806040523480156200001157600080fd5b50604051620036f9380380620036f9833981016040819052620000349162000101565b6200003f3362000093565b600c80546001600160a01b039586166001600160a01b031991821617909155600a805494861694821694909417909355600b805492851692841692909217909155600d805491909316911617905562000161565b600080546001600160a01b038381166001600160a01b0319831681178455604051919092169283917f8be0079c531659141344cd1fd0a4f28419497f9722a3daafe3b4186f6b6457e09190a35050565b80516001600160a01b0381168114620000fb57600080fd5b92915050565b6000806000806080858703121562000117578384fd5b620001238686620000e3565b9350620001348660208701620000e3565b9250620001458660408701620000e3565b9150620001568660608701620000e3565b905092959194509250565b61358880620001716000396000f3fe608060405234801561001057600080fd5b50600436106101005760003560e01c80637ef9389011610097578063d61aed7a11610066578063d61aed7a146101f3578063d729cf6c14610206578063e43372e914610219578063f2fde38b1461022157610100565b80637ef93890146101a557806381b5da1d146101b85780638da5cb5b146101cb578063ca142f75146101d357610100565b80635487e8cf116100d35780635487e8cf146101605780635778472a146101735780636945c1fd14610193578063715018a61461019b57610100565b80632541897f1461010557806338fff2d01461012357806346764e5e1461013857806346b8b7301461014b575b600080fd5b61010d610234565b60405161011a91906132c1565b60405180910390f35b61012b610243565b60405161011a9190613319565b61012b610146366004613192565b6102d2565b6101536104b5565b60405161011a91906132d5565b61012b61016e3660046131f4565b6105ae565b610186610181366004613108565b610814565b60405161011a919061346c565b61010d610956565b6101a3610965565b005b6101a36101b33660046131e0565b61097d565b6101a36101c6366004613167565b610a9b565b61010d610c11565b6101e66101e13660046130dd565b610c20565b60405161011a91906134c9565b61012b610201366004613138565b610cfb565b6101a36102143660046130dd565b610e7c565b610153610f21565b6101a361022f3660046130c1565b610f82565b600a546001600160a01b031690565b600080600d60009054906101000a90046001600160a01b03166001600160a01b03166338fff2d06040518163ffffffff1660e01b815260040160206040518083038186803b15801561029457600080fd5b505afa1580156102a8573d6000803e3d6000fd5b505050506040513d601f19601f820116820180604052508101906102cc9190613120565b91505090565b60006102f2336102e0610c11565b6001600160a01b0316146101aa610fb1565b60026000858152600760205260409020600101547501000000000000000000000000000000000000000000900460ff16600481111561032d57fe5b1461036d576040517f08c379a0000000000000000000000000000000000000000000000000000000008152600401610364906133fe565b60405180910390fd5b60c08201516000858152600760205260409020546001600160a01b039081169116146103c5576040517f08c379a0000000000000000000000000000000000000000000000000000000008152600401610364906133c7565b600a5460008581526007602052604081206001015490916001600160a01b039182169116146103f55760016103f8565b60005b9050610405848683610fc3565b600085815260076020908152604090912060020154600a549185015190916001600160a01b039182169116148061044e5750600b5460208501516001600160a01b039081169116145b1561047857610461846060015182611063565b6000878152600760205260409020600201556104ac565b6000868152600760205260409020600201546060850151610499919061107c565b6000878152600760205260409020600201555b95945050505050565b600354606090819067ffffffffffffffff811180156104d357600080fd5b506040519080825280602002602001820160405280156104fd578160200160208202803683370190505b50600354909150600090815b818110156105a557336001600160a01b0316600760006003848154811061052c57fe5b600091825260208083206001600290930201919091015483528201929092526040019020546001600160a01b0316141561059d576003818154811061056d57fe5b90600052602060002090600202016001015484848151811061058b57fe5b60209081029190910101526001909201915b600101610509565b50919250505090565b60006105bc336102e0610c11565b6000825160028111156105cb57fe5b14806105e357506001825160028111156105e157fe5b145b6105ec57600080fd5b60055442146105fb5742610602565b6005546001015b600581905560c084015160405160009261061f929160200161328c565b60405160208183030381529060405280519060200120905061063f612ee0565b6040518060a001604052808660c001516001600160a01b0316815260200186602001516001600160a01b031681526020018560000151600281111561068057fe5b8152602001600281526060870151602091820152600084815260078252604090819020835181547fffffffffffffffffffffffff00000000000000000000000000000000000000009081166001600160a01b0392831617835593850151600183018054909516911617808455918401519394508493909290917fffffffffffffffffffffff00ffffffffffffffffffffffffffffffffffffffff167401000000000000000000000000000000000000000083600281111561073d57fe5b021790555060608201516001820180547fffffffffffffffffffff00ffffffffffffffffffffffffffffffffffffffffff16750100000000000000000000000000000000000000000083600481111561079257fe5b021790555060809190910151600290910155600a5460208201516001600160a01b03908116911614156107d2576107cd846020015183611092565b6107fb565b600b5460208201516001600160a01b03908116911614156107fb576107fb8460200151836112a5565b6108098285602001516114ba565b925050505b92915050565b61081c612ee0565b610824610c11565b6001600160a01b0316336001600160a01b0316148061084d5750600c546001600160a01b031633145b8061086e57506000828152600760205260409020546001600160a01b031633145b6108a4576040517f08c379a000000000000000000000000000000000000000000000000000000000815260040161036490613359565b600082815260076020908152604091829020825160a08101845281546001600160a01b0390811682526001830154908116938201939093529290919083019074010000000000000000000000000000000000000000900460ff16600281111561090957fe5b600281111561091457fe5b81526020016001820160159054906101000a900460ff16600481111561093657fe5b600481111561094157fe5b81526020016002820154815250509050919050565b600b546001600160a01b031690565b610971336102e0610c11565b61097b6000611d64565b565b600c546001600160a01b03163314806109ae5750610999610c11565b6001600160a01b0316336001600160a01b0316145b6109e4576040517f08c379a000000000000000000000000000000000000000000000000000000000815260040161036490613390565b60008381526007602052604090206002810180548401905560010180547fffffffffffffffffffff00ffffffffffffffffffffffffffffffffffffffffff1675020000000000000000000000000000000000000000001790819055600a546001600160a01b0391821691161415610a6457610a5f8184611092565b610a96565b600b546000848152600760205260409020600101546001600160a01b0390811691161415610a9657610a9681846112a5565b505050565b600c546001600160a01b0316331480610acc5750610ab7610c11565b6001600160a01b0316336001600160a01b0316145b610b02576040517f08c379a000000000000000000000000000000000000000000000000000000000815260040161036490613390565b600092835260076020908152604080852080547fffffffffffffffffffffffff00000000000000000000000000000000000000009081168255600180830180547fffffffffffffffffffff0000000000000000000000000000000000000000000090811690915560028085018a9055978952848920805484168155808301805490921690915580880189905592546001600160a01b0390811689526008808752858a20888b528752858a208054851681558084018b9055808a018b905560038082018c905560048083018d905560059283018d905596549093168b52908752858a20978a5296909552928720805490911681559182018690559381018590559081018490559182018390550155565b6000546001600160a01b031690565b610c28612f0f565b610c30610c11565b6001600160a01b0316336001600160a01b03161480610c575750336001600160a01b038416145b610c8d576040517f08c379a000000000000000000000000000000000000000000000000000000000815260040161036490613435565b506001600160a01b03918216600090815260086020908152604080832093835292815290829020825160c0810184528154909416845260018101549184019190915260028101549183019190915260038101546060830152600481015460808301526005015460a082015290565b6000610d09336102e0610c11565b60026000848152600760205260409020600101547501000000000000000000000000000000000000000000900460ff166004811115610d4457fe5b14610d7b576040517f08c379a0000000000000000000000000000000000000000000000000000000008152600401610364906133fe565b6000838152600760205260409020546001600160a01b03838116911614610dce576040517f08c379a0000000000000000000000000000000000000000000000000000000008152600401610364906133c7565b600a5460008481526007602052604081206001015490916001600160a01b03918216911614610dfe576001610e01565b60005b9050610e0d8482611dcc565b505050600090815260076020526040812060028101805482547fffffffffffffffffffffffff0000000000000000000000000000000000000000168355600190920180547fffffffffffffffffffff000000000000000000000000000000000000000000001690559190915590565b610e88336102e0610c11565b6001600160a01b038216600090815260096020526040812054905b81811015610f1b576001600160a01b0384166000908152600960205260409020805484919083908110610ed257fe5b90600052602060002001541415610f13576001600160a01b0384166000908152600960205260409020805482908110610f0757fe5b60009182526020822001555b600101610ea3565b50505050565b33600090815260096020908152604091829020805483518184028101840190945280845260609392830182828015610f7857602002820191906000526020600020905b815481526020019060010190808311610f64575b5050505050905090565b610f8e336102e0610c11565b610fa56001600160a01b03821615156101ab610fb1565b610fae81611d64565b50565b81610fbf57610fbf81611f74565b5050565b801561101457600082815260026020526040902054600180548592908110610fe757fe5b60009182526020808320600292830201939093558482529091526040902054610a5f57610a5f6000611f9e565b60008281526004602052604090205460038054859290811061103257fe5b6000918252602080832060029092029091019290925583815260049091526040902054610a9657610a96600061218c565b60008282016110758482101583610fb1565b9392505050565b600061108c838311156001610fb1565b50900390565b60408051808201909152828152602081018281526003805460018082018355600083815294517fc2575a0e9e593c00f959f8c92f12db2869c3395a3b0502d05e2516446f71f85b60029093029283015592517fc2575a0e9e593c00f959f8c92f12db2869c3395a3b0502d05e2516446f71f85c90910155546111139161107c565b905060006111248260026000612378565b90505b60008211801561117257506003828154811061113f57fe5b9060005260206000209060020201600001546003828154811061115e57fe5b906000526020600020906002020160000154115b15610f1b5761117f612f44565b6003828154811061118c57fe5b9060005260206000209060020201604051806040016040529081600082015481526020016001820154815250509050600383815481106111c857fe5b9060005260206000209060020201600383815481106111e357fe5b9060005260206000209060020201600082015481600001556001820154816001015590505081600460006003868154811061121a57fe5b906000526020600020906002020160010154815260200190815260200160002081905550806003848154811061124c57fe5b906000526020600020906002020160008201518160000155602082015181600101559050508260046000836020015181526020019081526020016000208190555081925061129d8360026000612378565b915050611127565b6040805180820190915282815260208101828152600180548082018255600082815293517fb10e2d527612073b26eecdfd717e6a320cf44b4afac2b0732d9fcbe2b7fa0cf660029092029182015591517fb10e2d527612073b26eecdfd717e6a320cf44b4afac2b0732d9fcbe2b7fa0cf79092019190915580546113289161107c565b905060006113398260026000612378565b90505b60008211801561138757506001828154811061135457fe5b9060005260206000209060020201600001546001828154811061137357fe5b906000526020600020906002020160000154105b15610f1b57611394612f44565b600182815481106113a157fe5b9060005260206000209060020201604051806040016040529081600082015481526020016001820154815250509050600183815481106113dd57fe5b9060005260206000209060020201600183815481106113f857fe5b9060005260206000209060020201600082015481600001556001820154816001015590505081600260006001868154811061142f57fe5b906000526020600020906002020160010154815260200190815260200160002081905550806001848154811061146157fe5b90600052602060002090600202016000820151816000015560208201518160010155905050826002600083602001518152602001908152602001600020819055508192506114b28360026000612378565b91505061133c565b60008060008080600080600060606114d28b8b6123a0565b9b509092509050816114ee578a9850505050505050505061080e565b600092505b8051831015611cd45760008b81526007602052604090206002015461151757611cd4565b8a81848151811061152457fe5b6020026020010151602001511415801561158f575060008b815260076020819052604082205483516001600160a01b03909116929084908790811061156557fe5b6020908102919091018101518101518252810191909152604001600020546001600160a01b031614155b80156115e157506000600760008386815181106115a857fe5b602002602001015160200151815260200190815260200160002060010160159054906101000a900460ff1660048111156115de57fe5b14155b1561181157600b5481516001600160a01b039091169060079060009084908790811061160957fe5b6020908102919091018101518101518252810191909152604001600020600101546001600160a01b031614801561165f5750600a5460008c8152600760205260409020600101546001600160a01b039081169116145b1561170f578981848151811061167157fe5b602002602001015160000151101580611688575089155b806116aa575080838151811061169a57fe5b6020026020010151600001516000145b1561170a578083815181106116bb57fe5b6020026020010151600001516000146116eb578083815181106116da57fe5b6020026020010151600001516116ed565b895b96508083815181106116fb57fe5b60200260200101516020015197505b611811565b600a5481516001600160a01b039091169060079060009084908790811061173257fe5b6020908102919091018101518101518252810191909152604001600020600101546001600160a01b03161480156117885750600b5460008c8152600760205260409020600101546001600160a01b039081169116145b15611811578981848151811061179a57fe5b6020026020010151600001511115806117b1575089155b15611811578083815181106117c257fe5b6020026020010151600001516000146117f2578083815181106117e157fe5b6020026020010151600001516117f4565b895b965080838151811061180257fe5b60200260200101516020015195505b8715611a7257600a5460008c8152600760205260409020600101546001600160a01b0390811691161415611a6d5760008881526007602052604090206002015461185b9088612740565b60008c81526007602052604090206002015490955085106119b95760008b81526007602052604090206002015494506118948588612791565b6000898152600760205260409020600201549094506118b3908561107c565b60008981526007602052604080822060029081019384558e8352908220018190558990525461191857600088815260076020526040902060010180547fffffffffffffffffffff00ffffffffffffffffffffffffffffffffffffffffff169055611971565b600088815260076020526040902060010180547fffffffffffffffffffff00ffffffffffffffffffffffffffffffffffffffffff16750100000000000000000000000000000000000000000017905561197187896112a5565b60008b815260076020526040902060010180547fffffffffffffffffffff00ffffffffffffffffffffffffffffffffffffffffff1690556119b48b8987876127c7565b611a6d565b8415611a6d576119c98588612791565b60008c8152600760205260409020600201549094506119e8908661107c565b60008c8152600760205260408082206002808201949094558b8352908220928301829055600192830180547fffffffffffffffffffff00ffffffffffffffffffffffffffffffffffffffffff908116909155918e90529190910180549091167501000000000000000000000000000000000000000000179055611a6d8b8987876127c7565b611cc9565b8515611cc957600b5460008c8152600760205260409020600101546001600160a01b0390811691161415611cc957600086815260076020526040902060020154611abc9088612791565b60008c8152600760205260409020600201549094508410611c155760008b8152600760205260409020600201549350611af58488612740565b600087815260076020526040902060020154909550611b14908661107c565b60008781526007602052604080822060029081019384558e83529082200181905587905254611b7957600086815260076020526040902060010180547fffffffffffffffffffff00ffffffffffffffffffffffffffffffffffffffffff169055611bd2565b600086815260076020526040902060010180547fffffffffffffffffffff00ffffffffffffffffffffffffffffffffffffffffff167501000000000000000000000000000000000000000000179055611bd28787611092565b60008b815260076020526040902060010180547fffffffffffffffffffff00ffffffffffffffffffffffffffffffffffffffffff169055611a6d8b8787876127c7565b8315611cc957611c258488612740565b60008c815260076020526040902060020154909550611c44908561107c565b60008c815260076020526040808220600280820194909455898352908220928301829055600192830180547fffffffffffffffffffff00ffffffffffffffffffffffffffffffffffffffffff908116909155918e90529190910180549091167501000000000000000000000000000000000000000000179055611cc98b8787876127c7565b6001909201916114f3565b6000808c8152600760205260409020600101547501000000000000000000000000000000000000000000900460ff166004811115611d0e57fe5b1415611d5557600a5460008c81526007602052604081206001015490916001600160a01b03918216911614611d44576001611d47565b60005b9050611d538c82611dcc565b505b50989998505050505050505050565b600080546001600160a01b038381167fffffffffffffffffffffffff0000000000000000000000000000000000000000831681178455604051919092169283917f8be0079c531659141344cd1fd0a4f28419497f9722a3daafe3b4186f6b6457e09190a35050565b8015611ea357600082815260026020526040902054611df357611ded612acf565b50611e9e565b60018054611e01908261107c565b81548110611e0b57fe5b90600052602060002090600202016001600260008581526020019081526020016000205481548110611e3957fe5b60009182526020909120825460029092020190815560019182015490820155805480611e6157fe5b60008281526020812060027fffffffffffffffffffffffffffffffffffffffffffffffffffffffffffffffff909301928302018181556001015590555b610fbf565b600082815260046020526040902054611ec457611ebe612c4c565b50610fbf565b60038054611ed390600161107c565b81548110611edd57fe5b90600052602060002090600202016003600460008581526020019081526020016000205481548110611f0b57fe5b6000918252602090912082546002909202019081556001918201549101556003805480611f3457fe5b60008281526020812060027fffffffffffffffffffffffffffffffffffffffffffffffffffffffffffffffff909301928302018181556001015590555050565b610fae817f42414c0000000000000000000000000000000000000000000000000000000000612dc1565b60018054611fab9161107c565b611fb6826002612e3c565b1015610fae576000611fc9826002612e3c565b9050600060018281548110611fda57fe5b6000918252602082206002909102015491506001611ff88482611063565b8154811061200257fe5b90600052602060002090600202016000015490508082101561202c57612029836001611063565b92505b6001838154811061203957fe5b9060005260206000209060020201600001546001858154811061205857fe5b906000526020600020906002020160000154111561207857505050610fae565b612080612f44565b6001858154811061208d57fe5b9060005260206000209060020201604051806040016040529081600082015481526020016001820154815250509050600184815481106120c957fe5b9060005260206000209060020201600186815481106120e457fe5b9060005260206000209060020201600082015481600001556001820154816001015590505084600260006001878154811061211b57fe5b906000526020600020906002020160010154815260200190815260200160002081905550806001858154811061214d57fe5b6000918252602080832084516002938402909101908155938101516001909401939093559282015181529190526040902083905550909150611f9e9050565b60035461219a90600161107c565b6121a5826002612e3c565b1015610fae5760006121b8826002612e3c565b90506000600382815481106121c957fe5b60009182526020822060029091020154915060036121e8846001611063565b815481106121f257fe5b90600052602060002090600202016000015490508082111561221c57612219836001611063565b92505b6003838154811061222957fe5b9060005260206000209060020201600001546003858154811061224857fe5b906000526020600020906002020160000154101561226857505050610fae565b612270612f44565b6003858154811061227d57fe5b9060005260206000209060020201604051806040016040529081600082015481526020016001820154815250509050600384815481106122b957fe5b9060005260206000209060020201600386815481106122d457fe5b9060005260206000209060020201600082015481600001556001820154816001015590505084600460006003878154811061230b57fe5b906000526020600020906002020160010154815260200190815260200160002081905550806003858154811061233d57fe5b6000918252602080832084516002909302019182559283015160019091015591810151825260049052604090208390555090915061218c9050565b60008161238e576123898484612e56565b612398565b6123988484612e76565b949350505050565b600a5460008381526007602052604081206001015490916060918391829184916001600160a01b0391821691161461242b5760035467ffffffffffffffff811180156123eb57600080fd5b5060405190808252806020026020018201604052801561242557816020015b612412612f44565b81526020019060019003908161240a5790505b50612480565b60015467ffffffffffffffff8111801561244457600080fd5b5060405190808252806020026020018201604052801561247e57816020015b61246b612f44565b8152602001906001900390816124635790505b505b600a54600089815260076020526040812060010154929350916001600160a01b03908116911614156125f9575b600154156125f45760006124bf612ea9565b9050801580156124cd575087155b156124f157600654156124e657506006549650866124ec565b506125f4565b612506565b801580156124fe57508715155b156125065750865b8781101561251457506125f4565b61251c612acf565b83838151811061252857fe5b602002602001018190525060008084848151811061254257fe5b602002602001015160000151116125595781612572565b83838151811061256557fe5b6020026020010151600001515b90506125bd856125b8836007600089898151811061258c57fe5b60200260200101516020015181526020019081526020016000206002015461274090919063ffffffff16565b611063565b60008b81526007602052604090206002015490955085106125ea5750929550909350859250612739915050565b50506001016124ad565b61272f565b600b546000898152600760205260409020600101546001600160a01b039081169116141561272f575b60035415801590612642575086612637612ed0565b111580612642575086155b1561272f576000612651612ed0565b90508015801561265f575087155b156126835760065415612678575060065496508661267e565b5061272f565b612698565b8015801561269057508715155b156126985750865b6126a0612c4c565b8383815181106126ac57fe5b60200260200101819052506126fb846125b8600760008787815181106126ce57fe5b6020026020010151602001518152602001908152602001600020600201548461279190919063ffffffff16565b60008a8152600760205260409020600201549094508410612726575091945092508491506127399050565b50600101612622565b5090935091508390505b9250925092565b600061274f8215156004610fb1565b8261275c5750600061080e565b670de0b6b3a76400008381029061277f9085838161277657fe5b04146005610fb1565b82818161278857fe5b0491505061080e565b60008282026127b58415806127ae5750838583816127ab57fe5b04145b6003610fb1565b670de0b6b3a764000090049392505050565b60058054600101908190556127da612f0f565b6040518060c001604052806007600089815260200190815260200160002060000160009054906101000a90046001600160a01b03166001600160a01b031681526020018781526020018681526020018381526020018581526020018481525090508060086000600760008a815260200190815260200160002060000160009054906101000a90046001600160a01b03166001600160a01b03166001600160a01b03168152602001908152602001600020600084815260200190815260200160002060008201518160000160006101000a8154816001600160a01b0302191690836001600160a01b031602179055506020820151816001015560408201518160020155606082015181600301556080820151816004015560a0820151816005015590505080600860006007600089815260200190815260200160002060000160009054906101000a90046001600160a01b03166001600160a01b03166001600160a01b03168152602001908152602001600020600084815260200190815260200160002060008201518160000160006101000a8154816001600160a01b0302191690836001600160a01b031602179055506020820151816001015560408201518160020155606082015181600301556080820151816004015560a08201518160050155905050600960006007600089815260200190815260200160002060000160009054906101000a90046001600160a01b03166001600160a01b03166001600160a01b0316815260200190815260200160002081606001519080600181540180825580915050600190039060005260206000200160009091909190915055600960006007600088815260200190815260200160002060000160009054906101000a90046001600160a01b03166001600160a01b03166001600160a01b0316815260200190815260200160002081606001519080600181540180825580915050600190039060005260206000200160009091909190915055612ac4848461274090919063ffffffff16565b600655505050505050565b612ad7612f44565b600154612b10576040517f08c379a000000000000000000000000000000000000000000000000000000000815260040161036490613322565b612b18612f44565b6001600081548110612b2657fe5b90600052602060002090600202016040518060400160405290816000820154815260200160018201548152505090506001612b67600180549050600161107c565b81548110612b7157fe5b90600052602060002090600202016001600081548110612b8d57fe5b906000526020600020906002020160008201548160000155600182015481600101559050506000600260006001600081548110612bc657fe5b9060005260206000209060020201600101548152602001908152602001600020819055506001805480612bf557fe5b60008281526020812060027fffffffffffffffffffffffffffffffffffffffffffffffffffffffffffffffff909301928302018181556001908101829055919092555415612c4657612c4681611f9e565b50905090565b612c54612f44565b600354612c8d576040517f08c379a000000000000000000000000000000000000000000000000000000000815260040161036490613322565b612c95612f44565b6003600081548110612ca357fe5b90600052602060002090600202016040518060400160405290816000820154815260200160018201548152505090506003612ce4600380549050600161107c565b81548110612cee57fe5b90600052602060002090600202016003600081548110612d0a57fe5b906000526020600020906002020160008201548160000155600182015481600101559050506000600460006003600081548110612d4357fe5b9060005260206000209060020201600101548152602001908152602001600020819055506003805480612d7257fe5b60008281526020812060027fffffffffffffffffffffffffffffffffffffffffffffffffffffffffffffffff90930192830201818155600101819055915560035415612c4657612c468161218c565b7f08c379a000000000000000000000000000000000000000000000000000000000600090815260206004526007602452600a808404818106603090810160081b958390069590950190829004918206850160101b01602363ffffff0060e086901c160160181b0190930160c81b60445260e882901c90606490fd5b60008282026110758415806127ae5750838583816127ab57fe5b6000612e658215156004610fb1565b818381612e6e57fe5b049392505050565b6000612e858215156004610fb1565b82612e925750600061080e565b816001840381612e9e57fe5b04600101905061080e565b60006001600081548110612eb957fe5b906000526020600020906002020160000154905090565b60006003600081548110612eb957fe5b6040805160a0810182526000808252602082018190529091820190815260200160008152602001600081525090565b6040805160c081018252600080825260208201819052918101829052606081018290526080810182905260a081019190915290565b604080518082019091526000808252602082015290565b803561080e8161353d565b600082601f830112612f76578081fd5b813567ffffffffffffffff811115612f8c578182fd5b612fbd60207fffffffffffffffffffffffffffffffffffffffffffffffffffffffffffffffe0601f84011601613516565b9150808252836020828501011115612fd457600080fd5b8060208401602084013760009082016020015292915050565b80356002811061080e57600080fd5b600061012080838503121561300f578182fd5b61301881613516565b9150506130258383612fed565b81526130348360208401612f5b565b60208201526130468360408401612f5b565b6040820152606082013560608201526080820135608082015260a082013560a08201526130768360c08401612f5b565b60c08201526130888360e08401612f5b565b60e08201526101008083013567ffffffffffffffff8111156130a957600080fd5b6130b585828601612f66565b82840152505092915050565b6000602082840312156130d2578081fd5b81356110758161353d565b600080604083850312156130ef578081fd5b82356130fa8161353d565b946020939093013593505050565b600060208284031215613119578081fd5b5035919050565b600060208284031215613131578081fd5b5051919050565b6000806040838503121561314a578182fd5b82359150602083013561315c8161353d565b809150509250929050565b60008060006060848603121561317b578081fd5b505081359360208301359350604090920135919050565b6000806000606084860312156131a6578283fd5b8335925060208401359150604084013567ffffffffffffffff8111156131ca578182fd5b6131d686828701612ffc565b9150509250925092565b60008060006060848603121561317b578283fd5b6000808284036060811215613207578283fd5b833567ffffffffffffffff81111561321d578384fd5b61322986828701612ffc565b93505060407fffffffffffffffffffffffffffffffffffffffffffffffffffffffffffffffe08201121561325b578182fd5b506132666040613516565b602084013560038110613277578283fd5b81526040939093013560208401525092909150565b60609290921b7fffffffffffffffffffffffffffffffffffffffff000000000000000000000000168252601482015260340190565b6001600160a01b0391909116815260200190565b6020808252825182820181905260009190848201906040850190845b8181101561330d578351835292840192918401916001016132f1565b50909695505050505050565b90815260200190565b60208082526012908201527f4f72646572626f6f6b20697320656d7074790000000000000000000000000000604082015260600190565b6020808252601d908201527f556e617574686f72697a65642061636365737320746f206f7264657273000000604082015260600190565b60208082526013908201527f556e617574686f72697a65642061636365737300000000000000000000000000604082015260600190565b6020808252601b908201527f53656e646572206973206e6f74206f726465722063726561746f720000000000604082015260600190565b60208082526017908201527f4f7264657220697320616c72656164792066696c6c6564000000000000000000604082015260600190565b6020808252601d908201527f556e617574686f72697a65642061636365737320746f20747261646573000000604082015260600190565b600060a0820190506001600160a01b038084511683528060208501511660208401525060408301516003811061349e57fe5b60408301526060830151600581106134b257fe5b806060840152506080830151608083015292915050565b600060c0820190506001600160a01b0383511682526020830151602083015260408301516040830152606083015160608301526080830151608083015260a083015160a083015292915050565b60405181810167ffffffffffffffff8111828210171561353557600080fd5b604052919050565b6001600160a01b0381168114610fae57600080fdfea264697066735822122050c8b983d7fa1bfb13c75124956e0fd48bc8b99ba164047bae9f331f2a24f64964736f6c63430007010033",
  "linkReferences": {},
  "deployedLinkReferences": {}
}